{
  "contractName": "Admin",
  "abi": [
    {
      "inputs": [],
      "stateMutability": "nonpayable",
      "type": "constructor"
    },
    {
      "anonymous": false,
      "inputs": [
        {
          "indexed": false,
          "internalType": "address",
          "name": "sender",
          "type": "address"
        },
        {
          "indexed": false,
          "internalType": "address",
          "name": "wallet",
          "type": "address"
        },
        {
          "indexed": false,
          "internalType": "uint256",
          "name": "level",
          "type": "uint256"
        },
        {
          "indexed": false,
          "internalType": "uint256",
          "name": "experience",
          "type": "uint256"
        },
        {
          "indexed": false,
          "internalType": "uint256",
          "name": "experienceNext",
          "type": "uint256"
        },
        {
          "indexed": false,
          "internalType": "uint256[]",
          "name": "events",
          "type": "uint256[]"
        }
      ],
      "name": "clientAdded",
      "type": "event"
    },
    {
      "anonymous": false,
      "inputs": [
        {
          "indexed": false,
          "internalType": "address",
          "name": "sender",
          "type": "address"
        },
        {
          "indexed": false,
          "internalType": "uint256",
          "name": "eventCode",
          "type": "uint256"
        },
        {
          "indexed": false,
          "internalType": "uint256[]",
          "name": "events",
          "type": "uint256[]"
        }
      ],
      "name": "clientAddedEvent",
      "type": "event"
    },
    {
      "inputs": [
        {
          "internalType": "uint256",
          "name": "",
          "type": "uint256"
        }
      ],
      "name": "addresses",
      "outputs": [
        {
          "internalType": "address",
          "name": "",
          "type": "address"
        }
      ],
      "stateMutability": "view",
      "type": "function",
      "constant": true
    },
    {
      "inputs": [],
      "name": "clientCount",
      "outputs": [
        {
          "internalType": "uint256",
          "name": "",
          "type": "uint256"
        }
      ],
      "stateMutability": "view",
      "type": "function",
      "constant": true
    },
    {
      "inputs": [
        {
          "internalType": "address",
          "name": "",
          "type": "address"
        }
      ],
      "name": "clients",
      "outputs": [
        {
          "internalType": "uint256",
          "name": "level",
          "type": "uint256"
        },
        {
          "internalType": "uint256",
          "name": "experience",
          "type": "uint256"
        },
        {
          "internalType": "uint256",
          "name": "experienceNext",
          "type": "uint256"
        },
        {
          "internalType": "bool",
          "name": "isExist",
          "type": "bool"
        }
      ],
      "stateMutability": "view",
      "type": "function",
      "constant": true
    },
    {
      "inputs": [
        {
          "internalType": "address",
          "name": "",
          "type": "address"
        }
      ],
      "name": "scores",
      "outputs": [
        {
          "internalType": "int256",
          "name": "score",
          "type": "int256"
        },
        {
          "internalType": "uint256",
          "name": "time",
          "type": "uint256"
        }
      ],
      "stateMutability": "view",
      "type": "function",
      "constant": true
    },
    {
      "inputs": [
        {
          "internalType": "address",
          "name": "wallet",
          "type": "address"
        }
      ],
      "name": "addClient",
      "outputs": [],
      "stateMutability": "nonpayable",
      "type": "function"
    },
    {
      "inputs": [
        {
          "internalType": "address",
          "name": "wallet",
          "type": "address"
        },
        {
          "internalType": "uint256",
          "name": "eventCode",
          "type": "uint256"
        }
      ],
      "name": "addClientEvent",
      "outputs": [],
      "stateMutability": "nonpayable",
      "type": "function"
    },
    {
      "inputs": [
        {
          "internalType": "address",
          "name": "wallet",
          "type": "address"
        }
      ],
      "name": "getClient",
      "outputs": [
        {
          "internalType": "uint256",
          "name": "",
          "type": "uint256"
        },
        {
          "internalType": "uint256",
          "name": "",
          "type": "uint256"
        },
        {
          "internalType": "uint256",
          "name": "",
          "type": "uint256"
        },
        {
          "internalType": "uint256[]",
          "name": "",
          "type": "uint256[]"
        }
      ],
      "stateMutability": "view",
      "type": "function",
      "constant": true
    },
    {
      "inputs": [],
      "name": "getAddresses",
      "outputs": [
        {
          "internalType": "address[]",
          "name": "",
          "type": "address[]"
        }
      ],
      "stateMutability": "view",
      "type": "function",
      "constant": true
    },
    {
      "inputs": [
        {
          "internalType": "address",
          "name": "wallet",
          "type": "address"
        }
      ],
      "name": "saveCreditEvent",
      "outputs": [],
      "stateMutability": "nonpayable",
      "type": "function"
    },
    {
      "inputs": [
        {
          "internalType": "address",
          "name": "wallet",
          "type": "address"
        }
      ],
      "name": "gainExperience",
      "outputs": [],
      "stateMutability": "nonpayable",
      "type": "function"
    },
    {
      "inputs": [],
      "name": "calculateCreditScore",
      "outputs": [],
      "stateMutability": "nonpayable",
      "type": "function"
    }
  ],
  "bytecode": "0x608060405234801561001057600080fd5b506113ae806100206000396000f3fe608060405234801561001057600080fd5b50600436106100a95760003560e01c8063a0e3287011610071578063a0e3287014610154578063a39fac1214610187578063e18ada0a146101a5578063e541c71e146101c1578063e77d01b4146101df578063edf26d9b146101fb576100a9565b806343928cfd146100ae578063587f7407146100ca57806361eed2a9146100d4578063640af44b1461010757806376dd110f14610123575b600080fd5b6100c860048036038101906100c39190610b01565b61022b565b005b6100d26103bf565b005b6100ee60048036038101906100e99190610b01565b6103c1565b6040516100fe9493929190610b62565b60405180910390f35b610121600480360381019061011c9190610b01565b6103fe565b005b61013d60048036038101906101389190610b01565b61069e565b60405161014b929190610bc0565b60405180910390f35b61016e60048036038101906101699190610b01565b6106c2565b60405161017e9493929190610ca7565b60405180910390f35b61018f610831565b60405161019c9190610db1565b60405180910390f35b6101bf60048036038101906101ba9190610dff565b6108bf565b005b6101c961096f565b6040516101d69190610e3f565b60405180910390f35b6101f960048036038101906101f49190610b01565b610975565b005b61021560048036038101906102109190610e5a565b610a5f565b6040516102229190610e96565b60405180910390f35b6000808273ffffffffffffffffffffffffffffffffffffffff1673ffffffffffffffffffffffffffffffffffffffff16815260200190815260200160002060050160009054906101000a900460ff166103bc5760008060008373ffffffffffffffffffffffffffffffffffffffff1673ffffffffffffffffffffffffffffffffffffffff168152602001908152602001600020905060018160050160006101000a81548160ff0219169083151502179055506001816000018190555060008160010181905550600160056102ff9190610ee0565b81600201819055506001829080600181540180825580915050600190039060005260206000200160009091909190916101000a81548173ffffffffffffffffffffffffffffffffffffffff021916908373ffffffffffffffffffffffffffffffffffffffff1602179055507f45b026660e6fac7f61f349e5009e399bca6f61d5ddf60e2b0f9180b94134e15b3383836000015484600101548560020154866003016040516103b296959493929190611010565b60405180910390a1505b50565b565b60006020528060005260406000206000915090508060000154908060010154908060020154908060050160009054906101000a900460ff16905084565b60008060008373ffffffffffffffffffffffffffffffffffffffff1673ffffffffffffffffffffffffffffffffffffffff16815260200190815260200160002060030180548060200260200160405190810160405280929190818152602001828054801561048b57602002820191906000526020600020905b815481526020019060010190808311610477575b505050505090506000815190506000806000806000805b868110156105855760018882815181106104bf576104be611078565b5b602002602001015114156104dc5785806104d8906110a7565b9650505b60028882815181106104f1576104f0611078565b5b6020026020010151141561050e57848061050a906110a7565b9550505b600388828151811061052357610522611078565b5b6020026020010151141561054057838061053c906110a7565b9450505b600488828151811061055557610554611078565b5b6020026020010151141561057257828061056e906110a7565b9350505b808061057d906110f0565b9150506104a2565b507ffffffffffffffffffffffffffffffffffffffffffffffffffffffffffffffff6826105b29190611139565b6003846105bf9190611139565b6003866105cc9190611139565b6001886105d99190611139565b6105e39190611250565b6105ed9190611250565b6105f79190611250565b9050600060405180604001604052808381526020014281525090506000808a73ffffffffffffffffffffffffffffffffffffffff1673ffffffffffffffffffffffffffffffffffffffff16815260200190815260200160002060040181908060018154018082558091505060019003906000526020600020906002020160009091909190915060008201518160000155602082015181600101555050505050505050505050565b60026020528060005260406000206000915090508060000154908060010154905082565b600080600060606000808673ffffffffffffffffffffffffffffffffffffffff1673ffffffffffffffffffffffffffffffffffffffff168152602001908152602001600020600001546000808773ffffffffffffffffffffffffffffffffffffffff1673ffffffffffffffffffffffffffffffffffffffff168152602001908152602001600020600101546000808873ffffffffffffffffffffffffffffffffffffffff1673ffffffffffffffffffffffffffffffffffffffff168152602001908152602001600020600201546000808973ffffffffffffffffffffffffffffffffffffffff1673ffffffffffffffffffffffffffffffffffffffff1681526020019081526020016000206003018080548060200260200160405190810160405280929190818152602001828054801561081b57602002820191906000526020600020905b815481526020019060010190808311610807575b5050505050905093509350935093509193509193565b606060018054806020026020016040519081016040528092919081815260200182805480156108b557602002820191906000526020600020905b8160009054906101000a900473ffffffffffffffffffffffffffffffffffffffff1673ffffffffffffffffffffffffffffffffffffffff168152602001906001019080831161086b575b5050505050905090565b60008060008473ffffffffffffffffffffffffffffffffffffffff1673ffffffffffffffffffffffffffffffffffffffff1681526020019081526020016000209050806003018290806001815401808255809150506001900390600052602060002001600090919091909150557f4623bfdf7f94027680e54d901618685599c74155a2144332d16508726becf644838383600301604051610962939291906112e4565b60405180910390a1505050565b60035481565b60008060008373ffffffffffffffffffffffffffffffffffffffff1673ffffffffffffffffffffffffffffffffffffffff168152602001908152602001600020905060016000808473ffffffffffffffffffffffffffffffffffffffff1673ffffffffffffffffffffffffffffffffffffffff16815260200190815260200160002060010154610a059190611322565b8160010181905550806002015481600101541415610a5b57806000016000815480929190610a32906110f0565b919050555060018160000154610a489190610ee0565b8160020181905550600081600101819055505b5050565b60018181548110610a6f57600080fd5b906000526020600020016000915054906101000a900473ffffffffffffffffffffffffffffffffffffffff1681565b600080fd5b600073ffffffffffffffffffffffffffffffffffffffff82169050919050565b6000610ace82610aa3565b9050919050565b610ade81610ac3565b8114610ae957600080fd5b50565b600081359050610afb81610ad5565b92915050565b600060208284031215610b1757610b16610a9e565b5b6000610b2584828501610aec565b91505092915050565b6000819050919050565b610b4181610b2e565b82525050565b60008115159050919050565b610b5c81610b47565b82525050565b6000608082019050610b776000830187610b38565b610b846020830186610b38565b610b916040830185610b38565b610b9e6060830184610b53565b95945050505050565b6000819050919050565b610bba81610ba7565b82525050565b6000604082019050610bd56000830185610bb1565b610be26020830184610b38565b9392505050565b600081519050919050565b600082825260208201905092915050565b6000819050602082019050919050565b610c1e81610b2e565b82525050565b6000610c308383610c15565b60208301905092915050565b6000602082019050919050565b6000610c5482610be9565b610c5e8185610bf4565b9350610c6983610c05565b8060005b83811015610c9a578151610c818882610c24565b9750610c8c83610c3c565b925050600181019050610c6d565b5085935050505092915050565b6000608082019050610cbc6000830187610b38565b610cc96020830186610b38565b610cd66040830185610b38565b8181036060830152610ce88184610c49565b905095945050505050565b600081519050919050565b600082825260208201905092915050565b6000819050602082019050919050565b610d2881610ac3565b82525050565b6000610d3a8383610d1f565b60208301905092915050565b6000602082019050919050565b6000610d5e82610cf3565b610d688185610cfe565b9350610d7383610d0f565b8060005b83811015610da4578151610d8b8882610d2e565b9750610d9683610d46565b925050600181019050610d77565b5085935050505092915050565b60006020820190508181036000830152610dcb8184610d53565b905092915050565b610ddc81610b2e565b8114610de757600080fd5b50565b600081359050610df981610dd3565b92915050565b60008060408385031215610e1657610e15610a9e565b5b6000610e2485828601610aec565b9250506020610e3585828601610dea565b9150509250929050565b6000602082019050610e546000830184610b38565b92915050565b600060208284031215610e7057610e6f610a9e565b5b6000610e7e84828501610dea565b91505092915050565b610e9081610ac3565b82525050565b6000602082019050610eab6000830184610e87565b92915050565b7f4e487b7100000000000000000000000000000000000000000000000000000000600052601160045260246000fd5b6000610eeb82610b2e565b9150610ef683610b2e565b9250817fffffffffffffffffffffffffffffffffffffffffffffffffffffffffffffffff0483118215151615610f2f57610f2e610eb1565b5b828202905092915050565b600081549050919050565b60008190508160005260206000209050919050565b60008160001c9050919050565b6000819050919050565b6000610f84610f7f83610f5a565b610f67565b9050919050565b6000610f978254610f71565b9050919050565b6000600182019050919050565b6000610fb682610f3a565b610fc08185610bf4565b9350610fcb83610f45565b8060005b8381101561100357610fe082610f8b565b610fea8882610c24565b9750610ff583610f9e565b925050600181019050610fcf565b5085935050505092915050565b600060c0820190506110256000830189610e87565b6110326020830188610e87565b61103f6040830187610b38565b61104c6060830186610b38565b6110596080830185610b38565b81810360a083015261106b8184610fab565b9050979650505050505050565b7f4e487b7100000000000000000000000000000000000000000000000000000000600052603260045260246000fd5b60006110b282610ba7565b91507f7fffffffffffffffffffffffffffffffffffffffffffffffffffffffffffffff8214156110e5576110e4610eb1565b5b600182019050919050565b60006110fb82610b2e565b91507fffffffffffffffffffffffffffffffffffffffffffffffffffffffffffffffff82141561112e5761112d610eb1565b5b600182019050919050565b600061114482610ba7565b915061114f83610ba7565b9250827f7fffffffffffffffffffffffffffffffffffffffffffffffffffffffffffffff048211600084136000841316161561118e5761118d610eb1565b5b817f800000000000000000000000000000000000000000000000000000000000000005831260008412600084131616156111cb576111ca610eb1565b5b827f8000000000000000000000000000000000000000000000000000000000000000058212600084136000841216161561120857611207610eb1565b5b827f7fffffffffffffffffffffffffffffffffffffffffffffffffffffffffffffff058212600084126000841216161561124557611244610eb1565b5b828202905092915050565b600061125b82610ba7565b915061126683610ba7565b9250817f7fffffffffffffffffffffffffffffffffffffffffffffffffffffffffffffff038313600083121516156112a1576112a0610eb1565b5b817f80000000000000000000000000000000000000000000000000000000000000000383126000831216156112d9576112d8610eb1565b5b828201905092915050565b60006060820190506112f96000830186610e87565b6113066020830185610b38565b81810360408301526113188184610fab565b9050949350505050565b600061132d82610b2e565b915061133883610b2e565b9250827fffffffffffffffffffffffffffffffffffffffffffffffffffffffffffffffff0382111561136d5761136c610eb1565b5b82820190509291505056fea2646970667358221220d3486e7a499f9ad88ebef37d234e69e6433a0d4d11431d62494ee84b783eb42664736f6c634300080c0033",
  "immutableReferences": {},
  "source": "// SPDX-License-Identifier: MIT\r\npragma solidity >=0.8;\r\n\r\n// import \"hardhat/console.sol\";\r\ncontract Admin {\r\n    // Client model\r\n    uint constant JOIN_EVENT = 1;\r\n    uint constant TRAIN_EVENT = 2;\r\n    uint constant EVAL_EVENT = 3;\r\n    uint constant PUNISH_EVENT = 4;\r\n    int constant JOIN_VALUE = 1;\r\n    int constant TRAIN_VALUE = 3;\r\n    int constant EVAL_VALUE = 3;\r\n    int constant PUNISH_VALUE = -10;\r\n    uint constant STARTING_LEVEL = 1;\r\n    uint constant STARTING_EXPERIENCE = 0;\r\n    uint constant EXP_MULTIPLIER = 5;\r\n    uint constant MAX_EVENTS = 5;\r\n\r\n    struct Client {\r\n        uint level;\r\n        uint experience;\r\n        uint experienceNext;\r\n        uint[] events;\r\n        CumulativeScore[] scores;\r\n        bool isExist;\r\n    }\r\n\r\n    struct CumulativeScore {\r\n        int score;\r\n        uint time;\r\n    }\r\n\r\n    //clients\r\n    mapping(address => Client) public clients;\r\n\r\n    //clientList\r\n    address[] public addresses; \r\n    //score\r\n    mapping(address => CumulativeScore) public scores;\r\n    \r\n    event clientAdded(address sender, address wallet, uint256 level, uint256 experience, uint256 experienceNext, uint[] events);\r\n    event clientAddedEvent(address sender, uint eventCode, uint[] events);\r\n\r\n    // Store client Count\r\n    uint public clientCount;\r\n\r\n    constructor () public {\r\n    }\r\n    function addClient (address wallet) public {\r\n        if (!clients[wallet].isExist) {\r\n            Client storage client  = clients[wallet];\r\n            client.isExist = true;\r\n            client.level = STARTING_LEVEL;\r\n            client.experience = STARTING_EXPERIENCE;\r\n            client.experienceNext = EXP_MULTIPLIER * STARTING_LEVEL;\r\n            addresses.push(wallet);\r\n            emit clientAdded(msg.sender, wallet, client.level, client.experience, client.experienceNext, client.events);\r\n        }\r\n    }\r\n    function addClientEvent (address wallet, uint eventCode) public {\r\n        \r\n        Client storage client  = clients[wallet];\r\n        client.events.push(eventCode); \r\n        emit clientAddedEvent(wallet, eventCode, client.events);\r\n    }\r\n\r\n    function getClient (address wallet) public view returns (uint256, uint256, uint256, uint[] memory) {\r\n        return (clients[wallet].level, clients[wallet].experience, clients[wallet].experienceNext, clients[wallet].events);\r\n    }\r\n    function getAddresses () public view returns (address[] memory) {\r\n        return addresses;\r\n    }\r\n    \r\n    function saveCreditEvent (address wallet) public {\r\n        // require a valid client\r\n        uint[] memory creditEventScores = clients[wallet].events;\r\n        uint length = creditEventScores.length;\r\n        int countJoin = 0; \r\n        int countTrain = 0;\r\n        int countEval = 0;\r\n        int countPunish = 0;\r\n        int total = 0;\r\n        for(uint i=0;i<length;i++){\r\n            if (creditEventScores[i] == JOIN_EVENT) {\r\n                countJoin++;\r\n            }\r\n            if (creditEventScores[i] == TRAIN_EVENT) {\r\n                countTrain++;\r\n            }\r\n            if (creditEventScores[i] == EVAL_EVENT) {\r\n                countEval++;\r\n            }\r\n            if (creditEventScores[i] == PUNISH_EVENT) {\r\n                countPunish++;\r\n            }\r\n        }\r\n        total = countJoin * JOIN_VALUE + countTrain * TRAIN_VALUE + countEval * EVAL_VALUE + countPunish * PUNISH_VALUE;\r\n        CumulativeScore memory cScore =  CumulativeScore(total,block.timestamp);\r\n        clients[wallet].scores.push(cScore);\r\n\r\n    }\r\n\r\n    function gainExperience (address wallet) public {\r\n        //increment experience\r\n        Client storage client  = clients[wallet];\r\n        client.experience = clients[wallet].experience + 1;\r\n        //check if enough exp to lv up, client gains level\r\n        if (client.experience == client.experienceNext) {\r\n            client.level++;\r\n            client.experienceNext = client.level * STARTING_LEVEL;\r\n            client.experience = 0;\r\n        }\r\n    }\r\n\r\n    function calculateCreditScore () public {\r\n        \r\n    }\r\n\r\n}\r\n",
  "sourcePath": "/apps/contracts/Admin.sol",
  "compiler": {
    "name": "solc",
    "version": "0.8.12+commit.f00d7308.Emscripten.clang"
  },
  "schemaVersion": "3.4.4",
  "updatedAt": "2022-02-22T01:13:15.899Z",
  "networkType": "ethereum",
  "devdoc": {
    "kind": "dev",
    "methods": {},
    "version": 1
  },
  "userdoc": {
    "kind": "user",
    "methods": {},
    "version": 1
  }
}