{
  "contractName": "Admin",
  "abi": [
    {
      "inputs": [],
      "payable": false,
      "stateMutability": "nonpayable",
      "type": "constructor"
    },
    {
      "constant": true,
      "inputs": [
        {
          "internalType": "uint256",
          "name": "",
          "type": "uint256"
        }
      ],
      "name": "addresses",
      "outputs": [
        {
          "internalType": "address",
          "name": "",
          "type": "address"
        }
      ],
      "payable": false,
      "stateMutability": "view",
      "type": "function"
    },
    {
      "constant": true,
      "inputs": [],
      "name": "clientCount",
      "outputs": [
        {
          "internalType": "uint256",
          "name": "",
          "type": "uint256"
        }
      ],
      "payable": false,
      "stateMutability": "view",
      "type": "function"
    },
    {
      "constant": true,
      "inputs": [
        {
          "internalType": "address",
          "name": "",
          "type": "address"
        }
      ],
      "name": "clients",
      "outputs": [
        {
          "internalType": "uint256",
          "name": "level",
          "type": "uint256"
        },
        {
          "internalType": "uint256",
          "name": "experience",
          "type": "uint256"
        },
        {
          "internalType": "uint256",
          "name": "experienceNext",
          "type": "uint256"
        },
        {
          "internalType": "bool",
          "name": "isExist",
          "type": "bool"
        }
      ],
      "payable": false,
      "stateMutability": "view",
      "type": "function"
    },
    {
      "constant": false,
      "inputs": [
        {
          "internalType": "address",
          "name": "wallet",
          "type": "address"
        }
      ],
      "name": "addClient",
      "outputs": [],
      "payable": false,
      "stateMutability": "nonpayable",
      "type": "function"
    },
    {
      "constant": false,
      "inputs": [
        {
          "internalType": "address",
          "name": "wallet",
          "type": "address"
        },
        {
          "internalType": "uint256",
          "name": "eventCode",
          "type": "uint256"
        }
      ],
      "name": "addClientEvent",
      "outputs": [],
      "payable": false,
      "stateMutability": "nonpayable",
      "type": "function"
    },
    {
      "constant": true,
      "inputs": [
        {
          "internalType": "address",
          "name": "wallet",
          "type": "address"
        }
      ],
      "name": "getClient",
      "outputs": [
        {
          "internalType": "uint256",
          "name": "",
          "type": "uint256"
        },
        {
          "internalType": "uint256",
          "name": "",
          "type": "uint256"
        },
        {
          "internalType": "uint256",
          "name": "",
          "type": "uint256"
        },
        {
          "internalType": "uint256[]",
          "name": "",
          "type": "uint256[]"
        }
      ],
      "payable": false,
      "stateMutability": "view",
      "type": "function"
    },
    {
      "constant": true,
      "inputs": [],
      "name": "getAll",
      "outputs": [
        {
          "internalType": "address[]",
          "name": "",
          "type": "address[]"
        }
      ],
      "payable": false,
      "stateMutability": "view",
      "type": "function"
    },
    {
      "constant": false,
      "inputs": [
        {
          "internalType": "address",
          "name": "wallet",
          "type": "address"
        }
      ],
      "name": "saveCreditEvent",
      "outputs": [],
      "payable": false,
      "stateMutability": "nonpayable",
      "type": "function"
    },
    {
      "constant": false,
      "inputs": [
        {
          "internalType": "address",
          "name": "wallet",
          "type": "address"
        }
      ],
      "name": "gainExperience",
      "outputs": [],
      "payable": false,
      "stateMutability": "nonpayable",
      "type": "function"
    }
  ],
  "bytecode": "0x608060405234801561001057600080fd5b50610c47806100206000396000f3fe608060405234801561001057600080fd5b50600436106100935760003560e01c8063a0e3287011610066578063a0e32870146101f0578063e18ada0a1461029e578063e541c71e146102ec578063e77d01b41461030a578063edf26d9b1461034e57610093565b806343928cfd1461009857806353ed5143146100dc57806361eed2a91461013b578063640af44b146101ac575b600080fd5b6100da600480360360208110156100ae57600080fd5b81019080803573ffffffffffffffffffffffffffffffffffffffff1690602001909291905050506103bc565b005b6100e4610440565b6040518080602001828103825283818151815260200191508051906020019060200280838360005b8381101561012757808201518184015260208101905061010c565b505050509050019250505060405180910390f35b61017d6004803603602081101561015157600080fd5b81019080803573ffffffffffffffffffffffffffffffffffffffff1690602001909291905050506104ce565b604051808581526020018481526020018381526020018215151515815260200194505050505060405180910390f35b6101ee600480360360208110156101c257600080fd5b81019080803573ffffffffffffffffffffffffffffffffffffffff16906020019092919050505061050b565b005b6102326004803603602081101561020657600080fd5b81019080803573ffffffffffffffffffffffffffffffffffffffff169060200190929190505050610750565b6040518085815260200184815260200183815260200180602001828103825283818151815260200191508051906020019060200280838360005b8381101561028757808201518184015260208101905061026c565b505050509050019550505050505060405180910390f35b6102ea600480360360408110156102b457600080fd5b81019080803573ffffffffffffffffffffffffffffffffffffffff169060200190929190803590602001909291905050506108d5565b005b6102f4610944565b6040518082815260200191505060405180910390f35b61034c6004803603602081101561032057600080fd5b81019080803573ffffffffffffffffffffffffffffffffffffffff16906020019092919050505061094a565b005b61037a6004803603602081101561036457600080fd5b8101908080359060200190929190505050610b84565b604051808273ffffffffffffffffffffffffffffffffffffffff1673ffffffffffffffffffffffffffffffffffffffff16815260200191505060405180910390f35b60008060008373ffffffffffffffffffffffffffffffffffffffff1673ffffffffffffffffffffffffffffffffffffffff168152602001908152602001600020905060018160050160006101000a81548160ff0219169083151502179055506001816000018190555060008160010181905550600160050281600201819055505050565b606060018054806020026020016040519081016040528092919081815260200182805480156104c457602002820191906000526020600020905b8160009054906101000a900473ffffffffffffffffffffffffffffffffffffffff1673ffffffffffffffffffffffffffffffffffffffff168152602001906001019080831161047a575b5050505050905090565b60006020528060005260406000206000915090508060000154908060010154908060020154908060050160009054906101000a900460ff16905084565b60606000808373ffffffffffffffffffffffffffffffffffffffff1673ffffffffffffffffffffffffffffffffffffffff16815260200190815260200160002060030180548060200260200160405190810160405280929190818152602001828054801561059857602002820191906000526020600020905b815481526020019060010190808311610584575b505050505090506000815190506000809050600080905060008090506000809050600080905060008090505b8681101561066d5760018882815181106105da57fe5b602002602001015114156105f15785806001019650505b60028882815181106105ff57fe5b602002602001015114156106165784806001019550505b600388828151811061062457fe5b6020026020010151141561063b5783806001019450505b600488828151811061064957fe5b602002602001015114156106605782806001019350505b80806001019150506105c4565b507ffffffffffffffffffffffffffffffffffffffffffffffffffffffffffffffff6820260038402600386026001880201010190506106aa610bc0565b60405180604001604052808381526020014281525090506000808a73ffffffffffffffffffffffffffffffffffffffff1673ffffffffffffffffffffffffffffffffffffffff16815260200190815260200160002060040181908060018154018082558091505090600182039060005260206000209060020201600090919290919091506000820151816000015560208201518160010155505050505050505050505050565b6000806000606061075f610bda565b6000808773ffffffffffffffffffffffffffffffffffffffff1673ffffffffffffffffffffffffffffffffffffffff1681526020019081526020016000206040518060c00160405290816000820154815260200160018201548152602001600282015481526020016003820180548060200260200160405190810160405280929190818152602001828054801561081557602002820191906000526020600020905b815481526020019060010190808311610801575b5050505050815260200160048201805480602002602001604051908101604052809291908181526020016000905b8282101561088957838290600052602060002090600202016040518060400160405290816000820154815260200160018201548152505081526020019060010190610843565b5050505081526020016005820160009054906101000a900460ff161515151581525050905080600001518160200151826040015183606001518090509450945094509450509193509193565b6000808373ffffffffffffffffffffffffffffffffffffffff1673ffffffffffffffffffffffffffffffffffffffff1681526020019081526020016000206003018190806001815401808255809150509060018203906000526020600020016000909192909190915055505050565b60035481565b60016000808373ffffffffffffffffffffffffffffffffffffffff1673ffffffffffffffffffffffffffffffffffffffff16815260200190815260200160002060010154016000808373ffffffffffffffffffffffffffffffffffffffff1673ffffffffffffffffffffffffffffffffffffffff168152602001908152602001600020600101819055506000808273ffffffffffffffffffffffffffffffffffffffff1673ffffffffffffffffffffffffffffffffffffffff168152602001908152602001600020600201546000808373ffffffffffffffffffffffffffffffffffffffff1673ffffffffffffffffffffffffffffffffffffffff168152602001908152602001600020600101541415610b81576000808273ffffffffffffffffffffffffffffffffffffffff1673ffffffffffffffffffffffffffffffffffffffff1681526020019081526020016000206000016000815480929190600101919050555060016000808373ffffffffffffffffffffffffffffffffffffffff1673ffffffffffffffffffffffffffffffffffffffff16815260200190815260200160002060000154026000808373ffffffffffffffffffffffffffffffffffffffff1673ffffffffffffffffffffffffffffffffffffffff1681526020019081526020016000206002018190555060008060008373ffffffffffffffffffffffffffffffffffffffff1673ffffffffffffffffffffffffffffffffffffffff168152602001908152602001600020600101819055505b50565b60018181548110610b9157fe5b906000526020600020016000915054906101000a900473ffffffffffffffffffffffffffffffffffffffff1681565b604051806040016040528060008152602001600081525090565b6040518060c001604052806000815260200160008152602001600081526020016060815260200160608152602001600015158152509056fea265627a7a723158207c1bd4bfb759661e52e45dfcfb83de1d32f6459d5957536818ee9fba7be7a16164736f6c63430005100032",
  "source": "// SPDX-License-Identifier: MIT\r\npragma solidity >=0.4.2;\r\n\r\ncontract Admin {\r\n    // Client model\r\n    uint constant JOIN_EVENT = 1;\r\n    uint constant TRAIN_EVENT = 2;\r\n    uint constant EVAL_EVENT = 3;\r\n    uint constant PUNISH_EVENT = 4;\r\n    int constant JOIN_VALUE = 1;\r\n    int constant TRAIN_VALUE = 3;\r\n    int constant EVAL_VALUE = 3;\r\n    int constant PUNISH_VALUE = -10;\r\n    uint constant STARTING_LEVEL = 1;\r\n    uint constant STARTING_EXPERIENCE = 0;\r\n    uint constant EXP_MULTIPLIER = 5;\r\n    uint constant MAX_EVENTS = 5;\r\n\r\n    struct Client {\r\n        uint level;\r\n        uint experience;\r\n        uint experienceNext;\r\n        uint[] events;\r\n        CumulativeScore[] scores;\r\n        bool isExist;\r\n    }\r\n\r\n    struct CumulativeScore {\r\n        int score;\r\n        uint cumulativeTime;\r\n    }\r\n\r\n    //clients\r\n    mapping(address => Client) public clients;\r\n\r\n    //clientList\r\n    address[] public addresses; \r\n    //score\r\n    mapping(address => CumulativeScore) private scores;\r\n    \r\n\r\n    // Store client Count\r\n    uint public clientCount;\r\n\r\n    constructor () public {\r\n    }\r\n\r\n    function addClient (address wallet) public {\r\n        Client storage client  = clients[wallet];\r\n        client.isExist = true;\r\n        client.level = STARTING_LEVEL;\r\n        client.experience = STARTING_EXPERIENCE;\r\n        client.experienceNext = EXP_MULTIPLIER * STARTING_LEVEL;\r\n        // addresses.push(wallet);\r\n    }\r\n\r\n    function addClientEvent (address wallet, uint eventCode) public {\r\n        clients[wallet].events.push(eventCode); \r\n    }\r\n\r\n    function getClient (address wallet) public view returns (uint256, uint256, uint256, uint[] memory) {\r\n        Client memory client = clients[wallet];\r\n        return (client.level, client.experience, client.experienceNext, client.events);\r\n    }\r\n\r\n    function getAll () public view returns (address[] memory) {\r\n        return addresses;\r\n    }\r\n\r\n    function saveCreditEvent (address wallet) public {\r\n        // require a valid client\r\n        uint[] memory creditEventScores = clients[wallet].events;\r\n        uint length = creditEventScores.length;\r\n        int countJoin = 0; \r\n        int countTrain = 0;\r\n        int countEval = 0;\r\n        int countPunish = 0;\r\n        int total = 0;\r\n        for(uint i=0;i<length;i++){\r\n            if (creditEventScores[i] == JOIN_EVENT) {\r\n                countJoin++;\r\n            }\r\n            if (creditEventScores[i] == TRAIN_EVENT) {\r\n                countTrain++;\r\n            }\r\n            if (creditEventScores[i] == EVAL_EVENT) {\r\n                countEval++;\r\n            }\r\n            if (creditEventScores[i] == PUNISH_EVENT) {\r\n                countPunish++;\r\n            }\r\n        }\r\n        total = countJoin * JOIN_VALUE + countTrain * TRAIN_VALUE + countEval * EVAL_VALUE + countPunish * PUNISH_VALUE;\r\n        CumulativeScore memory cScore =  CumulativeScore(total,block.timestamp);\r\n        clients[wallet].scores.push(cScore);\r\n\r\n    }\r\n\r\n    function gainExperience (address wallet) public {\r\n        //increment experience\r\n        clients[wallet].experience = clients[wallet].experience + 1;\r\n        //check if enough exp to lv up, client gains level\r\n        if (clients[wallet].experience == clients[wallet].experienceNext) {\r\n            clients[wallet].level++;\r\n            clients[wallet].experienceNext = clients[wallet].level * STARTING_LEVEL;\r\n            clients[wallet].experience = 0;\r\n        }\r\n    }\r\n\r\n}\r\n",
  "sourcePath": "/apps/election/contracts/Admin.sol",
  "compiler": {
    "name": "solc",
    "version": "0.5.16+commit.9c3226ce.Emscripten.clang"
  },
  "schemaVersion": "3.4.4",
  "updatedAt": "2022-02-15T04:39:14.672Z",
  "networkType": "ethereum",
  "devdoc": {
    "methods": {}
  },
  "userdoc": {
    "methods": {}
  }
}