{
  "contractName": "Admin",
  "abi": [
    {
      "anonymous": false,
      "inputs": [
        {
          "indexed": false,
          "internalType": "address",
          "name": "sender",
          "type": "address"
        },
        {
          "indexed": false,
          "internalType": "address",
          "name": "wallet",
          "type": "address"
        },
        {
          "indexed": false,
          "internalType": "uint256",
          "name": "level",
          "type": "uint256"
        },
        {
          "indexed": false,
          "internalType": "uint256",
          "name": "experience",
          "type": "uint256"
        },
        {
          "indexed": false,
          "internalType": "uint256",
          "name": "experienceNext",
          "type": "uint256"
        },
        {
          "indexed": false,
          "internalType": "uint256[]",
          "name": "events",
          "type": "uint256[]"
        }
      ],
      "name": "clientAdded",
      "type": "event"
    },
    {
      "anonymous": false,
      "inputs": [
        {
          "indexed": false,
          "internalType": "address",
          "name": "sender",
          "type": "address"
        },
        {
          "indexed": false,
          "internalType": "uint256",
          "name": "eventCode",
          "type": "uint256"
        },
        {
          "indexed": false,
          "internalType": "uint256[]",
          "name": "events",
          "type": "uint256[]"
        }
      ],
      "name": "clientAddedEvent",
      "type": "event"
    },
    {
      "anonymous": false,
      "inputs": [
        {
          "indexed": false,
          "internalType": "int256[]",
          "name": "arr",
          "type": "int256[]"
        }
      ],
      "name": "sortedArray",
      "type": "event"
    },
    {
      "inputs": [
        {
          "internalType": "uint256",
          "name": "",
          "type": "uint256"
        }
      ],
      "name": "addresses",
      "outputs": [
        {
          "internalType": "address",
          "name": "",
          "type": "address"
        }
      ],
      "stateMutability": "view",
      "type": "function",
      "constant": true
    },
    {
      "inputs": [],
      "name": "clientCount",
      "outputs": [
        {
          "internalType": "uint256",
          "name": "",
          "type": "uint256"
        }
      ],
      "stateMutability": "view",
      "type": "function",
      "constant": true
    },
    {
      "inputs": [
        {
          "internalType": "address",
          "name": "",
          "type": "address"
        }
      ],
      "name": "clients",
      "outputs": [
        {
          "internalType": "uint256",
          "name": "level",
          "type": "uint256"
        },
        {
          "internalType": "uint256",
          "name": "experience",
          "type": "uint256"
        },
        {
          "internalType": "uint256",
          "name": "experienceNext",
          "type": "uint256"
        },
        {
          "internalType": "int256",
          "name": "trainingScore",
          "type": "int256"
        },
        {
          "internalType": "bool",
          "name": "isExist",
          "type": "bool"
        },
        {
          "internalType": "bool",
          "name": "isPunished",
          "type": "bool"
        },
        {
          "internalType": "string",
          "name": "publicKey",
          "type": "string"
        }
      ],
      "stateMutability": "view",
      "type": "function",
      "constant": true
    },
    {
      "inputs": [
        {
          "internalType": "uint256",
          "name": "",
          "type": "uint256"
        }
      ],
      "name": "punishList",
      "outputs": [
        {
          "internalType": "address",
          "name": "",
          "type": "address"
        }
      ],
      "stateMutability": "view",
      "type": "function",
      "constant": true
    },
    {
      "inputs": [
        {
          "internalType": "address",
          "name": "wallet",
          "type": "address"
        }
      ],
      "name": "addClient",
      "outputs": [],
      "stateMutability": "nonpayable",
      "type": "function"
    },
    {
      "inputs": [
        {
          "internalType": "address",
          "name": "wallet",
          "type": "address"
        },
        {
          "internalType": "string",
          "name": "key",
          "type": "string"
        }
      ],
      "name": "setPrivateKey",
      "outputs": [],
      "stateMutability": "nonpayable",
      "type": "function"
    },
    {
      "inputs": [
        {
          "internalType": "address",
          "name": "wallet",
          "type": "address"
        },
        {
          "internalType": "uint256",
          "name": "eventCode",
          "type": "uint256"
        }
      ],
      "name": "addClientEvent",
      "outputs": [],
      "stateMutability": "nonpayable",
      "type": "function"
    },
    {
      "inputs": [
        {
          "internalType": "address",
          "name": "wallet",
          "type": "address"
        }
      ],
      "name": "saveCreditEvent",
      "outputs": [],
      "stateMutability": "nonpayable",
      "type": "function"
    },
    {
      "inputs": [
        {
          "internalType": "address",
          "name": "wallet",
          "type": "address"
        }
      ],
      "name": "gainExperience",
      "outputs": [],
      "stateMutability": "nonpayable",
      "type": "function"
    },
    {
      "inputs": [
        {
          "internalType": "address",
          "name": "wallet",
          "type": "address"
        }
      ],
      "name": "calculateCreditScore",
      "outputs": [
        {
          "internalType": "int256",
          "name": "",
          "type": "int256"
        }
      ],
      "stateMutability": "view",
      "type": "function",
      "constant": true
    },
    {
      "inputs": [
        {
          "internalType": "int256",
          "name": "score",
          "type": "int256"
        },
        {
          "internalType": "address",
          "name": "wallet",
          "type": "address"
        }
      ],
      "name": "setScore",
      "outputs": [],
      "stateMutability": "nonpayable",
      "type": "function"
    },
    {
      "inputs": [
        {
          "internalType": "int256",
          "name": "score",
          "type": "int256"
        },
        {
          "internalType": "address",
          "name": "worker",
          "type": "address"
        },
        {
          "internalType": "address",
          "name": "reviewer",
          "type": "address"
        }
      ],
      "name": "setEvalScore",
      "outputs": [],
      "stateMutability": "nonpayable",
      "type": "function"
    },
    {
      "inputs": [
        {
          "internalType": "address",
          "name": "wallet",
          "type": "address"
        }
      ],
      "name": "calculateWorkerContribution",
      "outputs": [
        {
          "internalType": "int256",
          "name": "",
          "type": "int256"
        }
      ],
      "stateMutability": "nonpayable",
      "type": "function"
    },
    {
      "inputs": [
        {
          "internalType": "address",
          "name": "reviewer",
          "type": "address"
        }
      ],
      "name": "calculateReviewerContribution",
      "outputs": [
        {
          "internalType": "int256",
          "name": "",
          "type": "int256"
        }
      ],
      "stateMutability": "nonpayable",
      "type": "function"
    },
    {
      "inputs": [
        {
          "internalType": "address",
          "name": "wallet",
          "type": "address"
        },
        {
          "internalType": "uint256",
          "name": "index",
          "type": "uint256"
        }
      ],
      "name": "getCreditEvent",
      "outputs": [
        {
          "internalType": "int256",
          "name": "",
          "type": "int256"
        },
        {
          "internalType": "uint256",
          "name": "",
          "type": "uint256"
        }
      ],
      "stateMutability": "view",
      "type": "function",
      "constant": true
    },
    {
      "inputs": [],
      "name": "getAddresses",
      "outputs": [
        {
          "internalType": "address[]",
          "name": "",
          "type": "address[]"
        }
      ],
      "stateMutability": "view",
      "type": "function",
      "constant": true
    },
    {
      "inputs": [],
      "name": "getClientCount",
      "outputs": [
        {
          "internalType": "uint256",
          "name": "",
          "type": "uint256"
        }
      ],
      "stateMutability": "view",
      "type": "function",
      "constant": true
    },
    {
      "inputs": [
        {
          "internalType": "address",
          "name": "wallet",
          "type": "address"
        }
      ],
      "name": "getClient",
      "outputs": [
        {
          "internalType": "uint256",
          "name": "",
          "type": "uint256"
        },
        {
          "internalType": "uint256",
          "name": "",
          "type": "uint256"
        },
        {
          "internalType": "uint256",
          "name": "",
          "type": "uint256"
        },
        {
          "internalType": "uint256[]",
          "name": "",
          "type": "uint256[]"
        }
      ],
      "stateMutability": "view",
      "type": "function",
      "constant": true
    },
    {
      "inputs": [
        {
          "internalType": "int256[]",
          "name": "arr",
          "type": "int256[]"
        }
      ],
      "name": "getMedian",
      "outputs": [
        {
          "internalType": "int256",
          "name": "",
          "type": "int256"
        }
      ],
      "stateMutability": "pure",
      "type": "function",
      "constant": true
    },
    {
      "inputs": [
        {
          "internalType": "address",
          "name": "worker",
          "type": "address"
        },
        {
          "internalType": "address",
          "name": "reviewer",
          "type": "address"
        }
      ],
      "name": "getEvalScore",
      "outputs": [
        {
          "internalType": "int256",
          "name": "",
          "type": "int256"
        }
      ],
      "stateMutability": "view",
      "type": "function",
      "constant": true
    },
    {
      "inputs": [
        {
          "internalType": "uint256",
          "name": "begin",
          "type": "uint256"
        },
        {
          "internalType": "uint256",
          "name": "end",
          "type": "uint256"
        },
        {
          "internalType": "int256[]",
          "name": "text",
          "type": "int256[]"
        }
      ],
      "name": "getSlice",
      "outputs": [
        {
          "internalType": "int256[]",
          "name": "",
          "type": "int256[]"
        }
      ],
      "stateMutability": "pure",
      "type": "function",
      "constant": true
    },
    {
      "inputs": [
        {
          "internalType": "int256[]",
          "name": "arr",
          "type": "int256[]"
        }
      ],
      "name": "getQuarters",
      "outputs": [
        {
          "internalType": "int256",
          "name": "",
          "type": "int256"
        },
        {
          "internalType": "int256",
          "name": "",
          "type": "int256"
        },
        {
          "internalType": "int256",
          "name": "",
          "type": "int256"
        }
      ],
      "stateMutability": "pure",
      "type": "function",
      "constant": true
    },
    {
      "inputs": [
        {
          "internalType": "int256[]",
          "name": "arr",
          "type": "int256[]"
        }
      ],
      "name": "test",
      "outputs": [
        {
          "internalType": "int256",
          "name": "",
          "type": "int256"
        },
        {
          "internalType": "int256",
          "name": "",
          "type": "int256"
        },
        {
          "internalType": "int256",
          "name": "",
          "type": "int256"
        },
        {
          "internalType": "int256[]",
          "name": "",
          "type": "int256[]"
        },
        {
          "internalType": "int256[]",
          "name": "",
          "type": "int256[]"
        }
      ],
      "stateMutability": "view",
      "type": "function",
      "constant": true
    },
    {
      "inputs": [
        {
          "internalType": "int256[]",
          "name": "arr",
          "type": "int256[]"
        }
      ],
      "name": "sort",
      "outputs": [
        {
          "internalType": "int256[]",
          "name": "",
          "type": "int256[]"
        }
      ],
      "stateMutability": "pure",
      "type": "function",
      "constant": true
    },
    {
      "inputs": [
        {
          "internalType": "int256[]",
          "name": "arr",
          "type": "int256[]"
        }
      ],
      "name": "normalizeArray",
      "outputs": [
        {
          "internalType": "int256[]",
          "name": "",
          "type": "int256[]"
        }
      ],
      "stateMutability": "pure",
      "type": "function",
      "constant": true
    },
    {
      "inputs": [
        {
          "internalType": "int256[]",
          "name": "arr",
          "type": "int256[]"
        }
      ],
      "name": "reverseNormalizeArray",
      "outputs": [
        {
          "internalType": "int256[]",
          "name": "",
          "type": "int256[]"
        }
      ],
      "stateMutability": "pure",
      "type": "function",
      "constant": true
    },
    {
      "inputs": [
        {
          "internalType": "int256[][]",
          "name": "arr",
          "type": "int256[][]"
        }
      ],
      "name": "convert2dTo1d",
      "outputs": [
        {
          "internalType": "int256[]",
          "name": "",
          "type": "int256[]"
        }
      ],
      "stateMutability": "pure",
      "type": "function",
      "constant": true
    },
    {
      "inputs": [
        {
          "internalType": "int256[]",
          "name": "arr",
          "type": "int256[]"
        }
      ],
      "name": "min",
      "outputs": [
        {
          "internalType": "int256",
          "name": "",
          "type": "int256"
        }
      ],
      "stateMutability": "pure",
      "type": "function",
      "constant": true
    },
    {
      "inputs": [
        {
          "internalType": "int256[]",
          "name": "arr",
          "type": "int256[]"
        }
      ],
      "name": "max",
      "outputs": [
        {
          "internalType": "int256",
          "name": "",
          "type": "int256"
        }
      ],
      "stateMutability": "pure",
      "type": "function",
      "constant": true
    }
  ],
  "bytecode": "0x608060405234801561001057600080fd5b506134c8806100206000396000f3fe608060405234801561001057600080fd5b50600436106101cf5760003560e01c80639059abf211610104578063ccc13814116100a2578063e541c71e11610071578063e541c71e146105f8578063e77d01b414610616578063edf26d9b14610632578063f1c3753a14610662576101cf565b8063ccc138141461054c578063ce398c661461057c578063df84ec92146105ac578063e18ada0a146105dc576101cf565b8063ac09aa04116100de578063ac09aa04146104a0578063af6afce5146104d0578063becf301b14610500578063c40ddfcf1461051c576101cf565b80639059abf21461041b578063a0e328701461044f578063a39fac1214610482576101cf565b80635a81018a11610171578063640af44b1161014b578063640af44b1461038257806364a16cb21461039e5780637b9f63e3146103ce57806386711f88146103ff576101cf565b80635a81018a146102fe57806361eed2a91461031c578063632705b514610352576101cf565b8063428be3ac116101ad578063428be3ac1461026657806343928cfd146102965780634c1c54af146102b257806351c0395b146102e2576101cf565b80630e23c510146101d45780632c917aa814610204578063380df75a14610236575b600080fd5b6101ee60048036038101906101e991906124ae565b610692565b6040516101fb91906125b5565b60405180910390f35b61021e600480360381019061021991906125d7565b61078b565b60405161022d9392919061262f565b60405180910390f35b610250600480360381019061024b91906126c4565b610847565b60405161025d9190612704565b60405180910390f35b610280600480360381019061027b9190612755565b6108d0565b60405161028d9190612791565b60405180910390f35b6102b060048036038101906102ab91906127ac565b61090f565b005b6102cc60048036038101906102c791906125d7565b610a53565b6040516102d99190612704565b60405180910390f35b6102fc60048036038101906102f791906127d9565b610b00565b005b610306610b88565b604051610313919061283b565b60405180910390f35b610336600480360381019061033191906127ac565b610b95565b60405161034997969594939291906128f9565b60405180910390f35b61036c6004803603810190610367919061296f565b610c79565b60405161037991906125b5565b60405180910390f35b61039c600480360381019061039791906127ac565b610d58565b005b6103b860048036038101906103b391906125d7565b6110bc565b6040516103c591906125b5565b60405180910390f35b6103e860048036038101906103e391906129de565b6111e7565b6040516103f6929190612a1e565b60405180910390f35b61041960048036038101906104149190612a47565b611318565b005b610435600480360381019061043091906125d7565b611362565b604051610446959493929190612a87565b60405180910390f35b610469600480360381019061046491906127ac565b61142a565b6040516104799493929190612ba6565b60405180910390f35b61048a611599565b6040516104979190612cb0565b60405180910390f35b6104ba60048036038101906104b591906125d7565b611627565b6040516104c791906125b5565b60405180910390f35b6104ea60048036038101906104e591906125d7565b61163b565b6040516104f79190612704565b60405180910390f35b61051a60048036038101906105159190612d87565b6116c5565b005b610536600480360381019061053191906127ac565b61171f565b6040516105439190612704565b60405180910390f35b610566600480360381019061056191906125d7565b611767565b6040516105739190612704565b60405180910390f35b610596600480360381019061059191906127ac565b6117f1565b6040516105a39190612704565b60405180910390f35b6105c660048036038101906105c191906125d7565b611c2b565b6040516105d391906125b5565b60405180910390f35b6105f660048036038101906105f191906129de565b611cfe565b005b610600611dae565b60405161060d919061283b565b60405180910390f35b610630600480360381019061062b91906127ac565b611db4565b005b61064c60048036038101906106479190612755565b611e9d565b6040516106599190612791565b60405180910390f35b61067c600480360381019061067791906127ac565b611edc565b6040516106899190612704565b60405180910390f35b60606000600283516106a49190612e12565b67ffffffffffffffff8111156106bd576106bc612254565b5b6040519080825280602002602001820160405280156106eb5781602001602082028036833780820191505090505b50905060005b83518110156107815760005b845181101561076d5784828151811061071957610718612e6c565b5b6020026020010151818151811061073357610732612e6c565b5b602002602001015183838151811061074e5761074d612e6c565b5b602002602001018181525050808061076590612e9b565b9150506106fd565b50808061077990612e9b565b9150506106f1565b5080915050919050565b6000806000806000806060806107a089610a53565b935060006107bc60028b516107b59190612f12565b600161203a565b9050600060028b516107ce9190612f43565b036107e6576107df6000828c610c79565b9250610801565b6107fe60006001836107f89190612f74565b8c610c79565b92505b6108198160018c516108139190612f74565b8c610c79565b915061082483610a53565b955061082f82610a53565b93508585859850985098505050505050509193909250565b60008060008373ffffffffffffffffffffffffffffffffffffffff1673ffffffffffffffffffffffffffffffffffffffff16815260200190815260200160002060060160008473ffffffffffffffffffffffffffffffffffffffff1673ffffffffffffffffffffffffffffffffffffffff16815260200190815260200160002054905092915050565b600281815481106108e057600080fd5b906000526020600020016000915054906101000a900473ffffffffffffffffffffffffffffffffffffffff1681565b6000808273ffffffffffffffffffffffffffffffffffffffff1673ffffffffffffffffffffffffffffffffffffffff16815260200190815260200160002060070160009054906101000a900460ff16610a505760008060008373ffffffffffffffffffffffffffffffffffffffff1673ffffffffffffffffffffffffffffffffffffffff168152602001908152602001600020905060018160070160006101000a81548160ff0219169083151502179055506001816000018190555060008160010181905550600160056109e39190612e12565b81600201819055506001829080600181540180825580915050600190039060005260206000200160009091909190916101000a81548173ffffffffffffffffffffffffffffffffffffffff021916908373ffffffffffffffffffffffffffffffffffffffff160217905550505b50565b6000806000610a7060028551610a699190612f12565b600161203a565b9050600060028551610a829190612f43565b03610ad857836002600183600185610a9a9190612f74565b610aa49190612fa8565b610aae9190612fa8565b610ab89190612f12565b81518110610ac957610ac8612e6c565b5b60200260200101519150610af6565b838181518110610aeb57610aea612e6c565b5b602002602001015191505b8192505050919050565b826000808373ffffffffffffffffffffffffffffffffffffffff1673ffffffffffffffffffffffffffffffffffffffff16815260200190815260200160002060060160008473ffffffffffffffffffffffffffffffffffffffff1673ffffffffffffffffffffffffffffffffffffffff16815260200190815260200160002081905550505050565b6000600180549050905090565b60006020528060005260406000206000915090508060000154908060010154908060020154908060050154908060070160009054906101000a900460ff16908060070160019054906101000a900460ff1690806008018054610bf69061302d565b80601f0160208091040260200160405190810160405280929190818152602001828054610c229061302d565b8015610c6f5780601f10610c4457610100808354040283529160200191610c6f565b820191906000526020600020905b815481529060010190602001808311610c5257829003601f168201915b5050505050905087565b6060600060018585610c8b9190612f74565b610c959190612fa8565b67ffffffffffffffff811115610cae57610cad612254565b5b604051908082528060200260200182016040528015610cdc5781602001602082028036833780820191505090505b50905060005b8585610cee9190612f74565b8111610d4c57838682610d019190612fa8565b81518110610d1257610d11612e6c565b5b6020026020010151828281518110610d2d57610d2c612e6c565b5b6020026020010181815250508080610d4490612e9b565b915050610ce2565b50809150509392505050565b60008060008373ffffffffffffffffffffffffffffffffffffffff1673ffffffffffffffffffffffffffffffffffffffff168152602001908152602001600020600301805480602002602001604051908101604052809291908181526020018280548015610de557602002820191906000526020600020905b815481526020019060010190808311610dd1575b505050505090506000815190506000806000806000805b86811015610edb576001888281518110610e1957610e18612e6c565b5b602002602001015103610e35578580610e319061305e565b9650505b6002888281518110610e4a57610e49612e6c565b5b602002602001015103610e66578480610e629061305e565b9550505b6003888281518110610e7b57610e7a612e6c565b5b602002602001015103610e97578380610e939061305e565b9450505b6004888281518110610eac57610eab612e6c565b5b602002602001015103610ec8578280610ec49061305e565b9350505b8080610ed390612e9b565b915050610dfc565b507ffffffffffffffffffffffffffffffffffffffffffffffffffffffffffffffff682610f0891906130a6565b600384610f1591906130a6565b600386610f2291906130a6565b600188610f2f91906130a6565b610f3991906131bd565b610f4391906131bd565b610f4d91906131bd565b9050600060405180604001604052808381526020014281525090506000808a73ffffffffffffffffffffffffffffffffffffffff1673ffffffffffffffffffffffffffffffffffffffff1681526020019081526020016000206004018190806001815401808255809150506001900390600052602060002090600202016000909190919091506000820151816000015560208201518160010155505060056000808b73ffffffffffffffffffffffffffffffffffffffff1673ffffffffffffffffffffffffffffffffffffffff1681526020019081526020016000206004018054905011156110b1576000808a73ffffffffffffffffffffffffffffffffffffffff1673ffffffffffffffffffffffffffffffffffffffff16815260200190815260200160002060040180548061108757611086613251565b5b60019003818190600052602060002090600202016000808201600090556001820160009055505090555b505050505050505050565b60606000825167ffffffffffffffff8111156110db576110da612254565b5b6040519080825280602002602001820160405280156111095781602001602082028036833780820191505090505b5090506000600190506000600a9050600082826111269190613280565b905060005b86518110156111da57600061113f88611767565b9050600061114c8961163b565b9050600086828461115d9190613280565b86848d888151811061117257611171612e6c565b5b60200260200101516111849190613280565b61118e91906130a6565b6111989190613314565b6111a291906131bd565b9050808885815181106111b8576111b7612e6c565b5b60200260200101818152505050505080806111d290612e9b565b91505061112b565b5083945050505050919050565b6000806000808573ffffffffffffffffffffffffffffffffffffffff1673ffffffffffffffffffffffffffffffffffffffff16815260200190815260200160002060040180549050831015611309576000808573ffffffffffffffffffffffffffffffffffffffff1673ffffffffffffffffffffffffffffffffffffffff168152602001908152602001600020600401838154811061128957611288612e6c565b5b9060005260206000209060020201600001546000808673ffffffffffffffffffffffffffffffffffffffff1673ffffffffffffffffffffffffffffffffffffffff16815260200190815260200160002060040184815481106112ee576112ed612e6c565b5b90600052602060002090600202016001015491509150611311565b600080915091505b9250929050565b816000808373ffffffffffffffffffffffffffffffffffffffff1673ffffffffffffffffffffffffffffffffffffffff168152602001908152602001600020600501819055505050565b6000806000606080600080600060608061137b8b610a53565b9350600061139760028d516113909190612f12565b600161203a565b9050600060028d516113a99190612f43565b036113c1576113ba6000828e610c79565b92506113dc565b6113d960006001836113d39190612f74565b8e610c79565b92505b6113f48160018e516113ee9190612f74565b8e610c79565b91506113ff83610a53565b955061140a82610a53565b935085858585859a509a509a509a509a5050505050505091939590929450565b600080600060606000808673ffffffffffffffffffffffffffffffffffffffff1673ffffffffffffffffffffffffffffffffffffffff168152602001908152602001600020600001546000808773ffffffffffffffffffffffffffffffffffffffff1673ffffffffffffffffffffffffffffffffffffffff168152602001908152602001600020600101546000808873ffffffffffffffffffffffffffffffffffffffff1673ffffffffffffffffffffffffffffffffffffffff168152602001908152602001600020600201546000808973ffffffffffffffffffffffffffffffffffffffff1673ffffffffffffffffffffffffffffffffffffffff1681526020019081526020016000206003018080548060200260200160405190810160405280929190818152602001828054801561158357602002820191906000526020600020905b81548152602001906001019080831161156f575b5050505050905093509350935093509193509193565b6060600180548060200260200160405190810160405280929190818152602001828054801561161d57602002820191906000526020600020905b8160009054906101000a900473ffffffffffffffffffffffffffffffffffffffff1673ffffffffffffffffffffffffffffffffffffffff16815260200190600101908083116115d3575b5050505050905090565b606061163282612072565b50819050919050565b6000808260008151811061165257611651612e6c565b5b6020026020010151905060005b83518110156116bb5783818151811061167b5761167a612e6c565b5b60200260200101518213156116a85783818151811061169d5761169c612e6c565b5b602002602001015191505b80806116b390612e9b565b91505061165f565b5080915050919050565b806000808473ffffffffffffffffffffffffffffffffffffffff1673ffffffffffffffffffffffffffffffffffffffff168152602001908152602001600020600801908051906020019061171a929190612187565b505050565b60008060009050600080600083836117379190613280565b84836117439190613280565b61174d9190613314565b60016117599190613280565b905080945050505050919050565b6000808260008151811061177e5761177d612e6c565b5b6020026020010151905060005b83518110156117e7578381815181106117a7576117a6612e6c565b5b60200260200101518212156117d4578381815181106117c9576117c8612e6c565b5b602002602001015191505b80806117df90612e9b565b91505061178b565b5080915050919050565b60008060018054905067ffffffffffffffff81111561181357611812612254565b5b6040519080825280602002602001820160405280156118415781602001602082028036833780820191505090505b50905060005b6001805490508110156119b5578373ffffffffffffffffffffffffffffffffffffffff166001828154811061187f5761187e612e6c565b5b9060005260206000200160009054906101000a900473ffffffffffffffffffffffffffffffffffffffff1673ffffffffffffffffffffffffffffffffffffffff16146119a257600080600183815481106118dc576118db612e6c565b5b9060005260206000200160009054906101000a900473ffffffffffffffffffffffffffffffffffffffff1673ffffffffffffffffffffffffffffffffffffffff1673ffffffffffffffffffffffffffffffffffffffff16815260200190815260200160002060060160008573ffffffffffffffffffffffffffffffffffffffff1673ffffffffffffffffffffffffffffffffffffffff1681526020019081526020016000205482828151811061199557611994612e6c565b5b6020026020010181815250505b80806119ad90612e9b565b915050611847565b5060006119c182611627565b90506000600367ffffffffffffffff8111156119e0576119df612254565b5b604051908082528060200260200182016040528015611a0e5781602001602082028036833780820191505090505b509050611a1a8261078b565b83600081518110611a2e57611a2d612e6c565b5b6020026020010184600181518110611a4957611a48612e6c565b5b6020026020010185600281518110611a6457611a63612e6c565b5b60200260200101838152508381525083815250505050600081600081518110611a9057611a8f612e6c565b5b602002602001015182600281518110611aac57611aab612e6c565b5b6020026020010151611abe9190613280565b90508082600081518110611ad557611ad4612e6c565b5b6020026020010151611ae79190613280565b6000808873ffffffffffffffffffffffffffffffffffffffff1673ffffffffffffffffffffffffffffffffffffffff168152602001908152602001600020600501541280611b9b57508082600281518110611b4557611b44612e6c565b5b6020026020010151611b5791906131bd565b6000808873ffffffffffffffffffffffffffffffffffffffff1673ffffffffffffffffffffffffffffffffffffffff16815260200190815260200160002060050154135b15611c04576002869080600181540180825580915050600190039060005260206000200160009091909190916101000a81548173ffffffffffffffffffffffffffffffffffffffff021916908373ffffffffffffffffffffffffffffffffffffffff1602179055505b81600181518110611c1857611c17612e6c565b5b6020026020010151945050505050919050565b60606000611c38836110bc565b90506000835167ffffffffffffffff811115611c5757611c56612254565b5b604051908082528060200260200182016040528015611c855781602001602082028036833780820191505090505b50905060005b8251811015611cf3576000838281518110611ca957611ca8612e6c565b5b60200260200101516001611cbd9190613280565b905080838381518110611cd357611cd2612e6c565b5b602002602001018181525050508080611ceb90612e9b565b915050611c8b565b508092505050919050565b60008060008473ffffffffffffffffffffffffffffffffffffffff1673ffffffffffffffffffffffffffffffffffffffff1681526020019081526020016000209050806003018290806001815401808255809150506001900390600052602060002001600090919091909150557f4623bfdf7f94027680e54d901618685599c74155a2144332d16508726becf644838383600301604051611da193929190613454565b60405180910390a1505050565b60035481565b60008060008373ffffffffffffffffffffffffffffffffffffffff1673ffffffffffffffffffffffffffffffffffffffff168152602001908152602001600020905060016000808473ffffffffffffffffffffffffffffffffffffffff1673ffffffffffffffffffffffffffffffffffffffff16815260200190815260200160002060010154611e449190612fa8565b81600101819055508060020154816001015403611e9957806000016000815480929190611e7090612e9b565b919050555060018160000154611e869190612e12565b8160020181905550600081600101819055505b5050565b60018181548110611ead57600080fd5b906000526020600020016000915054906101000a900473ffffffffffffffffffffffffffffffffffffffff1681565b6000806000808473ffffffffffffffffffffffffffffffffffffffff1673ffffffffffffffffffffffffffffffffffffffff16815260200190815260200160002090506000805b826004018054905081101561202f576201518042611f419190612f74565b836004018281548110611f5757611f56612e6c565b5b906000526020600020906002020160010154111561201c576000620151806064856004018481548110611f8d57611f8c612e6c565b5b90600052602060002090600202016001015442611faa9190613280565b62015180611fb89190613280565b611fc291906130a6565b611fcc9190613314565b9050606481856004018481548110611fe757611fe6612e6c565b5b90600052602060002090600202016000015461200391906130a6565b61200d9190613314565b8361201891906131bd565b9250505b808061202790612e9b565b915050611f23565b508092505050919050565b600081826001848661204c9190612fa8565b6120569190612f74565b6120609190612f12565b61206a9190612e12565b905092915050565b606060008251905060005b8181101561217d5760006001826120949190612fa8565b90505b82811015612169578481815181106120b2576120b1612e6c565b5b60200260200101518583815181106120cd576120cc612e6c565b5b602002602001015113156121565760008583815181106120f0576120ef612e6c565b5b6020026020010151905085828151811061210d5761210c612e6c565b5b602002602001015186848151811061212857612127612e6c565b5b6020026020010181815250508086838151811061214857612147612e6c565b5b602002602001018181525050505b808061216190612e9b565b915050612097565b50808061217590612e9b565b91505061207d565b5082915050919050565b8280546121939061302d565b90600052602060002090601f0160209004810192826121b557600085556121fc565b82601f106121ce57805160ff19168380011785556121fc565b828001600101855582156121fc579182015b828111156121fb5782518255916020019190600101906121e0565b5b509050612209919061220d565b5090565b5b8082111561222657600081600090555060010161220e565b5090565b6000604051905090565b600080fd5b600080fd5b600080fd5b6000601f19601f8301169050919050565b7f4e487b7100000000000000000000000000000000000000000000000000000000600052604160045260246000fd5b61228c82612243565b810181811067ffffffffffffffff821117156122ab576122aa612254565b5b80604052505050565b60006122be61222a565b90506122ca8282612283565b919050565b600067ffffffffffffffff8211156122ea576122e9612254565b5b602082029050602081019050919050565b600080fd5b600067ffffffffffffffff82111561231b5761231a612254565b5b602082029050602081019050919050565b6000819050919050565b61233f8161232c565b811461234a57600080fd5b50565b60008135905061235c81612336565b92915050565b600061237561237084612300565b6122b4565b90508083825260208201905060208402830185811115612398576123976122fb565b5b835b818110156123c157806123ad888261234d565b84526020840193505060208101905061239a565b5050509392505050565b600082601f8301126123e0576123df61223e565b5b81356123f0848260208601612362565b91505092915050565b600061240c612407846122cf565b6122b4565b9050808382526020820190506020840283018581111561242f5761242e6122fb565b5b835b8181101561247657803567ffffffffffffffff8111156124545761245361223e565b5b80860161246189826123cb565b85526020850194505050602081019050612431565b5050509392505050565b600082601f8301126124955761249461223e565b5b81356124a58482602086016123f9565b91505092915050565b6000602082840312156124c4576124c3612234565b5b600082013567ffffffffffffffff8111156124e2576124e1612239565b5b6124ee84828501612480565b91505092915050565b600081519050919050565b600082825260208201905092915050565b6000819050602082019050919050565b61252c8161232c565b82525050565b600061253e8383612523565b60208301905092915050565b6000602082019050919050565b6000612562826124f7565b61256c8185612502565b935061257783612513565b8060005b838110156125a857815161258f8882612532565b975061259a8361254a565b92505060018101905061257b565b5085935050505092915050565b600060208201905081810360008301526125cf8184612557565b905092915050565b6000602082840312156125ed576125ec612234565b5b600082013567ffffffffffffffff81111561260b5761260a612239565b5b612617848285016123cb565b91505092915050565b6126298161232c565b82525050565b60006060820190506126446000830186612620565b6126516020830185612620565b61265e6040830184612620565b949350505050565b600073ffffffffffffffffffffffffffffffffffffffff82169050919050565b600061269182612666565b9050919050565b6126a181612686565b81146126ac57600080fd5b50565b6000813590506126be81612698565b92915050565b600080604083850312156126db576126da612234565b5b60006126e9858286016126af565b92505060206126fa858286016126af565b9150509250929050565b60006020820190506127196000830184612620565b92915050565b6000819050919050565b6127328161271f565b811461273d57600080fd5b50565b60008135905061274f81612729565b92915050565b60006020828403121561276b5761276a612234565b5b600061277984828501612740565b91505092915050565b61278b81612686565b82525050565b60006020820190506127a66000830184612782565b92915050565b6000602082840312156127c2576127c1612234565b5b60006127d0848285016126af565b91505092915050565b6000806000606084860312156127f2576127f1612234565b5b60006128008682870161234d565b9350506020612811868287016126af565b9250506040612822868287016126af565b9150509250925092565b6128358161271f565b82525050565b6000602082019050612850600083018461282c565b92915050565b60008115159050919050565b61286b81612856565b82525050565b600081519050919050565b600082825260208201905092915050565b60005b838110156128ab578082015181840152602081019050612890565b838111156128ba576000848401525b50505050565b60006128cb82612871565b6128d5818561287c565b93506128e581856020860161288d565b6128ee81612243565b840191505092915050565b600060e08201905061290e600083018a61282c565b61291b602083018961282c565b612928604083018861282c565b6129356060830187612620565b6129426080830186612862565b61294f60a0830185612862565b81810360c083015261296181846128c0565b905098975050505050505050565b60008060006060848603121561298857612987612234565b5b600061299686828701612740565b93505060206129a786828701612740565b925050604084013567ffffffffffffffff8111156129c8576129c7612239565b5b6129d4868287016123cb565b9150509250925092565b600080604083850312156129f5576129f4612234565b5b6000612a03858286016126af565b9250506020612a1485828601612740565b9150509250929050565b6000604082019050612a336000830185612620565b612a40602083018461282c565b9392505050565b60008060408385031215612a5e57612a5d612234565b5b6000612a6c8582860161234d565b9250506020612a7d858286016126af565b9150509250929050565b600060a082019050612a9c6000830188612620565b612aa96020830187612620565b612ab66040830186612620565b8181036060830152612ac88185612557565b90508181036080830152612adc8184612557565b90509695505050505050565b600081519050919050565b600082825260208201905092915050565b6000819050602082019050919050565b612b1d8161271f565b82525050565b6000612b2f8383612b14565b60208301905092915050565b6000602082019050919050565b6000612b5382612ae8565b612b5d8185612af3565b9350612b6883612b04565b8060005b83811015612b99578151612b808882612b23565b9750612b8b83612b3b565b925050600181019050612b6c565b5085935050505092915050565b6000608082019050612bbb600083018761282c565b612bc8602083018661282c565b612bd5604083018561282c565b8181036060830152612be78184612b48565b905095945050505050565b600081519050919050565b600082825260208201905092915050565b6000819050602082019050919050565b612c2781612686565b82525050565b6000612c398383612c1e565b60208301905092915050565b6000602082019050919050565b6000612c5d82612bf2565b612c678185612bfd565b9350612c7283612c0e565b8060005b83811015612ca3578151612c8a8882612c2d565b9750612c9583612c45565b925050600181019050612c76565b5085935050505092915050565b60006020820190508181036000830152612cca8184612c52565b905092915050565b600080fd5b600067ffffffffffffffff821115612cf257612cf1612254565b5b612cfb82612243565b9050602081019050919050565b82818337600083830152505050565b6000612d2a612d2584612cd7565b6122b4565b905082815260208101848484011115612d4657612d45612cd2565b5b612d51848285612d08565b509392505050565b600082601f830112612d6e57612d6d61223e565b5b8135612d7e848260208601612d17565b91505092915050565b60008060408385031215612d9e57612d9d612234565b5b6000612dac858286016126af565b925050602083013567ffffffffffffffff811115612dcd57612dcc612239565b5b612dd985828601612d59565b9150509250929050565b7f4e487b7100000000000000000000000000000000000000000000000000000000600052601160045260246000fd5b6000612e1d8261271f565b9150612e288361271f565b9250817fffffffffffffffffffffffffffffffffffffffffffffffffffffffffffffffff0483118215151615612e6157612e60612de3565b5b828202905092915050565b7f4e487b7100000000000000000000000000000000000000000000000000000000600052603260045260246000fd5b6000612ea68261271f565b91507fffffffffffffffffffffffffffffffffffffffffffffffffffffffffffffffff8203612ed857612ed7612de3565b5b600182019050919050565b7f4e487b7100000000000000000000000000000000000000000000000000000000600052601260045260246000fd5b6000612f1d8261271f565b9150612f288361271f565b925082612f3857612f37612ee3565b5b828204905092915050565b6000612f4e8261271f565b9150612f598361271f565b925082612f6957612f68612ee3565b5b828206905092915050565b6000612f7f8261271f565b9150612f8a8361271f565b925082821015612f9d57612f9c612de3565b5b828203905092915050565b6000612fb38261271f565b9150612fbe8361271f565b9250827fffffffffffffffffffffffffffffffffffffffffffffffffffffffffffffffff03821115612ff357612ff2612de3565b5b828201905092915050565b7f4e487b7100000000000000000000000000000000000000000000000000000000600052602260045260246000fd5b6000600282049050600182168061304557607f821691505b60208210810361305857613057612ffe565b5b50919050565b60006130698261232c565b91507f7fffffffffffffffffffffffffffffffffffffffffffffffffffffffffffffff820361309b5761309a612de3565b5b600182019050919050565b60006130b18261232c565b91506130bc8361232c565b9250827f7fffffffffffffffffffffffffffffffffffffffffffffffffffffffffffffff04821160008413600084131616156130fb576130fa612de3565b5b817f8000000000000000000000000000000000000000000000000000000000000000058312600084126000841316161561313857613137612de3565b5b827f8000000000000000000000000000000000000000000000000000000000000000058212600084136000841216161561317557613174612de3565b5b827f7fffffffffffffffffffffffffffffffffffffffffffffffffffffffffffffff05821260008412600084121616156131b2576131b1612de3565b5b828202905092915050565b60006131c88261232c565b91506131d38361232c565b9250817f7fffffffffffffffffffffffffffffffffffffffffffffffffffffffffffffff0383136000831215161561320e5761320d612de3565b5b817f800000000000000000000000000000000000000000000000000000000000000003831260008312161561324657613245612de3565b5b828201905092915050565b7f4e487b7100000000000000000000000000000000000000000000000000000000600052603160045260246000fd5b600061328b8261232c565b91506132968361232c565b9250827f8000000000000000000000000000000000000000000000000000000000000000018212600084121516156132d1576132d0612de3565b5b827f7fffffffffffffffffffffffffffffffffffffffffffffffffffffffffffffff01821360008412161561330957613308612de3565b5b828203905092915050565b600061331f8261232c565b915061332a8361232c565b92508261333a57613339612ee3565b5b600160000383147f80000000000000000000000000000000000000000000000000000000000000008314161561337357613372612de3565b5b828205905092915050565b600081549050919050565b60008190508160005260206000209050919050565b60008160001c9050919050565b6000819050919050565b60006133c86133c38361339e565b6133ab565b9050919050565b60006133db82546133b5565b9050919050565b6000600182019050919050565b60006133fa8261337e565b6134048185612af3565b935061340f83613389565b8060005b8381101561344757613424826133cf565b61342e8882612b23565b9750613439836133e2565b925050600181019050613413565b5085935050505092915050565b60006060820190506134696000830186612782565b613476602083018561282c565b818103604083015261348881846133ef565b905094935050505056fea2646970667358221220b2ae870618d623ea70c98d2ad85b4a7e6c914a7f0c10426b85ed4aabc29d288264736f6c634300080d0033",
  "immutableReferences": {},
  "source": "// SPDX-License-Identifier: MIT\r\npragma solidity >=0.8;\r\n\r\n// import \"hardhat/console.sol\";\r\ncontract Admin {\r\n    // Client model\r\n    uint constant JOIN_EVENT = 1;\r\n    uint constant TRAIN_EVENT = 2;\r\n    uint constant EVAL_EVENT = 3;\r\n    uint constant PUNISH_EVENT = 4;\r\n    int constant JOIN_VALUE = 1;\r\n    int constant TRAIN_VALUE = 3;\r\n    int constant EVAL_VALUE = 3;\r\n    int constant PUNISH_VALUE = -10;\r\n    uint constant STARTING_LEVEL = 1;\r\n    uint constant STARTING_EXPERIENCE = 0;\r\n    uint constant EXPIRE_TIME = 86400;\r\n    uint constant EXP_MULTIPLIER = 5;\r\n    uint constant MAX_EVENTS = 5;\r\n\r\n    struct Client {\r\n        //training score for worker\r\n        //training score for reviewer\r\n        uint level;\r\n        uint experience;\r\n        uint experienceNext;\r\n        uint[] events;\r\n        CumulativeScore[] scores;\r\n        int trainingScore; \r\n        mapping(address => int)  evalScores; //eval score of other workers\r\n        bool isExist;\r\n        bool isPunished;\r\n        string publicKey;\r\n    }\r\n\r\n    struct CumulativeScore {\r\n        int score;\r\n        uint time;\r\n    }\r\n    //clients\r\n    mapping(address => Client) public clients;\r\n    //clientList\r\n    address[] public addresses; \r\n    //score\r\n    address[] public punishList;\r\n    // mapping(address => CumulativeScore) public scores;\r\n    event clientAdded(address sender, address wallet, uint256 level, uint256 experience, uint256 experienceNext, uint[] events);\r\n    event clientAddedEvent(address sender, uint eventCode, uint[] events);\r\n    event sortedArray(int[] arr);\r\n    // Store client Count\r\n    uint public clientCount;\r\n    function addClient (address wallet) public {\r\n        if (!clients[wallet].isExist) {\r\n            Client storage client  = clients[wallet];\r\n            client.isExist = true;\r\n            client.level = STARTING_LEVEL;\r\n            client.experience = STARTING_EXPERIENCE;\r\n            client.experienceNext = EXP_MULTIPLIER * STARTING_LEVEL;\r\n            addresses.push(wallet);\r\n            // emit clientAdded(msg.sender, wallet, client.level, client.experience, client.experienceNext, client.events);\r\n        }\r\n    }\r\n    function setPrivateKey(address wallet, string memory key) public {\r\n        clients[wallet].publicKey = key;\r\n    }\r\n    function addClientEvent (address wallet, uint eventCode) public {\r\n        Client storage client  = clients[wallet];\r\n        client.events.push(eventCode);\r\n        emit clientAddedEvent(wallet, eventCode, client.events);\r\n    }\r\n    function saveCreditEvent (address wallet) public {\r\n        // require a valid client\r\n        uint[] memory creditEventScores = clients[wallet].events;\r\n        uint length = creditEventScores.length;\r\n        int countJoin = 0; \r\n        int countTrain = 0;\r\n        int countEval = 0;\r\n        int countPunish = 0;\r\n        int total = 0;\r\n        for(uint i=0;i<length;i++){\r\n            if (creditEventScores[i] == JOIN_EVENT) {\r\n                countJoin++;\r\n            }\r\n            if (creditEventScores[i] == TRAIN_EVENT) {\r\n                countTrain++;\r\n            }\r\n            if (creditEventScores[i] == EVAL_EVENT) {\r\n                countEval++;\r\n            }\r\n            if (creditEventScores[i] == PUNISH_EVENT) {\r\n                countPunish++;\r\n            }\r\n        }\r\n        total = countJoin * JOIN_VALUE + countTrain * TRAIN_VALUE + countEval * EVAL_VALUE + countPunish * PUNISH_VALUE;\r\n        CumulativeScore memory cScore =  CumulativeScore(total,block.timestamp);\r\n        clients[wallet].scores.push(cScore);\r\n        if (clients[wallet].scores.length > MAX_EVENTS) {\r\n            clients[wallet].scores.pop();\r\n        }\r\n    }\r\n    function gainExperience (address wallet) public {\r\n        //increment experience\r\n        Client storage client  = clients[wallet];\r\n        client.experience = clients[wallet].experience + 1;\r\n        //check if enough exp to lv up, client gains level\r\n        if (client.experience == client.experienceNext) {\r\n            client.level++;\r\n            client.experienceNext = client.level * STARTING_LEVEL;\r\n            client.experience = 0;\r\n        }\r\n    }\r\n    function calculateCreditScore (address wallet) public view returns (int) {\r\n        Client storage client  = clients[wallet];\r\n        int creditScore = 0;\r\n        for (uint256 index = 0; index < client.scores.length; index++) {\r\n            if (client.scores[index].time > (block.timestamp - EXPIRE_TIME)){\r\n                 int freshNess = (int(EXPIRE_TIME) - (int(block.timestamp) - int(client.scores[index].time)))*100 / int(EXPIRE_TIME) ;\r\n                \r\n                creditScore += client.scores[index].score * freshNess / 100;\r\n            }\r\n        }\r\n        return creditScore;\r\n    }\r\n    function setScore(int score, address wallet) public {\r\n        clients[wallet].trainingScore = score;\r\n    }\r\n    function setEvalScore(int score, address worker, address reviewer) public {\r\n        clients[reviewer].evalScores[worker] = score;\r\n    }\r\n    function calculateWorkerContribution(address wallet) public returns (int) {\r\n        int[] memory scores = new int[](addresses.length);\r\n        for (uint256 index = 0; index < addresses.length; index++) {\r\n            if (addresses[index] != wallet) {\r\n                scores[index] = (clients[addresses[index]].evalScores[wallet]);\r\n            }\r\n        }\r\n        int[] memory sortedScores = sort(scores);\r\n        int[] memory quarters = new int[](3);\r\n        (quarters[0], quarters[1], quarters[2]) = getQuarters(sortedScores);\r\n        int interQtr = quarters[2] - quarters[0];\r\n        if (clients[wallet].trainingScore < quarters[0] - interQtr || clients[wallet].trainingScore > quarters[2] + interQtr ) {\r\n            //punish\r\n            punishList.push(wallet);\r\n        }\r\n        return quarters[1];\r\n    }\r\n    function calculateReviewerContribution(address reviewer) public returns (int) {\r\n        int minDifference = 0;\r\n        int maxDifference = 0;\r\n        int difference = 0;\r\n        int normalDifference = 0;\r\n        // for (uint256 i = 0; i < addresses.length; i++) {\r\n            // if (addresses[i] != reviewer) {\r\n                // int total = 0;\r\n                // int[] memory _scores = new int[](addresses.length);\r\n                // for (uint256 j = 0; j < addresses.length; j++) {\r\n                //     if (addresses[j] != addresses[i]) {\r\n                //         _scores[j] = (clients[addresses[j]].evalScores[addresses[i]]);\r\n                //         total += clients[addresses[j]].evalScores[addresses[i]];\r\n                //     }\r\n                // }\r\n                // int[] memory sortedScores = sort(_scores);\r\n                // int[] memory quarters = new int[](3);\r\n                // (quarters[0], quarters[1], quarters[2]) = getQuarters(sortedScores);\r\n                \r\n                // int interQtr = quarters[2] - quarters[0];\r\n                // int reviewerScoreOnThisClient =  clients[reviewer].evalScores[addresses[i]];\r\n                // if (reviewerScoreOnThisClient < (quarters[0] - interQtr)) {\r\n                //     difference = abs((quarters[0] - interQtr) - quarters[1]);\r\n                //     punishList.push(reviewer);\r\n                // } else if (reviewerScoreOnThisClient > (quarters[1] + interQtr)) {\r\n                //     difference = abs((quarters[2] + interQtr) - quarters[1]);\r\n                //     punishList.push(reviewer);\r\n                // } else {\r\n                //     difference = abs(total - quarters[1]);\r\n                //     punishList.push(reviewer);\r\n                // }\r\n                // if (maxDifference < difference) {\r\n                //     maxDifference = difference;\r\n                // }\r\n                // if (minDifference > difference) {\r\n                //     minDifference = difference;\r\n                // }\r\n            // }\r\n        // }\r\n        normalDifference = 1 - ((difference - minDifference)/(maxDifference - minDifference));\r\n        return normalDifference;\r\n    }\r\n    function getCreditEvent (address wallet, uint index) public view returns (int, uint) {\r\n        if (index < clients[wallet].scores.length)\r\n            return (clients[wallet].scores[index].score, clients[wallet].scores[index].time);\r\n        return (0,0);\r\n    }\r\n    function getAddresses () public view returns (address[] memory) {\r\n        return addresses;\r\n    }\r\n    function getClientCount () public view returns (uint) {\r\n        return addresses.length;\r\n    }\r\n    function getClient (address wallet) public view returns (uint256, uint256, uint256, uint[] memory) {\r\n        return (clients[wallet].level, clients[wallet].experience, clients[wallet].experienceNext, clients[wallet].events);\r\n    }\r\n    function getMedian(int[] memory arr) public pure returns (int) { // arr is already sorted\r\n        int median;\r\n        uint mid = ceil(arr.length / 2,1);\r\n\r\n        if (arr.length % 2 == 0) {\r\n            median = arr[(mid - 1 + mid + 1) / 2];\r\n        } else {\r\n            median = arr[mid];\r\n        }\r\n\r\n        return median;\r\n    }\r\n    function getEvalScore (address worker,address reviewer) public view returns (int) {\r\n        return clients[reviewer].evalScores[worker];\r\n    }\r\n    function getSlice(uint256 begin, uint256 end, int[] memory text) public pure returns (int[] memory) {\r\n        int[] memory a = new int[](end-begin+1);\r\n        for(uint i=0;i<=end-begin;i++){\r\n            a[i] = text[i+begin];\r\n        }\r\n        return a;    \r\n    }\r\n    function getQuarters(int[] memory arr) public pure returns (int,int,int) {\r\n        int q1; \r\n        int q2;\r\n        int q3; \r\n        int[] memory firstHalf;\r\n        int[] memory secondHalf;\r\n        //console.log(arr);\r\n\r\n        q2 = getMedian(arr);\r\n\r\n        uint mid = ceil(arr.length /2, 1);\r\n        if (arr.length % 2 == 0) {\r\n            firstHalf = getSlice(0, mid,arr);\r\n            //console.log(firstHalf);\r\n\r\n        } else {\r\n            firstHalf = getSlice(0, mid - 1,arr);\r\n            //console.log(firstHalf);\r\n        }\r\n\r\n        secondHalf = getSlice(mid, arr.length-1, arr);\r\n        //console.log(secondHalf);\r\n\r\n        q1 = getMedian(firstHalf);\r\n        q3 = getMedian(secondHalf);\r\n\r\n        return (q1, q2, q3);\r\n    }\r\n    function test(int[] memory arr) public view returns (int,int,int, int[] memory, int[] memory){\r\n        int q1; \r\n        int q2;\r\n        int q3; \r\n        //console.log(arr);\r\n\r\n        int[] memory firstHalf;\r\n        int[] memory secondHalf;\r\n        //console.log(arr);\r\n\r\n        q2 = getMedian(arr);\r\n\r\n        uint mid = ceil(arr.length /2, 1);\r\n        if (arr.length % 2 == 0) {\r\n            firstHalf = getSlice(0, mid,arr);\r\n            //console.log(firstHalf);\r\n\r\n        } else {\r\n            firstHalf = getSlice(0, mid - 1,arr);\r\n            //console.log(firstHalf);\r\n        }\r\n\r\n        secondHalf = getSlice(mid, arr.length-1, arr);\r\n        //console.log(secondHalf);\r\n        //console.log(secondHalf);\r\n\r\n        q1 = getMedian(firstHalf);\r\n        q3 = getMedian(secondHalf);\r\n        \r\n\r\n        return (q1,q2,q3,firstHalf,secondHalf);\r\n    }\r\n    function ceil(uint a, uint m) private pure returns (uint ) {\r\n        return ((a + m - 1) / m) * m;\r\n    }\r\n    function abs(int x) private pure returns (int) {\r\n        return x >= 0 ? x : -x;\r\n    }\r\n    function sort(int[] memory arr) public pure returns (int[] memory) {\r\n        // quickSort(arr, uint(0), uint(data.length - 1));\r\n        sort_array(arr);\r\n        return arr;\r\n    }\r\n    function quickSort(int[] memory arr, uint left, uint right) private pure {\r\n        uint i = left;\r\n        uint j = right;\r\n        if (i == j) return;\r\n        int pivot = arr[uint(left + (right - left) / 2)];\r\n        while (i <= j) {\r\n            while (arr[uint(i)] < pivot) i++;\r\n            while (pivot < arr[uint(j)]) j--;\r\n            if (i <= j) {\r\n                (arr[uint(i)], arr[uint(j)]) = (arr[uint(j)], arr[uint(i)]);\r\n                i++;\r\n                j--;\r\n            }\r\n        }\r\n        if (left < j)\r\n            quickSort(arr, left, j);\r\n        if (i < right)\r\n            quickSort(arr, i, right);\r\n    }\r\n    function sort_array(int[] memory arr) private pure returns (int[] memory) {\r\n        uint256 l = arr.length;\r\n        for(uint i = 0; i < l; i++) {\r\n            for(uint j = i+1; j < l ;j++) {\r\n                if(arr[i] > arr[j]) {\r\n                    int temp = arr[i];\r\n                    arr[i] = arr[j];\r\n                    arr[j] = temp;\r\n                }\r\n            }\r\n        }\r\n        return arr;\r\n    }\r\n    function normalizeArray(int[] memory arr) public pure returns (int[] memory) {\r\n        int[] memory normalized_array = new int[](arr.length);\r\n        int start = 1;\r\n        int end = 10;\r\n        int width = end - start;\r\n        for (uint256 i = 0; i < arr.length; i++) {\r\n            int _max = max(arr);\r\n            int _min = min(arr);\r\n            int normalized = (((arr[i] - _min) *  width )/ (_max - _min)) + start;\r\n            normalized_array[i] = normalized;\r\n        }\r\n\r\n        return normalized_array;\r\n    }\r\n    function reverseNormalizeArray(int[] memory arr) public pure returns (int[] memory){\r\n        int[] memory normalized = normalizeArray(arr);\r\n        int[] memory reversed_array = new int[](arr.length);\r\n        for (uint256 i = 0; i < normalized.length; i++) {\r\n            int reversed = 1 - normalized[i];\r\n            reversed_array[i] = reversed;\r\n        }\r\n\r\n        return reversed_array;\r\n    }\r\n    function convert2dTo1d(int[][] memory arr) public pure returns (int[] memory) {\r\n        int[] memory newArray = new int[](arr.length *2);\r\n        for (uint256 i = 0; i < arr.length; i++) {\r\n            for(uint256 j = 0; j < arr.length; j++) {\r\n                newArray[i] = arr[i][j]; \r\n            }\r\n        }\r\n\r\n        return newArray;\r\n    }\r\n    // function convert2dTo1d(int[] memory arr) public pure returns (int[][] memory) {\r\n        \r\n    //     int[] memory newArray = new int[](arr.length/2);\r\n    //     int number_of_element_per_row = addresses.length;\r\n    //     while(arr.length) newArray.push(arr.splice(0, number_of_element_per_row));\r\n            \r\n    //     return newArray;\r\n    // }\r\n    function min(int[] memory arr) public pure returns (int) {\r\n        int val = arr[0];\r\n        for (uint256 index = 0; index < arr.length; index++) {\r\n            if (val > arr[index]) {\r\n                val = arr[index];\r\n            }\r\n        }\r\n        return val;\r\n    } \r\n    function max(int[] memory arr) public pure returns (int) {\r\n        int val = arr[0];\r\n        for (uint256 index = 0; index < arr.length; index++) {\r\n            if (val < arr[index]) {\r\n                val = arr[index];\r\n            }\r\n        }\r\n        return val;\r\n    }\r\n    \r\n}\r\n",
  "sourcePath": "/apps/election/contracts/Admin.sol",
  "compiler": {
    "name": "solc",
    "version": "0.8.13+commit.abaa5c0e.Emscripten.clang"
  },
  "schemaVersion": "3.4.4",
  "updatedAt": "2022-03-22T06:23:01.684Z",
  "networkType": "ethereum",
  "devdoc": {
    "kind": "dev",
    "methods": {},
    "version": 1
  },
  "userdoc": {
    "kind": "user",
    "methods": {},
    "version": 1
  }
}