{
  "contractName": "Admin",
  "abi": [
    {
      "inputs": [],
      "stateMutability": "nonpayable",
      "type": "constructor"
    },
    {
      "anonymous": false,
      "inputs": [
        {
          "indexed": false,
          "internalType": "address",
          "name": "sender",
          "type": "address"
        },
        {
          "indexed": false,
          "internalType": "uint256",
          "name": "value",
          "type": "uint256"
        }
      ],
      "name": "Deposited",
      "type": "event"
    },
    {
      "anonymous": false,
      "inputs": [
        {
          "indexed": false,
          "internalType": "address",
          "name": "sender",
          "type": "address"
        },
        {
          "indexed": false,
          "internalType": "uint256",
          "name": "balance",
          "type": "uint256"
        }
      ],
      "name": "Withdrawn",
      "type": "event"
    },
    {
      "anonymous": false,
      "inputs": [
        {
          "indexed": false,
          "internalType": "address",
          "name": "sender",
          "type": "address"
        },
        {
          "indexed": false,
          "internalType": "address",
          "name": "wallet",
          "type": "address"
        },
        {
          "indexed": false,
          "internalType": "uint256",
          "name": "level",
          "type": "uint256"
        },
        {
          "indexed": false,
          "internalType": "uint256",
          "name": "experience",
          "type": "uint256"
        },
        {
          "indexed": false,
          "internalType": "uint256",
          "name": "experienceNext",
          "type": "uint256"
        },
        {
          "indexed": false,
          "internalType": "uint256[]",
          "name": "events",
          "type": "uint256[]"
        }
      ],
      "name": "clientAdded",
      "type": "event"
    },
    {
      "anonymous": false,
      "inputs": [
        {
          "indexed": false,
          "internalType": "address",
          "name": "sender",
          "type": "address"
        },
        {
          "indexed": false,
          "internalType": "uint256",
          "name": "eventCode",
          "type": "uint256"
        },
        {
          "indexed": false,
          "internalType": "uint256[]",
          "name": "events",
          "type": "uint256[]"
        }
      ],
      "name": "clientAddedEvent",
      "type": "event"
    },
    {
      "anonymous": false,
      "inputs": [
        {
          "indexed": false,
          "internalType": "int256[]",
          "name": "differences",
          "type": "int256[]"
        }
      ],
      "name": "getReviewerContribution",
      "type": "event"
    },
    {
      "anonymous": false,
      "inputs": [
        {
          "indexed": false,
          "internalType": "address",
          "name": "client",
          "type": "address"
        }
      ],
      "name": "maliciousClient",
      "type": "event"
    },
    {
      "anonymous": false,
      "inputs": [
        {
          "indexed": false,
          "internalType": "int256[]",
          "name": "arr",
          "type": "int256[]"
        }
      ],
      "name": "sortedArray",
      "type": "event"
    },
    {
      "inputs": [
        {
          "internalType": "uint256",
          "name": "",
          "type": "uint256"
        }
      ],
      "name": "addresses",
      "outputs": [
        {
          "internalType": "address",
          "name": "",
          "type": "address"
        }
      ],
      "stateMutability": "view",
      "type": "function",
      "constant": true
    },
    {
      "inputs": [],
      "name": "clientCount",
      "outputs": [
        {
          "internalType": "uint256",
          "name": "",
          "type": "uint256"
        }
      ],
      "stateMutability": "view",
      "type": "function",
      "constant": true
    },
    {
      "inputs": [
        {
          "internalType": "address",
          "name": "",
          "type": "address"
        }
      ],
      "name": "clients",
      "outputs": [
        {
          "internalType": "uint256",
          "name": "level",
          "type": "uint256"
        },
        {
          "internalType": "uint256",
          "name": "experience",
          "type": "uint256"
        },
        {
          "internalType": "uint256",
          "name": "experienceNext",
          "type": "uint256"
        },
        {
          "internalType": "int256",
          "name": "trainingScore",
          "type": "int256"
        },
        {
          "internalType": "bool",
          "name": "isExist",
          "type": "bool"
        },
        {
          "internalType": "bool",
          "name": "isPunished",
          "type": "bool"
        },
        {
          "internalType": "string",
          "name": "publicKey",
          "type": "string"
        }
      ],
      "stateMutability": "view",
      "type": "function",
      "constant": true
    },
    {
      "inputs": [],
      "name": "globalAccuracy",
      "outputs": [
        {
          "internalType": "uint256",
          "name": "",
          "type": "uint256"
        }
      ],
      "stateMutability": "view",
      "type": "function",
      "constant": true
    },
    {
      "inputs": [
        {
          "internalType": "uint256",
          "name": "",
          "type": "uint256"
        }
      ],
      "name": "punishList",
      "outputs": [
        {
          "internalType": "address",
          "name": "",
          "type": "address"
        }
      ],
      "stateMutability": "view",
      "type": "function",
      "constant": true
    },
    {
      "inputs": [
        {
          "internalType": "address",
          "name": "",
          "type": "address"
        }
      ],
      "name": "punishMap",
      "outputs": [
        {
          "internalType": "bool",
          "name": "",
          "type": "bool"
        }
      ],
      "stateMutability": "view",
      "type": "function",
      "constant": true
    },
    {
      "inputs": [
        {
          "internalType": "uint256",
          "name": "accuracy",
          "type": "uint256"
        }
      ],
      "name": "setGlobalAccuracy",
      "outputs": [],
      "stateMutability": "nonpayable",
      "type": "function"
    },
    {
      "inputs": [
        {
          "internalType": "address",
          "name": "wallet",
          "type": "address"
        }
      ],
      "name": "addClient",
      "outputs": [],
      "stateMutability": "nonpayable",
      "type": "function"
    },
    {
      "inputs": [],
      "name": "deposit",
      "outputs": [],
      "stateMutability": "payable",
      "type": "function",
      "payable": true
    },
    {
      "inputs": [],
      "name": "withdraw",
      "outputs": [],
      "stateMutability": "nonpayable",
      "type": "function"
    },
    {
      "inputs": [
        {
          "internalType": "address",
          "name": "wallet",
          "type": "address"
        },
        {
          "internalType": "int256",
          "name": "score",
          "type": "int256"
        }
      ],
      "name": "addCumScore",
      "outputs": [],
      "stateMutability": "nonpayable",
      "type": "function"
    },
    {
      "inputs": [
        {
          "internalType": "address",
          "name": "wallet",
          "type": "address"
        },
        {
          "internalType": "int256[]",
          "name": "scores",
          "type": "int256[]"
        }
      ],
      "name": "setCumScores",
      "outputs": [],
      "stateMutability": "nonpayable",
      "type": "function"
    },
    {
      "inputs": [
        {
          "internalType": "address",
          "name": "wallet",
          "type": "address"
        },
        {
          "internalType": "uint256",
          "name": "index",
          "type": "uint256"
        }
      ],
      "name": "getCumScore",
      "outputs": [
        {
          "internalType": "int256",
          "name": "",
          "type": "int256"
        }
      ],
      "stateMutability": "view",
      "type": "function",
      "constant": true
    },
    {
      "inputs": [
        {
          "internalType": "address",
          "name": "wallet",
          "type": "address"
        }
      ],
      "name": "getAllCumScore",
      "outputs": [
        {
          "internalType": "int256[]",
          "name": "",
          "type": "int256[]"
        }
      ],
      "stateMutability": "view",
      "type": "function",
      "constant": true
    },
    {
      "inputs": [
        {
          "internalType": "address",
          "name": "wallet",
          "type": "address"
        },
        {
          "internalType": "string",
          "name": "key",
          "type": "string"
        }
      ],
      "name": "setPublicKey",
      "outputs": [],
      "stateMutability": "nonpayable",
      "type": "function"
    },
    {
      "inputs": [
        {
          "internalType": "address",
          "name": "wallet",
          "type": "address"
        },
        {
          "internalType": "uint256",
          "name": "level",
          "type": "uint256"
        }
      ],
      "name": "setLevel",
      "outputs": [],
      "stateMutability": "nonpayable",
      "type": "function"
    },
    {
      "inputs": [
        {
          "internalType": "address",
          "name": "wallet",
          "type": "address"
        },
        {
          "internalType": "uint256",
          "name": "eventCode",
          "type": "uint256"
        }
      ],
      "name": "addClientEvent",
      "outputs": [],
      "stateMutability": "nonpayable",
      "type": "function"
    },
    {
      "inputs": [
        {
          "internalType": "address",
          "name": "wallet",
          "type": "address"
        }
      ],
      "name": "saveCreditEvent",
      "outputs": [],
      "stateMutability": "nonpayable",
      "type": "function"
    },
    {
      "inputs": [
        {
          "internalType": "address",
          "name": "wallet",
          "type": "address"
        }
      ],
      "name": "gainExperience",
      "outputs": [],
      "stateMutability": "nonpayable",
      "type": "function"
    },
    {
      "inputs": [
        {
          "internalType": "address",
          "name": "wallet",
          "type": "address"
        }
      ],
      "name": "calculateCreditScore",
      "outputs": [
        {
          "internalType": "int256",
          "name": "",
          "type": "int256"
        }
      ],
      "stateMutability": "view",
      "type": "function",
      "constant": true
    },
    {
      "inputs": [
        {
          "internalType": "int256",
          "name": "score",
          "type": "int256"
        },
        {
          "internalType": "address",
          "name": "wallet",
          "type": "address"
        }
      ],
      "name": "setScore",
      "outputs": [],
      "stateMutability": "nonpayable",
      "type": "function"
    },
    {
      "inputs": [
        {
          "internalType": "address",
          "name": "worker",
          "type": "address"
        },
        {
          "internalType": "address",
          "name": "reviewer",
          "type": "address"
        },
        {
          "internalType": "int256[]",
          "name": "arr",
          "type": "int256[]"
        }
      ],
      "name": "setEvalScores",
      "outputs": [],
      "stateMutability": "nonpayable",
      "type": "function"
    },
    {
      "inputs": [
        {
          "internalType": "address",
          "name": "worker",
          "type": "address"
        },
        {
          "internalType": "address",
          "name": "reviewer",
          "type": "address"
        },
        {
          "internalType": "int256",
          "name": "score",
          "type": "int256"
        }
      ],
      "name": "addEvalScores",
      "outputs": [],
      "stateMutability": "nonpayable",
      "type": "function"
    },
    {
      "inputs": [
        {
          "internalType": "address",
          "name": "wallet",
          "type": "address"
        }
      ],
      "name": "calculateWorkerContribution",
      "outputs": [
        {
          "internalType": "int256",
          "name": "",
          "type": "int256"
        }
      ],
      "stateMutability": "nonpayable",
      "type": "function"
    },
    {
      "inputs": [
        {
          "internalType": "int256",
          "name": "reviewerScoreOnThisClient",
          "type": "int256"
        },
        {
          "internalType": "int256[]",
          "name": "quarters",
          "type": "int256[]"
        },
        {
          "internalType": "int256",
          "name": "interQtr",
          "type": "int256"
        }
      ],
      "name": "isReviewerScoreTooHigh",
      "outputs": [
        {
          "internalType": "bool",
          "name": "",
          "type": "bool"
        }
      ],
      "stateMutability": "pure",
      "type": "function",
      "constant": true
    },
    {
      "inputs": [
        {
          "internalType": "int256",
          "name": "reviewerScoreOnThisClient",
          "type": "int256"
        },
        {
          "internalType": "int256[]",
          "name": "quarters",
          "type": "int256[]"
        },
        {
          "internalType": "int256",
          "name": "interQtr",
          "type": "int256"
        }
      ],
      "name": "isReviewerScoreTooLow",
      "outputs": [
        {
          "internalType": "bool",
          "name": "",
          "type": "bool"
        }
      ],
      "stateMutability": "pure",
      "type": "function",
      "constant": true
    },
    {
      "inputs": [
        {
          "internalType": "address",
          "name": "wallet",
          "type": "address"
        },
        {
          "internalType": "uint256",
          "name": "index",
          "type": "uint256"
        }
      ],
      "name": "getCreditEvent",
      "outputs": [
        {
          "internalType": "int256",
          "name": "",
          "type": "int256"
        },
        {
          "internalType": "uint256",
          "name": "",
          "type": "uint256"
        }
      ],
      "stateMutability": "view",
      "type": "function",
      "constant": true
    },
    {
      "inputs": [],
      "name": "getPunishedList",
      "outputs": [
        {
          "internalType": "address[]",
          "name": "",
          "type": "address[]"
        }
      ],
      "stateMutability": "view",
      "type": "function",
      "constant": true
    },
    {
      "inputs": [],
      "name": "getAddresses",
      "outputs": [
        {
          "internalType": "address[]",
          "name": "",
          "type": "address[]"
        }
      ],
      "stateMutability": "view",
      "type": "function",
      "constant": true
    },
    {
      "inputs": [],
      "name": "getClientCount",
      "outputs": [
        {
          "internalType": "uint256",
          "name": "",
          "type": "uint256"
        }
      ],
      "stateMutability": "view",
      "type": "function",
      "constant": true
    },
    {
      "inputs": [
        {
          "internalType": "address",
          "name": "wallet",
          "type": "address"
        }
      ],
      "name": "getClient",
      "outputs": [
        {
          "internalType": "uint256",
          "name": "",
          "type": "uint256"
        },
        {
          "internalType": "uint256",
          "name": "",
          "type": "uint256"
        },
        {
          "internalType": "uint256",
          "name": "",
          "type": "uint256"
        },
        {
          "internalType": "uint256[]",
          "name": "",
          "type": "uint256[]"
        },
        {
          "internalType": "string",
          "name": "",
          "type": "string"
        }
      ],
      "stateMutability": "view",
      "type": "function",
      "constant": true
    },
    {
      "inputs": [
        {
          "internalType": "int256[]",
          "name": "arr",
          "type": "int256[]"
        }
      ],
      "name": "getMedian",
      "outputs": [
        {
          "internalType": "int256",
          "name": "",
          "type": "int256"
        }
      ],
      "stateMutability": "pure",
      "type": "function",
      "constant": true
    },
    {
      "inputs": [
        {
          "internalType": "address",
          "name": "worker",
          "type": "address"
        },
        {
          "internalType": "address",
          "name": "reviewer",
          "type": "address"
        }
      ],
      "name": "getEvalScores",
      "outputs": [
        {
          "internalType": "int256[]",
          "name": "",
          "type": "int256[]"
        }
      ],
      "stateMutability": "view",
      "type": "function",
      "constant": true
    },
    {
      "inputs": [
        {
          "internalType": "uint256",
          "name": "begin",
          "type": "uint256"
        },
        {
          "internalType": "uint256",
          "name": "end",
          "type": "uint256"
        },
        {
          "internalType": "int256[]",
          "name": "text",
          "type": "int256[]"
        }
      ],
      "name": "getSlice",
      "outputs": [
        {
          "internalType": "int256[]",
          "name": "",
          "type": "int256[]"
        }
      ],
      "stateMutability": "pure",
      "type": "function",
      "constant": true
    },
    {
      "inputs": [
        {
          "internalType": "int256[]",
          "name": "arr",
          "type": "int256[]"
        }
      ],
      "name": "getQuarters",
      "outputs": [
        {
          "internalType": "int256",
          "name": "",
          "type": "int256"
        },
        {
          "internalType": "int256",
          "name": "",
          "type": "int256"
        },
        {
          "internalType": "int256",
          "name": "",
          "type": "int256"
        }
      ],
      "stateMutability": "pure",
      "type": "function",
      "constant": true
    },
    {
      "inputs": [
        {
          "internalType": "int256[]",
          "name": "arr",
          "type": "int256[]"
        }
      ],
      "name": "test",
      "outputs": [
        {
          "internalType": "int256",
          "name": "",
          "type": "int256"
        },
        {
          "internalType": "int256",
          "name": "",
          "type": "int256"
        },
        {
          "internalType": "int256",
          "name": "",
          "type": "int256"
        },
        {
          "internalType": "int256[]",
          "name": "",
          "type": "int256[]"
        },
        {
          "internalType": "int256[]",
          "name": "",
          "type": "int256[]"
        }
      ],
      "stateMutability": "view",
      "type": "function",
      "constant": true
    },
    {
      "inputs": [
        {
          "internalType": "int256[]",
          "name": "arr",
          "type": "int256[]"
        }
      ],
      "name": "sort",
      "outputs": [
        {
          "internalType": "int256[]",
          "name": "",
          "type": "int256[]"
        }
      ],
      "stateMutability": "pure",
      "type": "function",
      "constant": true
    },
    {
      "inputs": [
        {
          "internalType": "int256[]",
          "name": "arr",
          "type": "int256[]"
        }
      ],
      "name": "normalizeArray",
      "outputs": [
        {
          "internalType": "int256[]",
          "name": "",
          "type": "int256[]"
        }
      ],
      "stateMutability": "pure",
      "type": "function",
      "constant": true
    },
    {
      "inputs": [
        {
          "internalType": "int256[]",
          "name": "arr",
          "type": "int256[]"
        }
      ],
      "name": "reverseNormalizeArray",
      "outputs": [
        {
          "internalType": "int256[]",
          "name": "",
          "type": "int256[]"
        }
      ],
      "stateMutability": "pure",
      "type": "function",
      "constant": true
    },
    {
      "inputs": [
        {
          "internalType": "int256[][]",
          "name": "arr",
          "type": "int256[][]"
        }
      ],
      "name": "convert2dTo1d",
      "outputs": [
        {
          "internalType": "int256[]",
          "name": "",
          "type": "int256[]"
        }
      ],
      "stateMutability": "pure",
      "type": "function",
      "constant": true
    },
    {
      "inputs": [
        {
          "internalType": "int256[]",
          "name": "arr",
          "type": "int256[]"
        }
      ],
      "name": "min",
      "outputs": [
        {
          "internalType": "int256",
          "name": "",
          "type": "int256"
        }
      ],
      "stateMutability": "pure",
      "type": "function",
      "constant": true
    },
    {
      "inputs": [
        {
          "internalType": "int256[]",
          "name": "arr",
          "type": "int256[]"
        }
      ],
      "name": "max",
      "outputs": [
        {
          "internalType": "int256",
          "name": "",
          "type": "int256"
        }
      ],
      "stateMutability": "pure",
      "type": "function",
      "constant": true
    }
  ],
  "bytecode": "0x608060405234801561001057600080fd5b50603260008190555061490d806100286000396000f3fe6080604052600436106102505760003560e01c80639059abf211610139578063cbc292a4116100b6578063e18ada0a1161007a578063e18ada0a14610991578063e541c71e146109ba578063e77d01b4146109e5578063eb73625514610a0e578063edf26d9b14610a4b578063f1c3753a14610a8857610250565b8063cbc292a4146108a5578063ccc13814146108d0578063ce398c661461090d578063d0e30db01461094a578063df84ec921461095457610250565b8063ac09aa04116100fd578063ac09aa0414610788578063ae2d67b1146107c5578063af6afce5146107ee578063bb8eb1e31461082b578063c97e4f981461086857610250565b80639059abf214610689578063a0e32870146106ca578063a11d3a581461070b578063a39fac1214610734578063a7406f771461075f57610250565b80635a81018a116101d257806364a16cb21161019657806364a16cb2146105425780636c77a72f1461057f578063722dcd8f146105bc5780637b9f63e3146105e55780638519c6401461062357806386711f881461066057610250565b80635a81018a146104455780635b42f0cc1461047057806361eed2a914610499578063632705b5146104dc578063640af44b1461051957610250565b8063428be3ac11610219578063428be3ac1461034e57806343928cfd1461038b5780634446e4a4146103b45780634c1c54af146103dd5780635392e04c1461041a57610250565b80627329f1146102555780630e23c510146102925780632c917aa8146102cf5780632f67d4161461030e5780633ccfd60b14610337575b600080fd5b34801561026157600080fd5b5061027c60048036038101906102779190613788565b610ac5565b6040516102899190613e5c565b60405180910390f35b34801561029e57600080fd5b506102b960048036038101906102b4919061399a565b610b9d565b6040516102c69190613e5c565b60405180910390f35b3480156102db57600080fd5b506102f660048036038101906102f191906139db565b610d2e565b60405161030593929190613eb4565b60405180910390f35b34801561031a57600080fd5b506103356004803603810190610330919061390a565b610deb565b005b34801561034357600080fd5b5061034c610e46565b005b34801561035a57600080fd5b5061037560048036038101906103709190613abf565b610ece565b6040516103829190613db8565b60405180910390f35b34801561039757600080fd5b506103b260048036038101906103ad919061375f565b610f0d565b005b3480156103c057600080fd5b506103db60048036038101906103d6919061387a565b61106b565b005b3480156103e957600080fd5b5061040460048036038101906103ff91906139db565b6110c6565b6040516104119190613e99565b60405180910390f35b34801561042657600080fd5b5061042f611202565b60405161043c9190613f75565b60405180910390f35b34801561045157600080fd5b5061045a611208565b6040516104679190613f75565b60405180910390f35b34801561047c57600080fd5b50610497600480360381019061049291906138ce565b611215565b005b3480156104a557600080fd5b506104c060048036038101906104bb919061375f565b611282565b6040516104d39796959493929190613ff1565b60405180910390f35b3480156104e857600080fd5b5061050360048036038101906104fe9190613ae8565b611366565b6040516105109190613e5c565b60405180910390f35b34801561052557600080fd5b50610540600480360381019061053b919061375f565b6114b7565b005b34801561054e57600080fd5b50610569600480360381019061056491906139db565b6118e1565b6040516105769190613e5c565b60405180910390f35b34801561058b57600080fd5b506105a660048036038101906105a1919061395e565b611a7e565b6040516105b39190613e99565b60405180910390f35b3480156105c857600080fd5b506105e360048036038101906105de919061395e565b611b0d565b005b3480156105f157600080fd5b5061060c6004803603810190610607919061395e565b611b58565b60405161061a929190613f4c565b60405180910390f35b34801561062f57600080fd5b5061064a6004803603810190610645919061375f565b611cd8565b6040516106579190613e7e565b60405180910390f35b34801561066c57600080fd5b5061068760048036038101906106829190613a1c565b611cf8565b005b34801561069557600080fd5b506106b060048036038101906106ab91906139db565b611d43565b6040516106c1959493929190613eeb565b60405180910390f35b3480156106d657600080fd5b506106f160048036038101906106ec919061375f565b611e0c565b604051610702959493929190613f90565b60405180910390f35b34801561071757600080fd5b50610732600480360381019061072d91906137c4565b612052565b005b34801561074057600080fd5b506107496120eb565b6040516107569190613e3a565b60405180910390f35b34801561076b57600080fd5b5061078660048036038101906107819190613abf565b612179565b005b34801561079457600080fd5b506107af60048036038101906107aa91906139db565b612183565b6040516107bc9190613e5c565b60405180910390f35b3480156107d157600080fd5b506107ec60048036038101906107e7919061382b565b612197565b005b3480156107fa57600080fd5b50610815600480360381019061081091906139db565b612242565b6040516108229190613e99565b60405180910390f35b34801561083757600080fd5b50610852600480360381019061084d9190613a58565b61233e565b60405161085f9190613e7e565b60405180910390f35b34801561087457600080fd5b5061088f600480360381019061088a919061375f565b6123a9565b60405161089c9190613e5c565b60405180910390f35b3480156108b157600080fd5b506108ba612443565b6040516108c79190613e3a565b60405180910390f35b3480156108dc57600080fd5b506108f760048036038101906108f291906139db565b6124d1565b6040516109049190613e99565b60405180910390f35b34801561091957600080fd5b50610934600480360381019061092f919061375f565b6125cd565b6040516109419190613e99565b60405180910390f35b610952612cbf565b005b34801561096057600080fd5b5061097b600480360381019061097691906139db565b612cfa565b6040516109889190613e5c565b60405180910390f35b34801561099d57600080fd5b506109b860048036038101906109b3919061395e565b612e3f565b005b3480156109c657600080fd5b506109cf612ef0565b6040516109dc9190613f75565b60405180910390f35b3480156109f157600080fd5b50610a0c6004803603810190610a07919061375f565b612ef6565b005b348015610a1a57600080fd5b50610a356004803603810190610a309190613a58565b612fe2565b604051610a429190613e7e565b60405180910390f35b348015610a5757600080fd5b50610a726004803603810190610a6d9190613abf565b61304d565b604051610a7f9190613db8565b60405180910390f35b348015610a9457600080fd5b50610aaf6004803603810190610aaa919061375f565b61308c565b604051610abc9190613e99565b60405180910390f35b6060600260008373ffffffffffffffffffffffffffffffffffffffff1673ffffffffffffffffffffffffffffffffffffffff16815260200190815260200160002060060160008473ffffffffffffffffffffffffffffffffffffffff1673ffffffffffffffffffffffffffffffffffffffff168152602001908152602001600020805480602002602001604051908101604052809291908181526020018280548015610b9057602002820191906000526020600020905b815481526020019060010190808311610b7c575b5050505050905092915050565b6060600060028351610baf91906144a5565b67ffffffffffffffff811115610bee577f4e487b7100000000000000000000000000000000000000000000000000000000600052604160045260246000fd5b604051908082528060200260200182016040528015610c1c5781602001602082028036833780820191505090505b50905060005b8351811015610d245760005b8451811015610d1057848281518110610c70577f4e487b7100000000000000000000000000000000000000000000000000000000600052603260045260246000fd5b60200260200101518181518110610cb0577f4e487b7100000000000000000000000000000000000000000000000000000000600052603260045260246000fd5b6020026020010151838381518110610cf1577f4e487b7100000000000000000000000000000000000000000000000000000000600052603260045260246000fd5b6020026020010181815250508080610d089061472b565b915050610c2e565b508080610d1c9061472b565b915050610c22565b5080915050919050565b600080600080600080606080610d43896110c6565b93506000610d5f60028b51610d58919061435d565b600161325d565b9050600060028b51610d719190614774565b1415610d8a57610d836000828c611366565b9250610da5565b610da26000600183610d9c9190614593565b8c611366565b92505b610dbd8160018c51610db79190614593565b8c611366565b9150610dc8836110c6565b9550610dd3826110c6565b93508585859850985098505050505050509193909250565b80600260008473ffffffffffffffffffffffffffffffffffffffff1673ffffffffffffffffffffffffffffffffffffffff1681526020019081526020016000206008019080519060200190610e4192919061348e565b505050565b60004790503373ffffffffffffffffffffffffffffffffffffffff166108fc829081150290604051600060405180830381858888f19350505050158015610e91573d6000803e3d6000fd5b507f7084f5476618d8e60b11ef0d7d3f06914655adb8793e28ff7f018d4c76d505d53382604051610ec3929190613dd3565b60405180910390a150565b60048181548110610ede57600080fd5b906000526020600020016000915054906101000a900473ffffffffffffffffffffffffffffffffffffffff1681565b600260008273ffffffffffffffffffffffffffffffffffffffff1673ffffffffffffffffffffffffffffffffffffffff16815260200190815260200160002060070160009054906101000a900460ff16611068576000600260008373ffffffffffffffffffffffffffffffffffffffff1673ffffffffffffffffffffffffffffffffffffffff168152602001908152602001600020905060018160070160006101000a81548160ff021916908315150217905550600181600001819055506000816001018190555060016005610fe391906144a5565b81600201819055506003829080600181540180825580915050600190039060005260206000200160009091909190916101000a81548173ffffffffffffffffffffffffffffffffffffffff021916908373ffffffffffffffffffffffffffffffffffffffff160217905550600560008154809291906110619061472b565b9190505550505b50565b80600260008473ffffffffffffffffffffffffffffffffffffffff1673ffffffffffffffffffffffffffffffffffffffff16815260200190815260200160002060090190805190602001906110c1929190613514565b505050565b60008060006001600285516110db919061435d565b6110e59190614593565b90506000600285516110f79190614774565b14156111b45760028460018361110d919061429d565b81518110611144577f4e487b7100000000000000000000000000000000000000000000000000000000600052603260045260246000fd5b60200260200101518560018461115a9190614593565b81518110611191577f4e487b7100000000000000000000000000000000000000000000000000000000600052603260045260246000fd5b60200260200101516111a39190614209565b6111ad91906142f3565b91506111f8565b8381815181106111ed577f4e487b7100000000000000000000000000000000000000000000000000000000600052603260045260246000fd5b602002602001015191505b8192505050919050565b60005481565b6000600380549050905090565b600260008373ffffffffffffffffffffffffffffffffffffffff1673ffffffffffffffffffffffffffffffffffffffff1681526020019081526020016000206009018190806001815401808255809150506001900390600052602060002001600090919091909150555050565b60026020528060005260406000206000915090508060000154908060010154908060020154908060050154908060070160009054906101000a900460ff16908060070160019054906101000a900460ff16908060080180546112e390614665565b80601f016020809104026020016040519081016040528092919081815260200182805461130f90614665565b801561135c5780601f106113315761010080835404028352916020019161135c565b820191906000526020600020905b81548152906001019060200180831161133f57829003601f168201915b5050505050905087565b60606000600185856113789190614593565b611382919061429d565b67ffffffffffffffff8111156113c1577f4e487b7100000000000000000000000000000000000000000000000000000000600052604160045260246000fd5b6040519080825280602002602001820160405280156113ef5781602001602082028036833780820191505090505b50905060005b85856114019190614593565b81116114ab57838682611414919061429d565b8151811061144b577f4e487b7100000000000000000000000000000000000000000000000000000000600052603260045260246000fd5b602002602001015182828151811061148c577f4e487b7100000000000000000000000000000000000000000000000000000000600052603260045260246000fd5b60200260200101818152505080806114a39061472b565b9150506113f5565b50809150509392505050565b6000600260008373ffffffffffffffffffffffffffffffffffffffff1673ffffffffffffffffffffffffffffffffffffffff16815260200190815260200160002060030180548060200260200160405190810160405280929190818152602001828054801561154557602002820191906000526020600020905b815481526020019060010190808311611531575b505050505090506000815190506000806000806000805b868110156116d757600188828151811061159f577f4e487b7100000000000000000000000000000000000000000000000000000000600052603260045260246000fd5b602002602001015114156115bc5785806115b8906146e2565b9650505b60028882815181106115f7577f4e487b7100000000000000000000000000000000000000000000000000000000600052603260045260246000fd5b60200260200101511415611614578480611610906146e2565b9550505b600388828151811061164f577f4e487b7100000000000000000000000000000000000000000000000000000000600052603260045260246000fd5b6020026020010151141561166c578380611668906146e2565b9450505b60048882815181106116a7577f4e487b7100000000000000000000000000000000000000000000000000000000600052603260045260246000fd5b602002602001015114156116c45782806116c0906146e2565b9350505b80806116cf9061472b565b91505061155c565b507ffffffffffffffffffffffffffffffffffffffffffffffffffffffffffffffff682611704919061438e565b600384611711919061438e565b60038661171e919061438e565b60018861172b919061438e565b6117359190614209565b61173f9190614209565b6117499190614209565b905060006040518060400160405280838152602001428152509050600260008a73ffffffffffffffffffffffffffffffffffffffff1673ffffffffffffffffffffffffffffffffffffffff168152602001908152602001600020600401819080600181540180825580915050600190039060005260206000209060020201600090919091909150600082015181600001556020820151816001015550506005600260008b73ffffffffffffffffffffffffffffffffffffffff1673ffffffffffffffffffffffffffffffffffffffff1681526020019081526020016000206004018054905011156118d657600260008a73ffffffffffffffffffffffffffffffffffffffff1673ffffffffffffffffffffffffffffffffffffffff1681526020019081526020016000206004018054806118ac577f4e487b7100000000000000000000000000000000000000000000000000000000600052603160045260246000fd5b60019003818190600052602060002090600202016000808201600090556001820160009055505090555b505050505050505050565b60606000825167ffffffffffffffff811115611926577f4e487b7100000000000000000000000000000000000000000000000000000000600052604160045260246000fd5b6040519080825280602002602001820160405280156119545781602001602082028036833780820191505090505b5090506000600190506000600a90506000828261197191906144ff565b905060005b8651811015611a7157600061198a886124d1565b9050600061199789612242565b905060008682846119a891906144ff565b86848d88815181106119e3577f4e487b7100000000000000000000000000000000000000000000000000000000600052603260045260246000fd5b60200260200101516119f591906144ff565b6119ff919061438e565b611a0991906142f3565b611a139190614209565b905080888581518110611a4f577f4e487b7100000000000000000000000000000000000000000000000000000000600052603260045260246000fd5b6020026020010181815250505050508080611a699061472b565b915050611976565b5083945050505050919050565b6000600260008473ffffffffffffffffffffffffffffffffffffffff1673ffffffffffffffffffffffffffffffffffffffff1681526020019081526020016000206009018281548110611afa577f4e487b7100000000000000000000000000000000000000000000000000000000600052603260045260246000fd5b9060005260206000200154905092915050565b80600260008473ffffffffffffffffffffffffffffffffffffffff1673ffffffffffffffffffffffffffffffffffffffff168152602001908152602001600020600001819055505050565b600080600260008573ffffffffffffffffffffffffffffffffffffffff1673ffffffffffffffffffffffffffffffffffffffff16815260200190815260200160002060040180549050831015611cc957600260008573ffffffffffffffffffffffffffffffffffffffff1673ffffffffffffffffffffffffffffffffffffffff1681526020019081526020016000206004018381548110611c22577f4e487b7100000000000000000000000000000000000000000000000000000000600052603260045260246000fd5b906000526020600020906002020160000154600260008673ffffffffffffffffffffffffffffffffffffffff1673ffffffffffffffffffffffffffffffffffffffff1681526020019081526020016000206004018481548110611cae577f4e487b7100000000000000000000000000000000000000000000000000000000600052603260045260246000fd5b90600052602060002090600202016001015491509150611cd1565b600080915091505b9250929050565b60016020528060005260406000206000915054906101000a900460ff1681565b81600260008373ffffffffffffffffffffffffffffffffffffffff1673ffffffffffffffffffffffffffffffffffffffff168152602001908152602001600020600501819055505050565b60008060006060806000806000606080611d5c8b6110c6565b93506000611d7860028d51611d71919061435d565b600161325d565b9050600060028d51611d8a9190614774565b1415611da357611d9c6000828e611366565b9250611dbe565b611dbb6000600183611db59190614593565b8e611366565b92505b611dd68160018e51611dd09190614593565b8e611366565b9150611de1836110c6565b9550611dec826110c6565b935085858585859a509a509a509a509a5050505050505091939590929450565b6000806000606080600260008773ffffffffffffffffffffffffffffffffffffffff1673ffffffffffffffffffffffffffffffffffffffff16815260200190815260200160002060000154600260008873ffffffffffffffffffffffffffffffffffffffff1673ffffffffffffffffffffffffffffffffffffffff16815260200190815260200160002060010154600260008973ffffffffffffffffffffffffffffffffffffffff1673ffffffffffffffffffffffffffffffffffffffff16815260200190815260200160002060020154600260008a73ffffffffffffffffffffffffffffffffffffffff1673ffffffffffffffffffffffffffffffffffffffff168152602001908152602001600020600301600260008b73ffffffffffffffffffffffffffffffffffffffff1673ffffffffffffffffffffffffffffffffffffffff16815260200190815260200160002060080181805480602002602001604051908101604052809291908181526020018280548015611fac57602002820191906000526020600020905b815481526020019060010190808311611f98575b50505050509150808054611fbf90614665565b80601f0160208091040260200160405190810160405280929190818152602001828054611feb90614665565b80156120385780601f1061200d57610100808354040283529160200191612038565b820191906000526020600020905b81548152906001019060200180831161201b57829003601f168201915b505050505090509450945094509450945091939590929450565b80600260008573ffffffffffffffffffffffffffffffffffffffff1673ffffffffffffffffffffffffffffffffffffffff16815260200190815260200160002060060160008473ffffffffffffffffffffffffffffffffffffffff1673ffffffffffffffffffffffffffffffffffffffff16815260200190815260200160002090805190602001906120e5929190613514565b50505050565b6060600380548060200260200160405190810160405280929190818152602001828054801561216f57602002820191906000526020600020905b8160009054906101000a900473ffffffffffffffffffffffffffffffffffffffff1673ffffffffffffffffffffffffffffffffffffffff1681526020019060010190808311612125575b5050505050905090565b8060008190555050565b606061218e82613295565b50819050919050565b600260008473ffffffffffffffffffffffffffffffffffffffff1673ffffffffffffffffffffffffffffffffffffffff16815260200190815260200160002060060160008373ffffffffffffffffffffffffffffffffffffffff1673ffffffffffffffffffffffffffffffffffffffff168152602001908152602001600020819080600181540180825580915050600190039060005260206000200160009091909190915055505050565b6000808260008151811061227f577f4e487b7100000000000000000000000000000000000000000000000000000000600052603260045260246000fd5b6020026020010151905060005b8351811015612334578381815181106122ce577f4e487b7100000000000000000000000000000000000000000000000000000000600052603260045260246000fd5b602002602001015182131561232157838181518110612316577f4e487b7100000000000000000000000000000000000000000000000000000000600052603260045260246000fd5b602002602001015191505b808061232c9061472b565b91505061228c565b5080915050919050565b6000818360028151811061237b577f4e487b7100000000000000000000000000000000000000000000000000000000600052603260045260246000fd5b602002602001015161238d9190614209565b84131561239d57600190506123a2565b600090505b9392505050565b6060600260008373ffffffffffffffffffffffffffffffffffffffff1673ffffffffffffffffffffffffffffffffffffffff16815260200190815260200160002060090180548060200260200160405190810160405280929190818152602001828054801561243757602002820191906000526020600020905b815481526020019060010190808311612423575b50505050509050919050565b606060048054806020026020016040519081016040528092919081815260200182805480156124c757602002820191906000526020600020905b8160009054906101000a900473ffffffffffffffffffffffffffffffffffffffff1673ffffffffffffffffffffffffffffffffffffffff168152602001906001019080831161247d575b5050505050905090565b6000808260008151811061250e577f4e487b7100000000000000000000000000000000000000000000000000000000600052603260045260246000fd5b6020026020010151905060005b83518110156125c35783818151811061255d577f4e487b7100000000000000000000000000000000000000000000000000000000600052603260045260246000fd5b60200260200101518212156125b0578381815181106125a5577f4e487b7100000000000000000000000000000000000000000000000000000000600052603260045260246000fd5b602002602001015191505b80806125bb9061472b565b91505061251b565b5080915050919050565b600080600260008473ffffffffffffffffffffffffffffffffffffffff1673ffffffffffffffffffffffffffffffffffffffff1681526020019081526020016000206009016001600260008673ffffffffffffffffffffffffffffffffffffffff1673ffffffffffffffffffffffffffffffffffffffff168152602001908152602001600020600901805490506126649190614593565b8154811061269b577f4e487b7100000000000000000000000000000000000000000000000000000000600052603260045260246000fd5b9060005260206000200154905060606000600260008673ffffffffffffffffffffffffffffffffffffffff1673ffffffffffffffffffffffffffffffffffffffff168152602001908152602001600020905060005b600380549050811015612c92578573ffffffffffffffffffffffffffffffffffffffff166003828154811061274e577f4e487b7100000000000000000000000000000000000000000000000000000000600052603260045260246000fd5b9060005260206000200160009054906101000a900473ffffffffffffffffffffffffffffffffffffffff1673ffffffffffffffffffffffffffffffffffffffff1614612c7f57816006016000600383815481106127d4577f4e487b7100000000000000000000000000000000000000000000000000000000600052603260045260246000fd5b9060005260206000200160009054906101000a900473ffffffffffffffffffffffffffffffffffffffff1673ffffffffffffffffffffffffffffffffffffffff1673ffffffffffffffffffffffffffffffffffffffff16815260200190815260200160002080548060200260200160405190810160405280929190818152602001828054801561288357602002820191906000526020600020905b81548152602001906001019080831161286f575b50505050509250600061289584612183565b90506000600367ffffffffffffffff8111156128da577f4e487b7100000000000000000000000000000000000000000000000000000000600052604160045260246000fd5b6040519080825280602002602001820160405280156129085781602001602082028036833780820191505090505b50905061291482610d2e565b8360008151811061294e577f4e487b7100000000000000000000000000000000000000000000000000000000600052603260045260246000fd5b602002602001018460018151811061298f577f4e487b7100000000000000000000000000000000000000000000000000000000600052603260045260246000fd5b60200260200101856002815181106129d0577f4e487b7100000000000000000000000000000000000000000000000000000000600052603260045260246000fd5b60200260200101838152508381525083815250505050600081600081518110612a22577f4e487b7100000000000000000000000000000000000000000000000000000000600052603260045260246000fd5b602002602001015182600281518110612a64577f4e487b7100000000000000000000000000000000000000000000000000000000600052603260045260246000fd5b6020026020010151612a7691906144ff565b90508082600081518110612ab3577f4e487b7100000000000000000000000000000000000000000000000000000000600052603260045260246000fd5b6020026020010151612ac591906144ff565b871280612b1d57508082600281518110612b08577f4e487b7100000000000000000000000000000000000000000000000000000000600052603260045260246000fd5b6020026020010151612b1a9190614209565b87135b15612c2f57600160008a73ffffffffffffffffffffffffffffffffffffffff1673ffffffffffffffffffffffffffffffffffffffff16815260200190815260200160002060009054906101000a900460ff16612c2e576004899080600181540180825580915050600190039060005260206000200160009091909190916101000a81548173ffffffffffffffffffffffffffffffffffffffff021916908373ffffffffffffffffffffffffffffffffffffffff16021790555060018060008b73ffffffffffffffffffffffffffffffffffffffff1673ffffffffffffffffffffffffffffffffffffffff16815260200190815260200160002060006101000a81548160ff0219169083151502179055505b5b81600181518110612c69577f4e487b7100000000000000000000000000000000000000000000000000000000600052603260045260246000fd5b6020026020010151975050505050505050612cba565b8080612c8a9061472b565b9150506126f0565b507fffffffffffffffffffffffffffffffffffffffffffffffffffffffffffffffff93505050505b919050565b7f2da466a7b24304f47e87fa2e1e5a81b9831ce54fec19055ce277ca2f39ba42c43334604051612cf0929190613dd3565b60405180910390a1565b60606000612d07836118e1565b90506000835167ffffffffffffffff811115612d4c577f4e487b7100000000000000000000000000000000000000000000000000000000600052604160045260246000fd5b604051908082528060200260200182016040528015612d7a5781602001602082028036833780820191505090505b50905060005b8251811015612e34576000838281518110612dc4577f4e487b7100000000000000000000000000000000000000000000000000000000600052603260045260246000fd5b60200260200101516001612dd891906144ff565b905080838381518110612e14577f4e487b7100000000000000000000000000000000000000000000000000000000600052603260045260246000fd5b602002602001018181525050508080612e2c9061472b565b915050612d80565b508092505050919050565b6000600260008473ffffffffffffffffffffffffffffffffffffffff1673ffffffffffffffffffffffffffffffffffffffff1681526020019081526020016000209050806003018290806001815401808255809150506001900390600052602060002001600090919091909150557f4623bfdf7f94027680e54d901618685599c74155a2144332d16508726becf644838383600301604051612ee393929190613dfc565b60405180910390a1505050565b60055481565b6000600260008373ffffffffffffffffffffffffffffffffffffffff1673ffffffffffffffffffffffffffffffffffffffff16815260200190815260200160002090506001600260008473ffffffffffffffffffffffffffffffffffffffff1673ffffffffffffffffffffffffffffffffffffffff16815260200190815260200160002060010154612f88919061429d565b8160010181905550806002015481600101541415612fde57806000016000815480929190612fb59061472b565b919050555060018160000154612fcb91906144a5565b8160020181905550600081600101819055505b5050565b6000818360008151811061301f577f4e487b7100000000000000000000000000000000000000000000000000000000600052603260045260246000fd5b602002602001015161303191906144ff565b8412156130415760019050613046565b600090505b9392505050565b6003818154811061305d57600080fd5b906000526020600020016000915054906101000a900473ffffffffffffffffffffffffffffffffffffffff1681565b600080600260008473ffffffffffffffffffffffffffffffffffffffff1673ffffffffffffffffffffffffffffffffffffffff16815260200190815260200160002090506000805b82600401805490508110156132525762015180426130f29190614593565b83600401828154811061312e577f4e487b7100000000000000000000000000000000000000000000000000000000600052603260045260246000fd5b906000526020600020906002020160010154111561323f57600062015180606485600401848154811061318a577f4e487b7100000000000000000000000000000000000000000000000000000000600052603260045260246000fd5b906000526020600020906002020160010154426131a791906144ff565b620151806131b591906144ff565b6131bf919061438e565b6131c991906142f3565b905060648185600401848154811061320a577f4e487b7100000000000000000000000000000000000000000000000000000000600052603260045260246000fd5b906000526020600020906002020160000154613226919061438e565b61323091906142f3565b8361323b9190614209565b9250505b808061324a9061472b565b9150506130d4565b508092505050919050565b600081826001848661326f919061429d565b6132799190614593565b613283919061435d565b61328d91906144a5565b905092915050565b606060008251905060005b818110156134845760006001826132b7919061429d565b90505b82811015613470578481815181106132fb577f4e487b7100000000000000000000000000000000000000000000000000000000600052603260045260246000fd5b602002602001015185838151811061333c577f4e487b7100000000000000000000000000000000000000000000000000000000600052603260045260246000fd5b6020026020010151131561345d576000858381518110613385577f4e487b7100000000000000000000000000000000000000000000000000000000600052603260045260246000fd5b602002602001015190508582815181106133c8577f4e487b7100000000000000000000000000000000000000000000000000000000600052603260045260246000fd5b6020026020010151868481518110613409577f4e487b7100000000000000000000000000000000000000000000000000000000600052603260045260246000fd5b6020026020010181815250508086838151811061344f577f4e487b7100000000000000000000000000000000000000000000000000000000600052603260045260246000fd5b602002602001018181525050505b80806134689061472b565b9150506132ba565b50808061347c9061472b565b9150506132a0565b5082915050919050565b82805461349a90614665565b90600052602060002090601f0160209004810192826134bc5760008555613503565b82601f106134d557805160ff1916838001178555613503565b82800160010185558215613503579182015b828111156135025782518255916020019190600101906134e7565b5b5090506135109190613561565b5090565b828054828255906000526020600020908101928215613550579160200282015b8281111561354f578251825591602001919060010190613534565b5b50905061355d919061357e565b5090565b5b8082111561357a576000816000905550600101613562565b5090565b5b8082111561359757600081600090555060010161357f565b5090565b60006135ae6135a98461408c565b614067565b9050808382526020820190508260005b858110156135ee57813585016135d488826136e1565b8452602084019350602083019250506001810190506135be565b5050509392505050565b600061360b613606846140b8565b614067565b9050808382526020820190508285602086028201111561362a57600080fd5b60005b8581101561365a5781613640888261370b565b84526020840193506020830192505060018101905061362d565b5050509392505050565b6000613677613672846140e4565b614067565b90508281526020810184848401111561368f57600080fd5b61369a848285614623565b509392505050565b6000813590506136b181614892565b92915050565b600082601f8301126136c857600080fd5b81356136d884826020860161359b565b91505092915050565b600082601f8301126136f257600080fd5b81356137028482602086016135f8565b91505092915050565b60008135905061371a816148a9565b92915050565b600082601f83011261373157600080fd5b8135613741848260208601613664565b91505092915050565b600081359050613759816148c0565b92915050565b60006020828403121561377157600080fd5b600061377f848285016136a2565b91505092915050565b6000806040838503121561379b57600080fd5b60006137a9858286016136a2565b92505060206137ba858286016136a2565b9150509250929050565b6000806000606084860312156137d957600080fd5b60006137e7868287016136a2565b93505060206137f8868287016136a2565b925050604084013567ffffffffffffffff81111561381557600080fd5b613821868287016136e1565b9150509250925092565b60008060006060848603121561384057600080fd5b600061384e868287016136a2565b935050602061385f868287016136a2565b92505060406138708682870161370b565b9150509250925092565b6000806040838503121561388d57600080fd5b600061389b858286016136a2565b925050602083013567ffffffffffffffff8111156138b857600080fd5b6138c4858286016136e1565b9150509250929050565b600080604083850312156138e157600080fd5b60006138ef858286016136a2565b92505060206139008582860161370b565b9150509250929050565b6000806040838503121561391d57600080fd5b600061392b858286016136a2565b925050602083013567ffffffffffffffff81111561394857600080fd5b61395485828601613720565b9150509250929050565b6000806040838503121561397157600080fd5b600061397f858286016136a2565b92505060206139908582860161374a565b9150509250929050565b6000602082840312156139ac57600080fd5b600082013567ffffffffffffffff8111156139c657600080fd5b6139d2848285016136b7565b91505092915050565b6000602082840312156139ed57600080fd5b600082013567ffffffffffffffff811115613a0757600080fd5b613a13848285016136e1565b91505092915050565b60008060408385031215613a2f57600080fd5b6000613a3d8582860161370b565b9250506020613a4e858286016136a2565b9150509250929050565b600080600060608486031215613a6d57600080fd5b6000613a7b8682870161370b565b935050602084013567ffffffffffffffff811115613a9857600080fd5b613aa4868287016136e1565b9250506040613ab58682870161370b565b9150509250925092565b600060208284031215613ad157600080fd5b6000613adf8482850161374a565b91505092915050565b600080600060608486031215613afd57600080fd5b6000613b0b8682870161374a565b9350506020613b1c8682870161374a565b925050604084013567ffffffffffffffff811115613b3957600080fd5b613b45868287016136e1565b9150509250925092565b6000613b5b8383613b97565b60208301905092915050565b6000613b738383613d43565b60208301905092915050565b6000613b8b8383613d9a565b60208301905092915050565b613ba0816145d1565b82525050565b613baf816145d1565b82525050565b6000613bc08261415a565b613bca81856141c5565b9350613bd583614115565b8060005b83811015613c06578151613bed8882613b4f565b9750613bf883614191565b925050600181019050613bd9565b5085935050505092915050565b6000613c1e82614165565b613c2881856141d6565b9350613c3383614125565b8060005b83811015613c64578151613c4b8882613b67565b9750613c568361419e565b925050600181019050613c37565b5085935050505092915050565b6000613c7c82614170565b613c8681856141e7565b9350613c9183614135565b8060005b83811015613cc2578151613ca98882613b7f565b9750613cb4836141ab565b925050600181019050613c95565b5085935050505092915050565b6000613cda8261417b565b613ce481856141e7565b9350613cef83614145565b8060005b83811015613d2757613d0482614861565b613d0e8882613b7f565b9750613d19836141b8565b925050600181019050613cf3565b5085935050505092915050565b613d3d816145e3565b82525050565b613d4c816145ef565b82525050565b613d5b816145ef565b82525050565b6000613d6c82614186565b613d7681856141f8565b9350613d86818560208601614632565b613d8f81614874565b840191505092915050565b613da381614619565b82525050565b613db281614619565b82525050565b6000602082019050613dcd6000830184613ba6565b92915050565b6000604082019050613de86000830185613ba6565b613df56020830184613da9565b9392505050565b6000606082019050613e116000830186613ba6565b613e1e6020830185613da9565b8181036040830152613e308184613ccf565b9050949350505050565b60006020820190508181036000830152613e548184613bb5565b905092915050565b60006020820190508181036000830152613e768184613c13565b905092915050565b6000602082019050613e936000830184613d34565b92915050565b6000602082019050613eae6000830184613d52565b92915050565b6000606082019050613ec96000830186613d52565b613ed66020830185613d52565b613ee36040830184613d52565b949350505050565b600060a082019050613f006000830188613d52565b613f0d6020830187613d52565b613f1a6040830186613d52565b8181036060830152613f2c8185613c13565b90508181036080830152613f408184613c13565b90509695505050505050565b6000604082019050613f616000830185613d52565b613f6e6020830184613da9565b9392505050565b6000602082019050613f8a6000830184613da9565b92915050565b600060a082019050613fa56000830188613da9565b613fb26020830187613da9565b613fbf6040830186613da9565b8181036060830152613fd18185613c71565b90508181036080830152613fe58184613d61565b90509695505050505050565b600060e082019050614006600083018a613da9565b6140136020830189613da9565b6140206040830188613da9565b61402d6060830187613d52565b61403a6080830186613d34565b61404760a0830185613d34565b81810360c08301526140598184613d61565b905098975050505050505050565b6000614071614082565b905061407d82826146b1565b919050565b6000604051905090565b600067ffffffffffffffff8211156140a7576140a6614832565b5b602082029050602081019050919050565b600067ffffffffffffffff8211156140d3576140d2614832565b5b602082029050602081019050919050565b600067ffffffffffffffff8211156140ff576140fe614832565b5b61410882614874565b9050602081019050919050565b6000819050602082019050919050565b6000819050602082019050919050565b6000819050602082019050919050565b60008190508160005260206000209050919050565b600081519050919050565b600081519050919050565b600081519050919050565b600081549050919050565b600081519050919050565b6000602082019050919050565b6000602082019050919050565b6000602082019050919050565b6000600182019050919050565b600082825260208201905092915050565b600082825260208201905092915050565b600082825260208201905092915050565b600082825260208201905092915050565b6000614214826145ef565b915061421f836145ef565b9250817f7fffffffffffffffffffffffffffffffffffffffffffffffffffffffffffffff0383136000831215161561425a576142596147a5565b5b817f8000000000000000000000000000000000000000000000000000000000000000038312600083121615614292576142916147a5565b5b828201905092915050565b60006142a882614619565b91506142b383614619565b9250827fffffffffffffffffffffffffffffffffffffffffffffffffffffffffffffffff038211156142e8576142e76147a5565b5b828201905092915050565b60006142fe826145ef565b9150614309836145ef565b925082614319576143186147d4565b5b600160000383147f800000000000000000000000000000000000000000000000000000000000000083141615614352576143516147a5565b5b828205905092915050565b600061436882614619565b915061437383614619565b925082614383576143826147d4565b5b828204905092915050565b6000614399826145ef565b91506143a4836145ef565b9250827f7fffffffffffffffffffffffffffffffffffffffffffffffffffffffffffffff04821160008413600084131616156143e3576143e26147a5565b5b817f800000000000000000000000000000000000000000000000000000000000000005831260008412600084131616156144205761441f6147a5565b5b827f8000000000000000000000000000000000000000000000000000000000000000058212600084136000841216161561445d5761445c6147a5565b5b827f7fffffffffffffffffffffffffffffffffffffffffffffffffffffffffffffff058212600084126000841216161561449a576144996147a5565b5b828202905092915050565b60006144b082614619565b91506144bb83614619565b9250817fffffffffffffffffffffffffffffffffffffffffffffffffffffffffffffffff04831182151516156144f4576144f36147a5565b5b828202905092915050565b600061450a826145ef565b9150614515836145ef565b9250827f8000000000000000000000000000000000000000000000000000000000000000018212600084121516156145505761454f6147a5565b5b827f7fffffffffffffffffffffffffffffffffffffffffffffffffffffffffffffff018213600084121615614588576145876147a5565b5b828203905092915050565b600061459e82614619565b91506145a983614619565b9250828210156145bc576145bb6147a5565b5b828203905092915050565b6000819050919050565b60006145dc826145f9565b9050919050565b60008115159050919050565b6000819050919050565b600073ffffffffffffffffffffffffffffffffffffffff82169050919050565b6000819050919050565b82818337600083830152505050565b60005b83811015614650578082015181840152602081019050614635565b8381111561465f576000848401525b50505050565b6000600282049050600182168061467d57607f821691505b6020821081141561469157614690614803565b5b50919050565b60006146aa6146a583614885565b6145c7565b9050919050565b6146ba82614874565b810181811067ffffffffffffffff821117156146d9576146d8614832565b5b80604052505050565b60006146ed826145ef565b91507f7fffffffffffffffffffffffffffffffffffffffffffffffffffffffffffffff8214156147205761471f6147a5565b5b600182019050919050565b600061473682614619565b91507fffffffffffffffffffffffffffffffffffffffffffffffffffffffffffffffff821415614769576147686147a5565b5b600182019050919050565b600061477f82614619565b915061478a83614619565b92508261479a576147996147d4565b5b828206905092915050565b7f4e487b7100000000000000000000000000000000000000000000000000000000600052601160045260246000fd5b7f4e487b7100000000000000000000000000000000000000000000000000000000600052601260045260246000fd5b7f4e487b7100000000000000000000000000000000000000000000000000000000600052602260045260246000fd5b7f4e487b7100000000000000000000000000000000000000000000000000000000600052604160045260246000fd5b600061486d8254614697565b9050919050565b6000601f19601f8301169050919050565b60008160001c9050919050565b61489b816145d1565b81146148a657600080fd5b50565b6148b2816145ef565b81146148bd57600080fd5b50565b6148c981614619565b81146148d457600080fd5b5056fea2646970667358221220b44419e987c8f0b2884cb5f862397d5733ae36541ce9c23a4c5baf50385093ee64736f6c63430008010033",
  "immutableReferences": {},
  "source": "// SPDX-License-Identifier: MIT\npragma solidity >=0.8.1;\n\n// import \"hardhat/console.sol\";\ncontract Admin {\n    // Client model\n    uint constant JOIN_EVENT = 1;\n    uint constant TRAIN_EVENT = 2;\n    uint constant EVAL_EVENT = 3;\n    uint constant PUNISH_EVENT = 4;\n    int constant JOIN_VALUE = 1;\n    int constant TRAIN_VALUE = 3;\n    int constant EVAL_VALUE = 3;\n    int constant PUNISH_VALUE = -10;\n    uint constant STARTING_LEVEL = 1;\n    uint constant STARTING_EXPERIENCE = 0;\n    uint constant EXPIRE_TIME = 86400;\n    uint constant EXP_MULTIPLIER = 5;\n    uint constant MAX_EVENTS = 5;\n    uint public globalAccuracy;\n\n    struct Client {\n        //training score for worker\n        //training score for reviewer\n        uint level;\n        uint experience;\n        uint experienceNext;\n        uint[] events;\n        CumulativeScore[] scores;\n        int trainingScore;\n        mapping(address => int[]) evalScores; //eval score of other workers\n        bool isExist;\n        bool isPunished;\n        string publicKey;\n        int[] cumScores;\n    }\n\n    struct CumulativeScore {\n        int score;\n        uint time;\n    }\n    mapping(address => bool) public punishMap;\n    //clients\n    mapping(address => Client) public clients;\n    //clientList\n    address[] public addresses;\n    //score\n    address[] public punishList;\n    // mapping(address => CumulativeScore) public scores;\n    event clientAdded(\n        address sender,\n        address wallet,\n        uint256 level,\n        uint256 experience,\n        uint256 experienceNext,\n        uint[] events\n    );\n    event clientAddedEvent(address sender, uint eventCode, uint[] events);\n    event sortedArray(int[] arr);\n    event maliciousClient(address client);\n    event getReviewerContribution(int[] differences);\n    event Deposited(address sender, uint value);\n    event Withdrawn(address sender, uint balance);\n    // Store client Count\n    uint public clientCount;\n\n    constructor() public {\n        globalAccuracy = 50;\n    }\n\n    function setGlobalAccuracy(uint accuracy) public {\n        globalAccuracy = accuracy;\n    }\n\n    function addClient(address wallet) public {\n        if (!clients[wallet].isExist) {\n            Client storage client = clients[wallet];\n            client.isExist = true;\n            client.level = STARTING_LEVEL;\n            client.experience = STARTING_EXPERIENCE;\n            client.experienceNext = EXP_MULTIPLIER * STARTING_LEVEL;\n            addresses.push(wallet);\n            clientCount++;\n            // emit clientAdded(msg.sender, wallet, client.level, client.experience, client.experienceNext, client.events);\n        }\n    }\n\n    function deposit() public payable {\n        emit Deposited(msg.sender, msg.value);\n    }\n\n    function withdraw() public {\n        uint256 balance = address(this).balance;\n        payable(msg.sender).transfer(balance);\n        emit Withdrawn(msg.sender, balance);\n    }\n\n    function addCumScore(address wallet, int score) public {\n        clients[wallet].cumScores.push(score);\n    }\n\n    function setCumScores(address wallet, int[] memory scores) public {\n        clients[wallet].cumScores = scores;\n    }\n\n    function getCumScore(address wallet, uint index) public view returns (int) {\n        return clients[wallet].cumScores[index];\n    }\n\n    function getAllCumScore(address wallet) public view returns (int[] memory) {\n        return clients[wallet].cumScores;\n    }\n\n    function setPublicKey(address wallet, string memory key) public {\n        clients[wallet].publicKey = key;\n    }\n\n    function setLevel(address wallet, uint level) public {\n        clients[wallet].level = level;\n    }\n\n    function addClientEvent(address wallet, uint eventCode) public {\n        Client storage client = clients[wallet];\n        client.events.push(eventCode);\n        emit clientAddedEvent(wallet, eventCode, client.events);\n    }\n\n    function saveCreditEvent(address wallet) public {\n        // require a valid client\n        uint[] memory creditEventScores = clients[wallet].events;\n        uint length = creditEventScores.length;\n        int countJoin = 0;\n        int countTrain = 0;\n        int countEval = 0;\n        int countPunish = 0;\n        int total = 0;\n        for (uint i = 0; i < length; i++) {\n            if (creditEventScores[i] == JOIN_EVENT) {\n                countJoin++;\n            }\n            if (creditEventScores[i] == TRAIN_EVENT) {\n                countTrain++;\n            }\n            if (creditEventScores[i] == EVAL_EVENT) {\n                countEval++;\n            }\n            if (creditEventScores[i] == PUNISH_EVENT) {\n                countPunish++;\n            }\n        }\n        total =\n            countJoin *\n            JOIN_VALUE +\n            countTrain *\n            TRAIN_VALUE +\n            countEval *\n            EVAL_VALUE +\n            countPunish *\n            PUNISH_VALUE;\n        CumulativeScore memory cScore = CumulativeScore(total, block.timestamp);\n        clients[wallet].scores.push(cScore);\n        if (clients[wallet].scores.length > MAX_EVENTS) {\n            clients[wallet].scores.pop();\n        }\n    }\n\n    function gainExperience(address wallet) public {\n        //increment experience\n        Client storage client = clients[wallet];\n        client.experience = clients[wallet].experience + 1;\n        //check if enough exp to lv up, client gains level\n        if (client.experience == client.experienceNext) {\n            client.level++;\n            client.experienceNext = client.level * STARTING_LEVEL;\n            client.experience = 0;\n        }\n    }\n\n    function calculateCreditScore(address wallet) public view returns (int) {\n        Client storage client = clients[wallet];\n        int creditScore = 0;\n        for (uint256 index = 0; index < client.scores.length; index++) {\n            if (client.scores[index].time > (block.timestamp - EXPIRE_TIME)) {\n                int freshNess = ((int(EXPIRE_TIME) -\n                    (int(block.timestamp) - int(client.scores[index].time))) *\n                    100) / int(EXPIRE_TIME);\n\n                creditScore += (client.scores[index].score * freshNess) / 100;\n            }\n        }\n        return creditScore;\n    }\n\n    function setScore(int score, address wallet) public {\n        clients[wallet].trainingScore = score;\n    }\n\n    function setEvalScores(address worker, address reviewer, int[] memory arr) public {\n        clients[worker].evalScores[reviewer] = arr;\n    }\n    function addEvalScores(address worker, address reviewer, int score) public {\n        clients[worker].evalScores[reviewer].push(score);\n    }\n\n    function calculateWorkerContribution(address wallet) public returns (int) {\n        int score = clients[wallet].cumScores[\n            clients[wallet].cumScores.length - 1\n        ];\n        int[] memory scores;\n        Client storage client = clients[wallet];\n        for (uint256 i = 0; i < addresses.length; i++) {\n            if (addresses[i] != wallet) {\n                scores = client.evalScores[addresses[i]];\n                int[] memory sortedScores = sort(scores);\n                int[] memory quarters = new int[](3);\n                (quarters[0], quarters[1], quarters[2]) = getQuarters(\n                    sortedScores\n                );\n                int interQtr = quarters[2] - quarters[0];\n                if (    score < quarters[0] - interQtr ||score > quarters[2] + interQtr) \n                {\n                    //punish\n                    if (!punishMap[wallet]) {\n                        punishList.push(wallet);\n                        punishMap[wallet] = true;\n                    }\n                }\n                \n                return quarters[1];\n            }\n        }\n        return -1;\n    }\n\n    // function calculateReviewerContribution(address reviewer) public {\n    //     int minDifference = 0;\n    //     int maxDifference = 0;\n    //     int[] memory differences = new int[](addresses.length);\n    //     for (uint256 i = 0; i < addresses.length; i++) {\n    //         if (addresses[i] != reviewer) {\n    //             // int total = 0;\n    //             int[] memory _scores = new int[](addresses.length);\n    //             int difference = 0;\n    //             for (uint256 j = 0; j < addresses.length; j++) {\n    //                 if (addresses[j] != addresses[i]) {\n    //                     _scores[j] = (\n    //                         clients[addresses[j]].evalScores[addresses[i]]\n    //                     );\n    //                     // total += clients[addresses[j]].evalScores[addresses[i]];\n    //                 }\n    //             }\n    //             int[] memory sortedScores = sort(_scores);\n    //             int[] memory quarters = new int[](3);\n    //             (quarters[0], quarters[1], quarters[2]) = getQuarters(\n    //                 sortedScores\n    //             );\n\n    //             int interQtr = quarters[2] - quarters[0];\n    //             int reviewerScoreOnThisClient = clients[reviewer].evalScores[\n    //                 addresses[i]\n    //             ];\n    //             if (\n    //                 isReviewerScoreTooHigh(\n    //                     reviewerScoreOnThisClient,\n    //                     quarters,\n    //                     interQtr\n    //                 )\n    //             ) {\n    //                 difference = abs((quarters[2] + interQtr) - quarters[1]);\n    //                 if (!punishMap[reviewer]) {\n    //                     punishList.push(reviewer);\n    //                     punishMap[reviewer] = true;\n    //                 }\n    //             } else if (\n    //                 isReviewerScoreTooLow(\n    //                     reviewerScoreOnThisClient,\n    //                     quarters,\n    //                     interQtr\n    //                 )\n    //             ) {\n    //                 difference = abs((quarters[0] - interQtr) - quarters[1]);\n    //                 if (!punishMap[reviewer]) {\n    //                     punishList.push(reviewer);\n    //                     punishMap[reviewer] = true;\n    //                 }\n    //             } else {\n    //                 difference = abs(reviewerScoreOnThisClient - quarters[1]);\n    //             }\n    //             if (difference > maxDifference) {\n    //                 maxDifference = difference;\n    //             }\n    //             if (difference < minDifference) {\n    //                 minDifference = difference;\n    //             }\n    //             differences[i] = difference;\n    //         }\n    //     }\n    //     differences = normalizeArray(differences);\n    //     emit getReviewerContribution(differences);\n    // }\n\n    function isReviewerScoreTooHigh(\n        int reviewerScoreOnThisClient,\n        int[] memory quarters,\n        int interQtr\n    ) public pure returns (bool) {\n        if (reviewerScoreOnThisClient > (quarters[2] + interQtr)) {\n            return true;\n        }\n        return false;\n    }\n\n    function isReviewerScoreTooLow(\n        int reviewerScoreOnThisClient,\n        int[] memory quarters,\n        int interQtr\n    ) public pure returns (bool) {\n        if (reviewerScoreOnThisClient < (quarters[0] - interQtr)) {\n            return true;\n        }\n        return false;\n    }\n\n    function getCreditEvent(\n        address wallet,\n        uint index\n    ) public view returns (int, uint) {\n        if (index < clients[wallet].scores.length)\n            return (\n                clients[wallet].scores[index].score,\n                clients[wallet].scores[index].time\n            );\n        return (0, 0);\n    }\n\n    function getPunishedList() public view returns (address[] memory) {\n        return punishList;\n    }\n\n    function getAddresses() public view returns (address[] memory) {\n        return addresses;\n    }\n\n    function getClientCount() public view returns (uint) {\n        return addresses.length;\n    }\n\n    function getClient(\n        address wallet\n    )\n        public\n        view\n        returns (uint256, uint256, uint256, uint[] memory, string memory)\n    {\n        return (\n            clients[wallet].level,\n            clients[wallet].experience,\n            clients[wallet].experienceNext,\n            clients[wallet].events,\n            clients[wallet].publicKey\n        );\n    }\n\n    function getMedian(int[] memory arr) public pure returns (int) {\n        // arr is already sorted\n        int median;\n        uint mid = arr.length / 2 - 1;\n\n        if (arr.length % 2 == 0) {\n            median = (arr[mid - 1] + arr[mid + 1]) / 2;\n        } else {\n            median = arr[mid];\n        }\n\n        return median;\n    }\n\n    function getEvalScores(\n        address worker,\n        address reviewer\n    ) public view returns (int[] memory)  {\n        return clients[reviewer].evalScores[worker];\n    }\n\n    function getSlice(\n        uint256 begin,\n        uint256 end,\n        int[] memory text\n    ) public pure returns (int[] memory) {\n        int[] memory a = new int[](end - begin + 1);\n        for (uint i = 0; i <= end - begin; i++) {\n            a[i] = text[i + begin];\n        }\n        return a;\n    }\n\n    function getQuarters(int[] memory arr) public pure returns (int, int, int) {\n        int q1;\n        int q2;\n        int q3;\n        int[] memory firstHalf;\n        int[] memory secondHalf;\n        //console.log(arr);\n\n        q2 = getMedian(arr);\n\n        uint mid = ceil(arr.length / 2, 1);\n        if (arr.length % 2 == 0) {\n            firstHalf = getSlice(0, mid, arr);\n            //console.log(firstHalf);\n        } else {\n            firstHalf = getSlice(0, mid - 1, arr);\n            //console.log(firstHalf);\n        }\n\n        secondHalf = getSlice(mid, arr.length - 1, arr);\n        //console.log(secondHalf);\n\n        q1 = getMedian(firstHalf);\n        q3 = getMedian(secondHalf);\n\n        return (q1, q2, q3);\n    }\n\n    function test(\n        int[] memory arr\n    ) public view returns (int, int, int, int[] memory, int[] memory) {\n        int q1;\n        int q2;\n        int q3;\n\n        int[] memory firstHalf;\n        int[] memory secondHalf;\n\n        q2 = getMedian(arr);\n\n        uint mid = ceil(arr.length / 2, 1);\n        if (arr.length % 2 == 0) {\n            firstHalf = getSlice(0, mid, arr);\n        } else {\n            firstHalf = getSlice(0, mid - 1, arr);\n        }\n\n        secondHalf = getSlice(mid, arr.length - 1, arr);\n\n        q1 = getMedian(firstHalf);\n        q3 = getMedian(secondHalf);\n\n        return (q1, q2, q3, firstHalf, secondHalf);\n    }\n\n    function ceil(uint a, uint m) private pure returns (uint) {\n        return ((a + m - 1) / m) * m;\n    }\n\n    function abs(int x) private pure returns (int) {\n        return x >= 0 ? x : -x;\n    }\n\n    function sort(int[] memory arr) public pure returns (int[] memory) {\n        // quickSort(arr, uint(0), uint(data.length - 1));\n        sort_array(arr);\n        return arr;\n    }\n\n    function quickSort(int[] memory arr, uint left, uint right) private pure {\n        uint i = left;\n        uint j = right;\n        if (i == j) return;\n        int pivot = arr[uint(left + (right - left) / 2)];\n        while (i <= j) {\n            while (arr[uint(i)] < pivot) i++;\n            while (pivot < arr[uint(j)]) j--;\n            if (i <= j) {\n                (arr[uint(i)], arr[uint(j)]) = (arr[uint(j)], arr[uint(i)]);\n                i++;\n                j--;\n            }\n        }\n        if (left < j) quickSort(arr, left, j);\n        if (i < right) quickSort(arr, i, right);\n    }\n\n    function sort_array(int[] memory arr) private pure returns (int[] memory) {\n        uint256 l = arr.length;\n        for (uint i = 0; i < l; i++) {\n            for (uint j = i + 1; j < l; j++) {\n                if (arr[i] > arr[j]) {\n                    int temp = arr[i];\n                    arr[i] = arr[j];\n                    arr[j] = temp;\n                }\n            }\n        }\n        return arr;\n    }\n\n    function normalizeArray(\n        int[] memory arr\n    ) public pure returns (int[] memory) {\n        int[] memory normalized_array = new int[](arr.length);\n        int start = 1;\n        int end = 10;\n        int width = end - start;\n        for (uint256 i = 0; i < arr.length; i++) {\n            int _max = max(arr);\n            int _min = min(arr);\n            int normalized = (((arr[i] - _min) * width) / (_max - _min)) +\n                start;\n            normalized_array[i] = normalized;\n        }\n\n        return normalized_array;\n    }\n\n    function reverseNormalizeArray(\n        int[] memory arr\n    ) public pure returns (int[] memory) {\n        int[] memory normalized = normalizeArray(arr);\n        int[] memory reversed_array = new int[](arr.length);\n        for (uint256 i = 0; i < normalized.length; i++) {\n            int reversed = 1 - normalized[i];\n            reversed_array[i] = reversed;\n        }\n\n        return reversed_array;\n    }\n\n    function convert2dTo1d(\n        int[][] memory arr\n    ) public pure returns (int[] memory) {\n        int[] memory newArray = new int[](arr.length * 2);\n        for (uint256 i = 0; i < arr.length; i++) {\n            for (uint256 j = 0; j < arr.length; j++) {\n                newArray[i] = arr[i][j];\n            }\n        }\n\n        return newArray;\n    }\n\n    // function convert2dTo1d(int[] memory arr) public pure returns (int[][] memory) {\n\n    //     int[] memory newArray = new int[](arr.length/2);\n    //     int number_of_element_per_row = addresses.length;\n    //     while(arr.length) newArray.push(arr.splice(0, number_of_element_per_row));\n\n    //     return newArray;\n    // }\n    function min(int[] memory arr) public pure returns (int) {\n        int val = arr[0];\n        for (uint256 index = 0; index < arr.length; index++) {\n            if (val > arr[index]) {\n                val = arr[index];\n            }\n        }\n        return val;\n    }\n\n    function max(int[] memory arr) public pure returns (int) {\n        int val = arr[0];\n        for (uint256 index = 0; index < arr.length; index++) {\n            if (val < arr[index]) {\n                val = arr[index];\n            }\n        }\n        return val;\n    }\n}\n",
  "sourcePath": "/apps/contracts/Admin.sol",
  "compiler": {
    "name": "solc",
    "version": "0.8.1+commit.df193b15.Emscripten.clang"
  },
  "schemaVersion": "3.3.4",
  "updatedAt": "2023-07-05T14:01:09.411Z",
  "networkType": "ethereum",
  "devdoc": {
    "kind": "dev",
    "methods": {},
    "version": 1
  },
  "userdoc": {
    "kind": "user",
    "methods": {},
    "version": 1
  }
}