{
  "contractName": "Admin",
  "abi": [
    {
      "anonymous": false,
      "inputs": [
        {
          "indexed": false,
          "internalType": "address",
          "name": "sender",
          "type": "address"
        },
        {
          "indexed": false,
          "internalType": "address",
          "name": "wallet",
          "type": "address"
        },
        {
          "indexed": false,
          "internalType": "uint256",
          "name": "level",
          "type": "uint256"
        },
        {
          "indexed": false,
          "internalType": "uint256",
          "name": "experience",
          "type": "uint256"
        },
        {
          "indexed": false,
          "internalType": "uint256",
          "name": "experienceNext",
          "type": "uint256"
        },
        {
          "indexed": false,
          "internalType": "uint256[]",
          "name": "events",
          "type": "uint256[]"
        }
      ],
      "name": "clientAdded",
      "type": "event"
    },
    {
      "anonymous": false,
      "inputs": [
        {
          "indexed": false,
          "internalType": "address",
          "name": "sender",
          "type": "address"
        },
        {
          "indexed": false,
          "internalType": "uint256",
          "name": "eventCode",
          "type": "uint256"
        },
        {
          "indexed": false,
          "internalType": "uint256[]",
          "name": "events",
          "type": "uint256[]"
        }
      ],
      "name": "clientAddedEvent",
      "type": "event"
    },
    {
      "inputs": [
        {
          "internalType": "uint256",
          "name": "",
          "type": "uint256"
        }
      ],
      "name": "addresses",
      "outputs": [
        {
          "internalType": "address",
          "name": "",
          "type": "address"
        }
      ],
      "stateMutability": "view",
      "type": "function",
      "constant": true
    },
    {
      "inputs": [],
      "name": "clientCount",
      "outputs": [
        {
          "internalType": "uint256",
          "name": "",
          "type": "uint256"
        }
      ],
      "stateMutability": "view",
      "type": "function",
      "constant": true
    },
    {
      "inputs": [
        {
          "internalType": "address",
          "name": "",
          "type": "address"
        }
      ],
      "name": "clients",
      "outputs": [
        {
          "internalType": "uint256",
          "name": "level",
          "type": "uint256"
        },
        {
          "internalType": "uint256",
          "name": "experience",
          "type": "uint256"
        },
        {
          "internalType": "uint256",
          "name": "experienceNext",
          "type": "uint256"
        },
        {
          "internalType": "int256",
          "name": "prevClaimScore",
          "type": "int256"
        },
        {
          "internalType": "bool",
          "name": "isExist",
          "type": "bool"
        },
        {
          "internalType": "int256",
          "name": "creditScore",
          "type": "int256"
        }
      ],
      "stateMutability": "view",
      "type": "function",
      "constant": true
    },
    {
      "inputs": [
        {
          "internalType": "address",
          "name": "",
          "type": "address"
        }
      ],
      "name": "scores",
      "outputs": [
        {
          "internalType": "int256",
          "name": "score",
          "type": "int256"
        },
        {
          "internalType": "uint256",
          "name": "time",
          "type": "uint256"
        }
      ],
      "stateMutability": "view",
      "type": "function",
      "constant": true
    },
    {
      "inputs": [
        {
          "internalType": "address",
          "name": "wallet",
          "type": "address"
        }
      ],
      "name": "addClient",
      "outputs": [],
      "stateMutability": "nonpayable",
      "type": "function"
    },
    {
      "inputs": [
        {
          "internalType": "address",
          "name": "wallet",
          "type": "address"
        },
        {
          "internalType": "uint256",
          "name": "eventCode",
          "type": "uint256"
        }
      ],
      "name": "addClientEvent",
      "outputs": [],
      "stateMutability": "nonpayable",
      "type": "function"
    },
    {
      "inputs": [
        {
          "internalType": "address",
          "name": "wallet",
          "type": "address"
        }
      ],
      "name": "getClient",
      "outputs": [
        {
          "internalType": "uint256",
          "name": "",
          "type": "uint256"
        },
        {
          "internalType": "uint256",
          "name": "",
          "type": "uint256"
        },
        {
          "internalType": "uint256",
          "name": "",
          "type": "uint256"
        },
        {
          "internalType": "uint256[]",
          "name": "",
          "type": "uint256[]"
        }
      ],
      "stateMutability": "view",
      "type": "function",
      "constant": true
    },
    {
      "inputs": [],
      "name": "getAddresses",
      "outputs": [
        {
          "internalType": "address[]",
          "name": "",
          "type": "address[]"
        }
      ],
      "stateMutability": "view",
      "type": "function",
      "constant": true
    },
    {
      "inputs": [
        {
          "internalType": "address",
          "name": "wallet",
          "type": "address"
        }
      ],
      "name": "saveCreditEvent",
      "outputs": [],
      "stateMutability": "nonpayable",
      "type": "function"
    },
    {
      "inputs": [
        {
          "internalType": "address",
          "name": "wallet",
          "type": "address"
        },
        {
          "internalType": "uint256",
          "name": "index",
          "type": "uint256"
        }
      ],
      "name": "getCreditEvent",
      "outputs": [
        {
          "internalType": "int256",
          "name": "",
          "type": "int256"
        },
        {
          "internalType": "uint256",
          "name": "",
          "type": "uint256"
        }
      ],
      "stateMutability": "view",
      "type": "function",
      "constant": true
    },
    {
      "inputs": [
        {
          "internalType": "address",
          "name": "wallet",
          "type": "address"
        }
      ],
      "name": "gainExperience",
      "outputs": [],
      "stateMutability": "nonpayable",
      "type": "function"
    },
    {
      "inputs": [
        {
          "internalType": "address",
          "name": "wallet",
          "type": "address"
        }
      ],
      "name": "calculateCreditScore",
      "outputs": [
        {
          "internalType": "int256",
          "name": "",
          "type": "int256"
        }
      ],
      "stateMutability": "nonpayable",
      "type": "function"
    },
    {
      "inputs": [
        {
          "internalType": "int256",
          "name": "score",
          "type": "int256"
        },
        {
          "internalType": "address",
          "name": "wallet",
          "type": "address"
        }
      ],
      "name": "addScore",
      "outputs": [],
      "stateMutability": "nonpayable",
      "type": "function"
    },
    {
      "inputs": [
        {
          "internalType": "address",
          "name": "wallet",
          "type": "address"
        }
      ],
      "name": "calculateWorkerContribution",
      "outputs": [
        {
          "internalType": "int256",
          "name": "",
          "type": "int256"
        }
      ],
      "stateMutability": "view",
      "type": "function",
      "constant": true
    },
    {
      "inputs": [
        {
          "internalType": "address",
          "name": "reviewer",
          "type": "address"
        }
      ],
      "name": "calculateReviewerContribution",
      "outputs": [
        {
          "internalType": "int256",
          "name": "",
          "type": "int256"
        }
      ],
      "stateMutability": "view",
      "type": "function",
      "constant": true
    },
    {
      "inputs": [
        {
          "internalType": "address",
          "name": "wallet",
          "type": "address"
        }
      ],
      "name": "getClientScore",
      "outputs": [
        {
          "internalType": "int256",
          "name": "",
          "type": "int256"
        }
      ],
      "stateMutability": "view",
      "type": "function",
      "constant": true
    }
  ],
  "bytecode": "0x608060405234801561001057600080fd5b5061273f806100206000396000f3fe608060405234801561001057600080fd5b50600436106101005760003560e01c8063ab27e6a411610097578063e541c71e11610066578063e541c71e146102ed578063e77d01b41461030b578063edf26d9b14610327578063f1c3753a1461035757610100565b8063ab27e6a414610241578063c40ddfcf14610271578063ce398c66146102a1578063e18ada0a146102d157610100565b80637b9f63e3116100d35780637b9f63e3146101a35780639e4fa74d146101d4578063a0e32870146101f0578063a39fac121461022357610100565b806343928cfd1461010557806361eed2a914610121578063640af44b1461015657806376dd110f14610172575b600080fd5b61011f600480360381019061011a9190611be5565b610387565b005b61013b60048036038101906101369190611be5565b61051b565b60405161014d96959493929190611c5f565b60405180910390f35b610170600480360381019061016b9190611be5565b610564565b005b61018c60048036038101906101879190611be5565b6108cc565b60405161019a929190611cc0565b60405180910390f35b6101bd60048036038101906101b89190611d15565b6108f0565b6040516101cb929190611cc0565b60405180910390f35b6101ee60048036038101906101e99190611d81565b610a21565b005b61020a60048036038101906102059190611be5565b610a8d565b60405161021a9493929190611e7f565b60405180910390f35b61022b610bfc565b6040516102389190611f89565b60405180910390f35b61025b60048036038101906102569190611be5565b610c8a565b6040516102689190611fab565b60405180910390f35b61028b60048036038101906102869190611be5565b610cd5565b6040516102989190611fab565b60405180910390f35b6102bb60048036038101906102b69190611be5565b6113d6565b6040516102c89190611fab565b60405180910390f35b6102eb60048036038101906102e69190611d15565b6116bb565b005b6102f561176b565b6040516103029190611fc6565b60405180910390f35b61032560048036038101906103209190611be5565b611771565b005b610341600480360381019061033c9190611fe1565b61185b565b60405161034e919061201d565b60405180910390f35b610371600480360381019061036c9190611be5565b61189a565b60405161037e9190611fab565b60405180910390f35b6000808273ffffffffffffffffffffffffffffffffffffffff1673ffffffffffffffffffffffffffffffffffffffff16815260200190815260200160002060070160009054906101000a900460ff166105185760008060008373ffffffffffffffffffffffffffffffffffffffff1673ffffffffffffffffffffffffffffffffffffffff168152602001908152602001600020905060018160070160006101000a81548160ff02191690831515021790555060018160000181905550600081600101819055506001600561045b9190612067565b81600201819055506001829080600181540180825580915050600190039060005260206000200160009091909190916101000a81548173ffffffffffffffffffffffffffffffffffffffff021916908373ffffffffffffffffffffffffffffffffffffffff1602179055507f45b026660e6fac7f61f349e5009e399bca6f61d5ddf60e2b0f9180b94134e15b33838360000154846001015485600201548660030160405161050e96959493929190612197565b60405180910390a1505b50565b60006020528060005260406000206000915090508060000154908060010154908060020154908060060154908060070160009054906101000a900460ff16908060080154905086565b60008060008373ffffffffffffffffffffffffffffffffffffffff1673ffffffffffffffffffffffffffffffffffffffff1681526020019081526020016000206003018054806020026020016040519081016040528092919081815260200182805480156105f157602002820191906000526020600020905b8154815260200190600101908083116105dd575b505050505090506000815190506000806000806000805b868110156106eb576001888281518110610625576106246121ff565b5b6020026020010151141561064257858061063e9061222e565b9650505b6002888281518110610657576106566121ff565b5b602002602001015114156106745784806106709061222e565b9550505b6003888281518110610689576106886121ff565b5b602002602001015114156106a65783806106a29061222e565b9450505b60048882815181106106bb576106ba6121ff565b5b602002602001015114156106d85782806106d49061222e565b9350505b80806106e390612277565b915050610608565b507ffffffffffffffffffffffffffffffffffffffffffffffffffffffffffffffff68261071891906122c0565b60038461072591906122c0565b60038661073291906122c0565b60018861073f91906122c0565b61074991906123d7565b61075391906123d7565b61075d91906123d7565b9050600060405180604001604052808381526020014281525090506000808a73ffffffffffffffffffffffffffffffffffffffff1673ffffffffffffffffffffffffffffffffffffffff1681526020019081526020016000206004018190806001815401808255809150506001900390600052602060002090600202016000909190919091506000820151816000015560208201518160010155505060056000808b73ffffffffffffffffffffffffffffffffffffffff1673ffffffffffffffffffffffffffffffffffffffff1681526020019081526020016000206004018054905011156108c1576000808a73ffffffffffffffffffffffffffffffffffffffff1673ffffffffffffffffffffffffffffffffffffffff1681526020019081526020016000206004018054806108975761089661246b565b5b60019003818190600052602060002090600202016000808201600090556001820160009055505090555b505050505050505050565b60026020528060005260406000206000915090508060000154908060010154905082565b6000806000808573ffffffffffffffffffffffffffffffffffffffff1673ffffffffffffffffffffffffffffffffffffffff16815260200190815260200160002060040180549050831015610a12576000808573ffffffffffffffffffffffffffffffffffffffff1673ffffffffffffffffffffffffffffffffffffffff1681526020019081526020016000206004018381548110610992576109916121ff565b5b9060005260206000209060020201600001546000808673ffffffffffffffffffffffffffffffffffffffff1673ffffffffffffffffffffffffffffffffffffffff16815260200190815260200160002060040184815481106109f7576109f66121ff565b5b90600052602060002090600202016001015491509150610a1a565b600080915091505b9250929050565b6000808273ffffffffffffffffffffffffffffffffffffffff1673ffffffffffffffffffffffffffffffffffffffff1681526020019081526020016000206005018290806001815401808255809150506001900390600052602060002001600090919091909150555050565b600080600060606000808673ffffffffffffffffffffffffffffffffffffffff1673ffffffffffffffffffffffffffffffffffffffff168152602001908152602001600020600001546000808773ffffffffffffffffffffffffffffffffffffffff1673ffffffffffffffffffffffffffffffffffffffff168152602001908152602001600020600101546000808873ffffffffffffffffffffffffffffffffffffffff1673ffffffffffffffffffffffffffffffffffffffff168152602001908152602001600020600201546000808973ffffffffffffffffffffffffffffffffffffffff1673ffffffffffffffffffffffffffffffffffffffff16815260200190815260200160002060030180805480602002602001604051908101604052809291908181526020018280548015610be657602002820191906000526020600020905b815481526020019060010190808311610bd2575b5050505050905093509350935093509193509193565b60606001805480602002602001604051908101604052809291908181526020018280548015610c8057602002820191906000526020600020905b8160009054906101000a900473ffffffffffffffffffffffffffffffffffffffff1673ffffffffffffffffffffffffffffffffffffffff1681526020019060010190808311610c36575b5050505050905090565b60008060008373ffffffffffffffffffffffffffffffffffffffff1673ffffffffffffffffffffffffffffffffffffffff168152602001908152602001600020600801549050919050565b600080600090506000806000805b600180549050811015611399576000805b60008060018581548110610d0b57610d0a6121ff565b5b9060005260206000200160009054906101000a900473ffffffffffffffffffffffffffffffffffffffff1673ffffffffffffffffffffffffffffffffffffffff1673ffffffffffffffffffffffffffffffffffffffff16815260200190815260200160002060050180549050811015610e3a5760008060018581548110610d9557610d946121ff565b5b9060005260206000200160009054906101000a900473ffffffffffffffffffffffffffffffffffffffff1673ffffffffffffffffffffffffffffffffffffffff1673ffffffffffffffffffffffffffffffffffffffff1681526020019081526020016000206005018181548110610e0f57610e0e6121ff565b5b906000526020600020015482610e2591906123d7565b91508080610e3290612277565b915050610cf4565b50600080600060018581548110610e5457610e536121ff565b5b9060005260206000200160009054906101000a900473ffffffffffffffffffffffffffffffffffffffff1673ffffffffffffffffffffffffffffffffffffffff1673ffffffffffffffffffffffffffffffffffffffff168152602001908152602001600020600501600460008060018781548110610ed557610ed46121ff565b5b9060005260206000200160009054906101000a900473ffffffffffffffffffffffffffffffffffffffff1673ffffffffffffffffffffffffffffffffffffffff1673ffffffffffffffffffffffffffffffffffffffff16815260200190815260200160002060050180549050610f4b91906124c9565b81548110610f5c57610f5b6121ff565b5b90600052602060002001549050600080600060018681548110610f8257610f816121ff565b5b9060005260206000200160009054906101000a900473ffffffffffffffffffffffffffffffffffffffff1673ffffffffffffffffffffffffffffffffffffffff1673ffffffffffffffffffffffffffffffffffffffff168152602001908152602001600020600501600260008060018881548110611003576110026121ff565b5b9060005260206000200160009054906101000a900473ffffffffffffffffffffffffffffffffffffffff1673ffffffffffffffffffffffffffffffffffffffff1673ffffffffffffffffffffffffffffffffffffffff1681526020019081526020016000206005018054905061107991906124c9565b8154811061108a576110896121ff565b5b906000526020600020015490506000806000600187815481106110b0576110af6121ff565b5b9060005260206000200160009054906101000a900473ffffffffffffffffffffffffffffffffffffffff1673ffffffffffffffffffffffffffffffffffffffff1673ffffffffffffffffffffffffffffffffffffffff1681526020019081526020016000206005016003600460008060018a81548110611133576111326121ff565b5b9060005260206000200160009054906101000a900473ffffffffffffffffffffffffffffffffffffffff1673ffffffffffffffffffffffffffffffffffffffff1673ffffffffffffffffffffffffffffffffffffffff168152602001908152602001600020600501805490506111a991906124c9565b6111b39190612067565b815481106111c4576111c36121ff565b5b90600052602060002001549050600083826111df91906124fa565b905080846111ed91906124fa565b60008060018981548110611204576112036121ff565b5b9060005260206000200160009054906101000a900473ffffffffffffffffffffffffffffffffffffffff1673ffffffffffffffffffffffffffffffffffffffff1673ffffffffffffffffffffffffffffffffffffffff1681526020019081526020016000206006015412156112995761129283828661128391906124fa565b61128d91906124fa565b611b60565b9750611369565b80836112a591906123d7565b600080600189815481106112bc576112bb6121ff565b5b9060005260206000200160009054906101000a900473ffffffffffffffffffffffffffffffffffffffff1673ffffffffffffffffffffffffffffffffffffffff1673ffffffffffffffffffffffffffffffffffffffff1681526020019081526020016000206006015413156113515761134a83828461133b91906123d7565b61134591906124fa565b611b60565b9750611368565b611365838661136091906124fa565b611b60565b97505b5b87891215611375578798505b878a1315611381578799505b5050505050808061139190612277565b915050610ce3565b5083836113a691906124fa565b84836113b291906124fa565b6113bc919061258e565b60016113c891906124fa565b905080945050505050919050565b6000806000808473ffffffffffffffffffffffffffffffffffffffff1673ffffffffffffffffffffffffffffffffffffffff16815260200190815260200160002060050160046000808673ffffffffffffffffffffffffffffffffffffffff1673ffffffffffffffffffffffffffffffffffffffff1681526020019081526020016000206005018054905061146b91906124c9565b8154811061147c5761147b6121ff565b5b9060005260206000200154905060008060008573ffffffffffffffffffffffffffffffffffffffff1673ffffffffffffffffffffffffffffffffffffffff16815260200190815260200160002060050160026000808773ffffffffffffffffffffffffffffffffffffffff1673ffffffffffffffffffffffffffffffffffffffff1681526020019081526020016000206005018054905061151d91906124c9565b8154811061152e5761152d6121ff565b5b9060005260206000200154905060008060008673ffffffffffffffffffffffffffffffffffffffff1673ffffffffffffffffffffffffffffffffffffffff168152602001908152602001600020600501600360046000808973ffffffffffffffffffffffffffffffffffffffff1673ffffffffffffffffffffffffffffffffffffffff168152602001908152602001600020600501805490506115d191906124c9565b6115db9190612067565b815481106115ec576115eb6121ff565b5b906000526020600020015490506000838261160791906124fa565b9050808461161591906124fa565b6000808873ffffffffffffffffffffffffffffffffffffffff1673ffffffffffffffffffffffffffffffffffffffff1681526020019081526020016000206006015412806116ae5750808361166a91906123d7565b6000808873ffffffffffffffffffffffffffffffffffffffff1673ffffffffffffffffffffffffffffffffffffffff16815260200190815260200160002060060154135b5082945050505050919050565b60008060008473ffffffffffffffffffffffffffffffffffffffff1673ffffffffffffffffffffffffffffffffffffffff1681526020019081526020016000209050806003018290806001815401808255809150506001900390600052602060002001600090919091909150557f4623bfdf7f94027680e54d901618685599c74155a2144332d16508726becf64483838360030160405161175e939291906125f8565b60405180910390a1505050565b60035481565b60008060008373ffffffffffffffffffffffffffffffffffffffff1673ffffffffffffffffffffffffffffffffffffffff168152602001908152602001600020905060016000808473ffffffffffffffffffffffffffffffffffffffff1673ffffffffffffffffffffffffffffffffffffffff168152602001908152602001600020600101546118019190612636565b81600101819055508060020154816001015414156118575780600001600081548092919061182e90612277565b9190505550600181600001546118449190612067565b8160020181905550600081600101819055505b5050565b6001818154811061186b57600080fd5b906000526020600020016000915054906101000a900473ffffffffffffffffffffffffffffffffffffffff1681565b6000806000808473ffffffffffffffffffffffffffffffffffffffff1673ffffffffffffffffffffffffffffffffffffffff168152602001908152602001600020604051806101200160405290816000820154815260200160018201548152602001600282015481526020016003820180548060200260200160405190810160405280929190818152602001828054801561195457602002820191906000526020600020905b815481526020019060010190808311611940575b5050505050815260200160048201805480602002602001604051908101604052809291908181526020016000905b828210156119c857838290600052602060002090600202016040518060400160405290816000820154815260200160018201548152505081526020019060010190611982565b50505050815260200160058201805480602002602001604051908101604052809291908181526020018280548015611a1f57602002820191906000526020600020905b815481526020019060010190808311611a0b575b50505050508152602001600682015481526020016007820160009054906101000a900460ff16151515158152602001600882015481525050905060008161010001818152505060005b816080015151811015611b51576201518042611a84919061268c565b82608001518281518110611a9b57611a9a6121ff565b5b6020026020010151602001511115611b3e576201518082608001518281518110611ac857611ac76121ff565b5b60200260200101516020015142611adf91906124fa565b6201518084608001518481518110611afa57611af96121ff565b5b602002602001015160000151611b1091906122c0565b611b1a91906124fa565b611b24919061258e565b8261010001818151611b3691906123d7565b915081815250505b8080611b4990612277565b915050611a68565b50806101000151915050919050565b600080821215611b795781611b74906126c0565b611b7b565b815b9050919050565b600080fd5b600073ffffffffffffffffffffffffffffffffffffffff82169050919050565b6000611bb282611b87565b9050919050565b611bc281611ba7565b8114611bcd57600080fd5b50565b600081359050611bdf81611bb9565b92915050565b600060208284031215611bfb57611bfa611b82565b5b6000611c0984828501611bd0565b91505092915050565b6000819050919050565b611c2581611c12565b82525050565b6000819050919050565b611c3e81611c2b565b82525050565b60008115159050919050565b611c5981611c44565b82525050565b600060c082019050611c746000830189611c1c565b611c816020830188611c1c565b611c8e6040830187611c1c565b611c9b6060830186611c35565b611ca86080830185611c50565b611cb560a0830184611c35565b979650505050505050565b6000604082019050611cd56000830185611c35565b611ce26020830184611c1c565b9392505050565b611cf281611c12565b8114611cfd57600080fd5b50565b600081359050611d0f81611ce9565b92915050565b60008060408385031215611d2c57611d2b611b82565b5b6000611d3a85828601611bd0565b9250506020611d4b85828601611d00565b9150509250929050565b611d5e81611c2b565b8114611d6957600080fd5b50565b600081359050611d7b81611d55565b92915050565b60008060408385031215611d9857611d97611b82565b5b6000611da685828601611d6c565b9250506020611db785828601611bd0565b9150509250929050565b600081519050919050565b600082825260208201905092915050565b6000819050602082019050919050565b611df681611c12565b82525050565b6000611e088383611ded565b60208301905092915050565b6000602082019050919050565b6000611e2c82611dc1565b611e368185611dcc565b9350611e4183611ddd565b8060005b83811015611e72578151611e598882611dfc565b9750611e6483611e14565b925050600181019050611e45565b5085935050505092915050565b6000608082019050611e946000830187611c1c565b611ea16020830186611c1c565b611eae6040830185611c1c565b8181036060830152611ec08184611e21565b905095945050505050565b600081519050919050565b600082825260208201905092915050565b6000819050602082019050919050565b611f0081611ba7565b82525050565b6000611f128383611ef7565b60208301905092915050565b6000602082019050919050565b6000611f3682611ecb565b611f408185611ed6565b9350611f4b83611ee7565b8060005b83811015611f7c578151611f638882611f06565b9750611f6e83611f1e565b925050600181019050611f4f565b5085935050505092915050565b60006020820190508181036000830152611fa38184611f2b565b905092915050565b6000602082019050611fc06000830184611c35565b92915050565b6000602082019050611fdb6000830184611c1c565b92915050565b600060208284031215611ff757611ff6611b82565b5b600061200584828501611d00565b91505092915050565b61201781611ba7565b82525050565b6000602082019050612032600083018461200e565b92915050565b7f4e487b7100000000000000000000000000000000000000000000000000000000600052601160045260246000fd5b600061207282611c12565b915061207d83611c12565b9250817fffffffffffffffffffffffffffffffffffffffffffffffffffffffffffffffff04831182151516156120b6576120b5612038565b5b828202905092915050565b600081549050919050565b60008190508160005260206000209050919050565b60008160001c9050919050565b6000819050919050565b600061210b612106836120e1565b6120ee565b9050919050565b600061211e82546120f8565b9050919050565b6000600182019050919050565b600061213d826120c1565b6121478185611dcc565b9350612152836120cc565b8060005b8381101561218a5761216782612112565b6121718882611dfc565b975061217c83612125565b925050600181019050612156565b5085935050505092915050565b600060c0820190506121ac600083018961200e565b6121b9602083018861200e565b6121c66040830187611c1c565b6121d36060830186611c1c565b6121e06080830185611c1c565b81810360a08301526121f28184612132565b9050979650505050505050565b7f4e487b7100000000000000000000000000000000000000000000000000000000600052603260045260246000fd5b600061223982611c2b565b91507f7fffffffffffffffffffffffffffffffffffffffffffffffffffffffffffffff82141561226c5761226b612038565b5b600182019050919050565b600061228282611c12565b91507fffffffffffffffffffffffffffffffffffffffffffffffffffffffffffffffff8214156122b5576122b4612038565b5b600182019050919050565b60006122cb82611c2b565b91506122d683611c2b565b9250827f7fffffffffffffffffffffffffffffffffffffffffffffffffffffffffffffff048211600084136000841316161561231557612314612038565b5b817f8000000000000000000000000000000000000000000000000000000000000000058312600084126000841316161561235257612351612038565b5b827f8000000000000000000000000000000000000000000000000000000000000000058212600084136000841216161561238f5761238e612038565b5b827f7fffffffffffffffffffffffffffffffffffffffffffffffffffffffffffffff05821260008412600084121616156123cc576123cb612038565b5b828202905092915050565b60006123e282611c2b565b91506123ed83611c2b565b9250817f7fffffffffffffffffffffffffffffffffffffffffffffffffffffffffffffff0383136000831215161561242857612427612038565b5b817f80000000000000000000000000000000000000000000000000000000000000000383126000831216156124605761245f612038565b5b828201905092915050565b7f4e487b7100000000000000000000000000000000000000000000000000000000600052603160045260246000fd5b7f4e487b7100000000000000000000000000000000000000000000000000000000600052601260045260246000fd5b60006124d482611c12565b91506124df83611c12565b9250826124ef576124ee61249a565b5b828204905092915050565b600061250582611c2b565b915061251083611c2b565b9250827f80000000000000000000000000000000000000000000000000000000000000000182126000841215161561254b5761254a612038565b5b827f7fffffffffffffffffffffffffffffffffffffffffffffffffffffffffffffff01821360008412161561258357612582612038565b5b828203905092915050565b600061259982611c2b565b91506125a483611c2b565b9250826125b4576125b361249a565b5b600160000383147f8000000000000000000000000000000000000000000000000000000000000000831416156125ed576125ec612038565b5b828205905092915050565b600060608201905061260d600083018661200e565b61261a6020830185611c1c565b818103604083015261262c8184612132565b9050949350505050565b600061264182611c12565b915061264c83611c12565b9250827fffffffffffffffffffffffffffffffffffffffffffffffffffffffffffffffff0382111561268157612680612038565b5b828201905092915050565b600061269782611c12565b91506126a283611c12565b9250828210156126b5576126b4612038565b5b828203905092915050565b60006126cb82611c2b565b91507f80000000000000000000000000000000000000000000000000000000000000008214156126fe576126fd612038565b5b81600003905091905056fea26469706673582212200dce2170cefc4a2489db3b46075a362a92c3efa265042ab9336742eff781e95a64736f6c634300080c0033",
  "immutableReferences": {},
  "source": "// SPDX-License-Identifier: MIT\r\npragma solidity >=0.8;\r\n\r\n// import \"hardhat/console.sol\";\r\ncontract Admin {\r\n    // Client model\r\n    uint constant JOIN_EVENT = 1;\r\n    uint constant TRAIN_EVENT = 2;\r\n    uint constant EVAL_EVENT = 3;\r\n    uint constant PUNISH_EVENT = 4;\r\n    int constant JOIN_VALUE = 1;\r\n    int constant TRAIN_VALUE = 3;\r\n    int constant EVAL_VALUE = 3;\r\n    int constant PUNISH_VALUE = -10;\r\n    uint constant STARTING_LEVEL = 1;\r\n    uint constant STARTING_EXPERIENCE = 0;\r\n    uint constant EXPIRE_TIME = 86400;\r\n    uint constant EXP_MULTIPLIER = 5;\r\n    uint constant MAX_EVENTS = 5;\r\n\r\n    struct Client {\r\n        uint level;\r\n        uint experience;\r\n        uint experienceNext;\r\n        uint[] events;\r\n        CumulativeScore[] scores;\r\n        \r\n        int[] trainingScores;\r\n        int prevClaimScore;\r\n        bool isExist;\r\n        int creditScore;\r\n    }\r\n\r\n    struct CumulativeScore {\r\n        int score;\r\n        uint time;\r\n    }\r\n    //clients\r\n    mapping(address => Client) public clients;\r\n    //clientList\r\n    address[] public addresses; \r\n    //score\r\n    mapping(address => CumulativeScore) public scores;\r\n    event clientAdded(address sender, address wallet, uint256 level, uint256 experience, uint256 experienceNext, uint[] events);\r\n    event clientAddedEvent(address sender, uint eventCode, uint[] events);\r\n    // Store client Count\r\n    uint public clientCount;\r\n    function addClient (address wallet) public {\r\n        if (!clients[wallet].isExist) {\r\n            Client storage client  = clients[wallet];\r\n            client.isExist = true;\r\n            client.level = STARTING_LEVEL;\r\n            client.experience = STARTING_EXPERIENCE;\r\n            client.experienceNext = EXP_MULTIPLIER * STARTING_LEVEL;\r\n            addresses.push(wallet);\r\n            emit clientAdded(msg.sender, wallet, client.level, client.experience, client.experienceNext, client.events);\r\n        }\r\n    }\r\n    function addClientEvent (address wallet, uint eventCode) public {\r\n        \r\n        Client storage client  = clients[wallet];\r\n        client.events.push(eventCode);\r\n        emit clientAddedEvent(wallet, eventCode, client.events);\r\n    }\r\n    function getClient (address wallet) public view returns (uint256, uint256, uint256, uint[] memory) {\r\n        return (clients[wallet].level, clients[wallet].experience, clients[wallet].experienceNext, clients[wallet].events);\r\n    }\r\n    function getAddresses () public view returns (address[] memory) {\r\n        return addresses;\r\n    }\r\n    function saveCreditEvent (address wallet) public {\r\n        // require a valid client\r\n        uint[] memory creditEventScores = clients[wallet].events;\r\n        uint length = creditEventScores.length;\r\n        int countJoin = 0; \r\n        int countTrain = 0;\r\n        int countEval = 0;\r\n        int countPunish = 0;\r\n        int total = 0;\r\n        for(uint i=0;i<length;i++){\r\n            if (creditEventScores[i] == JOIN_EVENT) {\r\n                countJoin++;\r\n            }\r\n            if (creditEventScores[i] == TRAIN_EVENT) {\r\n                countTrain++;\r\n            }\r\n            if (creditEventScores[i] == EVAL_EVENT) {\r\n                countEval++;\r\n            }\r\n            if (creditEventScores[i] == PUNISH_EVENT) {\r\n                countPunish++;\r\n            }\r\n        }\r\n        total = countJoin * JOIN_VALUE + countTrain * TRAIN_VALUE + countEval * EVAL_VALUE + countPunish * PUNISH_VALUE;\r\n        CumulativeScore memory cScore =  CumulativeScore(total,block.timestamp);\r\n        clients[wallet].scores.push(cScore);\r\n        if (clients[wallet].scores.length > MAX_EVENTS) {\r\n            clients[wallet].scores.pop();\r\n        }\r\n    }\r\n    function getCreditEvent (address wallet, uint index) public view returns (int, uint) {\r\n        if (index < clients[wallet].scores.length)\r\n            return (clients[wallet].scores[index].score, clients[wallet].scores[index].time);\r\n        return (0,0);\r\n    }\r\n    function gainExperience (address wallet) public {\r\n        //increment experience\r\n        Client storage client  = clients[wallet];\r\n        client.experience = clients[wallet].experience + 1;\r\n        //check if enough exp to lv up, client gains level\r\n        if (client.experience == client.experienceNext) {\r\n            client.level++;\r\n            client.experienceNext = client.level * STARTING_LEVEL;\r\n            client.experience = 0;\r\n        }\r\n    }\r\n    function calculateCreditScore (address wallet) public returns (int) {\r\n        Client memory client  = clients[wallet];\r\n        client.creditScore = 0;\r\n        for (uint256 index = 0; index < client.scores.length; index++) {\r\n            if (client.scores[index].time > (block.timestamp - EXPIRE_TIME)){\r\n            client.creditScore += (client.scores[index].score * int(EXPIRE_TIME) - (int(block.timestamp) - int(client.scores[index].time))) / int(EXPIRE_TIME);\r\n            }\r\n        }\r\n        return client.creditScore;\r\n    }\r\n    function addScore(int score, address wallet) public {\r\n        clients[wallet].trainingScores.push(score);\r\n    }\r\n    function calculateWorkerContribution(address wallet) public view returns (int) {\r\n        int firstQuarter = clients[wallet].trainingScores[clients[wallet].trainingScores.length/4];\r\n        int secondQuarter = clients[wallet].trainingScores[clients[wallet].trainingScores.length/2];\r\n        int thirdQuarter = clients[wallet].trainingScores[clients[wallet].trainingScores.length/4*3];\r\n        int interQuarter = thirdQuarter - firstQuarter;\r\n        if (clients[wallet].prevClaimScore < (firstQuarter - interQuarter) || clients[wallet].prevClaimScore > (secondQuarter + interQuarter)) {\r\n\r\n        }\r\n        return secondQuarter;\r\n    }\r\n    function calculateReviewerContribution(address reviewer) public view returns (int) {\r\n        int minDifference = 0;\r\n        int maxDifference = 0;\r\n        int difference = 0;\r\n        int normalDifference = 0;\r\n        for (uint256 index = 0; index < addresses.length; index++) {\r\n            int total = 0;\r\n            for (uint256 j = 0; j < clients[addresses[index]].trainingScores.length; j++) {  \r\n                total += clients[addresses[index]].trainingScores[j];\r\n            }\r\n            int firstQuarter = clients[addresses[index]].trainingScores[clients[addresses[index]].trainingScores.length/4];\r\n            int secondQuarter = clients[addresses[index]].trainingScores[clients[addresses[index]].trainingScores.length/2];\r\n            int thirdQuarter = clients[addresses[index]].trainingScores[clients[addresses[index]].trainingScores.length/4*3];\r\n            int interQuarter = thirdQuarter - firstQuarter;\r\n            if (clients[addresses[index]].prevClaimScore < (firstQuarter - interQuarter)) {\r\n                difference = abs((firstQuarter - interQuarter) - secondQuarter);\r\n            } else if (clients[addresses[index]].prevClaimScore > (secondQuarter + interQuarter)) {\r\n                difference = abs((thirdQuarter + interQuarter) - secondQuarter);\r\n            } else {\r\n                difference = abs(total - secondQuarter);\r\n            }\r\n            if (maxDifference < difference) {\r\n                maxDifference = difference;\r\n            }\r\n            if (minDifference > difference) {\r\n                minDifference = difference;\r\n            }\r\n        }\r\n        normalDifference = 1 - ((difference - minDifference)/(maxDifference - minDifference));\r\n        return normalDifference;\r\n    }\r\n    function abs(int x) private pure returns (int) {\r\n        return x >= 0 ? x : -x;\r\n    }\r\n    function getClientScore (address wallet) public view returns (int) {\r\n        return clients[wallet].creditScore;\r\n    }\r\n}\r\n",
  "sourcePath": "/apps/election/contracts/Admin.sol",
  "compiler": {
    "name": "solc",
    "version": "0.8.12+commit.f00d7308.Emscripten.clang"
  },
  "schemaVersion": "3.4.4",
  "updatedAt": "2022-02-28T08:36:32.204Z",
  "networkType": "ethereum",
  "devdoc": {
    "kind": "dev",
    "methods": {},
    "version": 1
  },
  "userdoc": {
    "kind": "user",
    "methods": {},
    "version": 1
  }
}