{
  "contractName": "Admin",
  "abi": [
    {
      "inputs": [],
      "stateMutability": "nonpayable",
      "type": "constructor"
    },
    {
      "anonymous": false,
      "inputs": [
        {
          "indexed": false,
          "internalType": "address",
          "name": "sender",
          "type": "address"
        },
        {
          "indexed": false,
          "internalType": "address",
          "name": "wallet",
          "type": "address"
        },
        {
          "indexed": false,
          "internalType": "uint256",
          "name": "level",
          "type": "uint256"
        },
        {
          "indexed": false,
          "internalType": "uint256",
          "name": "experience",
          "type": "uint256"
        },
        {
          "indexed": false,
          "internalType": "uint256",
          "name": "experienceNext",
          "type": "uint256"
        },
        {
          "indexed": false,
          "internalType": "uint256[]",
          "name": "events",
          "type": "uint256[]"
        }
      ],
      "name": "clientAdded",
      "type": "event"
    },
    {
      "anonymous": false,
      "inputs": [
        {
          "indexed": false,
          "internalType": "address",
          "name": "sender",
          "type": "address"
        },
        {
          "indexed": false,
          "internalType": "uint256",
          "name": "eventCode",
          "type": "uint256"
        },
        {
          "indexed": false,
          "internalType": "uint256[]",
          "name": "events",
          "type": "uint256[]"
        }
      ],
      "name": "clientAddedEvent",
      "type": "event"
    },
    {
      "inputs": [
        {
          "internalType": "uint256",
          "name": "",
          "type": "uint256"
        }
      ],
      "name": "addresses",
      "outputs": [
        {
          "internalType": "address",
          "name": "",
          "type": "address"
        }
      ],
      "stateMutability": "view",
      "type": "function",
      "constant": true
    },
    {
      "inputs": [],
      "name": "clientCount",
      "outputs": [
        {
          "internalType": "uint256",
          "name": "",
          "type": "uint256"
        }
      ],
      "stateMutability": "view",
      "type": "function",
      "constant": true
    },
    {
      "inputs": [
        {
          "internalType": "address",
          "name": "",
          "type": "address"
        }
      ],
      "name": "clients",
      "outputs": [
        {
          "internalType": "uint256",
          "name": "level",
          "type": "uint256"
        },
        {
          "internalType": "uint256",
          "name": "experience",
          "type": "uint256"
        },
        {
          "internalType": "uint256",
          "name": "experienceNext",
          "type": "uint256"
        },
        {
          "internalType": "bool",
          "name": "isExist",
          "type": "bool"
        },
        {
          "internalType": "int256",
          "name": "creditScore",
          "type": "int256"
        }
      ],
      "stateMutability": "view",
      "type": "function",
      "constant": true
    },
    {
      "inputs": [
        {
          "internalType": "address",
          "name": "",
          "type": "address"
        }
      ],
      "name": "scores",
      "outputs": [
        {
          "internalType": "int256",
          "name": "score",
          "type": "int256"
        },
        {
          "internalType": "uint256",
          "name": "time",
          "type": "uint256"
        }
      ],
      "stateMutability": "view",
      "type": "function",
      "constant": true
    },
    {
      "inputs": [
        {
          "internalType": "address",
          "name": "wallet",
          "type": "address"
        }
      ],
      "name": "addClient",
      "outputs": [],
      "stateMutability": "nonpayable",
      "type": "function"
    },
    {
      "inputs": [
        {
          "internalType": "address",
          "name": "wallet",
          "type": "address"
        },
        {
          "internalType": "uint256",
          "name": "eventCode",
          "type": "uint256"
        }
      ],
      "name": "addClientEvent",
      "outputs": [],
      "stateMutability": "nonpayable",
      "type": "function"
    },
    {
      "inputs": [
        {
          "internalType": "address",
          "name": "wallet",
          "type": "address"
        }
      ],
      "name": "getClient",
      "outputs": [
        {
          "internalType": "uint256",
          "name": "",
          "type": "uint256"
        },
        {
          "internalType": "uint256",
          "name": "",
          "type": "uint256"
        },
        {
          "internalType": "uint256",
          "name": "",
          "type": "uint256"
        },
        {
          "internalType": "uint256[]",
          "name": "",
          "type": "uint256[]"
        }
      ],
      "stateMutability": "view",
      "type": "function",
      "constant": true
    },
    {
      "inputs": [],
      "name": "getAddresses",
      "outputs": [
        {
          "internalType": "address[]",
          "name": "",
          "type": "address[]"
        }
      ],
      "stateMutability": "view",
      "type": "function",
      "constant": true
    },
    {
      "inputs": [
        {
          "internalType": "address",
          "name": "wallet",
          "type": "address"
        }
      ],
      "name": "saveCreditEvent",
      "outputs": [],
      "stateMutability": "nonpayable",
      "type": "function"
    },
    {
      "inputs": [
        {
          "internalType": "address",
          "name": "wallet",
          "type": "address"
        }
      ],
      "name": "gainExperience",
      "outputs": [],
      "stateMutability": "nonpayable",
      "type": "function"
    },
    {
      "inputs": [
        {
          "internalType": "address",
          "name": "wallet",
          "type": "address"
        }
      ],
      "name": "calculateCreditScore",
      "outputs": [],
      "stateMutability": "nonpayable",
      "type": "function"
    }
  ],
  "bytecode": "0x608060405234801561001057600080fd5b506114f1806100206000396000f3fe608060405234801561001057600080fd5b50600436106100a95760003560e01c8063a39fac1211610071578063a39fac121461017e578063e18ada0a1461019c578063e541c71e146101b8578063e77d01b4146101d6578063edf26d9b146101f2578063f1c3753a14610222576100a9565b806343928cfd146100ae57806361eed2a9146100ca578063640af44b146100fe57806376dd110f1461011a578063a0e328701461014b575b600080fd5b6100c860048036038101906100c39190610c02565b61023e565b005b6100e460048036038101906100df9190610c02565b6103d2565b6040516100f5959493929190610c7c565b60405180910390f35b61011860048036038101906101139190610c02565b610415565b005b610134600480360381019061012f9190610c02565b6106b5565b604051610142929190610ccf565b60405180910390f35b61016560048036038101906101609190610c02565b6106d9565b6040516101759493929190610db6565b60405180910390f35b610186610848565b6040516101939190610ec0565b60405180910390f35b6101b660048036038101906101b19190610f0e565b6108d6565b005b6101c0610986565b6040516101cd9190610f4e565b60405180910390f35b6101f060048036038101906101eb9190610c02565b61098c565b005b61020c60048036038101906102079190610f69565b610a76565b6040516102199190610fa5565b60405180910390f35b61023c60048036038101906102379190610c02565b610ab5565b005b6000808273ffffffffffffffffffffffffffffffffffffffff1673ffffffffffffffffffffffffffffffffffffffff16815260200190815260200160002060050160009054906101000a900460ff166103cf5760008060008373ffffffffffffffffffffffffffffffffffffffff1673ffffffffffffffffffffffffffffffffffffffff168152602001908152602001600020905060018160050160006101000a81548160ff0219169083151502179055506001816000018190555060008160010181905550600160056103129190610fef565b81600201819055506001829080600181540180825580915050600190039060005260206000200160009091909190916101000a81548173ffffffffffffffffffffffffffffffffffffffff021916908373ffffffffffffffffffffffffffffffffffffffff1602179055507f45b026660e6fac7f61f349e5009e399bca6f61d5ddf60e2b0f9180b94134e15b3383836000015484600101548560020154866003016040516103c59695949392919061111f565b60405180910390a1505b50565b60006020528060005260406000206000915090508060000154908060010154908060020154908060050160009054906101000a900460ff16908060060154905085565b60008060008373ffffffffffffffffffffffffffffffffffffffff1673ffffffffffffffffffffffffffffffffffffffff1681526020019081526020016000206003018054806020026020016040519081016040528092919081815260200182805480156104a257602002820191906000526020600020905b81548152602001906001019080831161048e575b505050505090506000815190506000806000806000805b8681101561059c5760018882815181106104d6576104d5611187565b5b602002602001015114156104f35785806104ef906111b6565b9650505b600288828151811061050857610507611187565b5b60200260200101511415610525578480610521906111b6565b9550505b600388828151811061053a57610539611187565b5b60200260200101511415610557578380610553906111b6565b9450505b600488828151811061056c5761056b611187565b5b60200260200101511415610589578280610585906111b6565b9350505b8080610594906111ff565b9150506104b9565b507ffffffffffffffffffffffffffffffffffffffffffffffffffffffffffffffff6826105c99190611248565b6003846105d69190611248565b6003866105e39190611248565b6001886105f09190611248565b6105fa919061135f565b610604919061135f565b61060e919061135f565b9050600060405180604001604052808381526020014281525090506000808a73ffffffffffffffffffffffffffffffffffffffff1673ffffffffffffffffffffffffffffffffffffffff16815260200190815260200160002060040181908060018154018082558091505060019003906000526020600020906002020160009091909190915060008201518160000155602082015181600101555050505050505050505050565b60026020528060005260406000206000915090508060000154908060010154905082565b600080600060606000808673ffffffffffffffffffffffffffffffffffffffff1673ffffffffffffffffffffffffffffffffffffffff168152602001908152602001600020600001546000808773ffffffffffffffffffffffffffffffffffffffff1673ffffffffffffffffffffffffffffffffffffffff168152602001908152602001600020600101546000808873ffffffffffffffffffffffffffffffffffffffff1673ffffffffffffffffffffffffffffffffffffffff168152602001908152602001600020600201546000808973ffffffffffffffffffffffffffffffffffffffff1673ffffffffffffffffffffffffffffffffffffffff1681526020019081526020016000206003018080548060200260200160405190810160405280929190818152602001828054801561083257602002820191906000526020600020905b81548152602001906001019080831161081e575b5050505050905093509350935093509193509193565b606060018054806020026020016040519081016040528092919081815260200182805480156108cc57602002820191906000526020600020905b8160009054906101000a900473ffffffffffffffffffffffffffffffffffffffff1673ffffffffffffffffffffffffffffffffffffffff1681526020019060010190808311610882575b5050505050905090565b60008060008473ffffffffffffffffffffffffffffffffffffffff1673ffffffffffffffffffffffffffffffffffffffff1681526020019081526020016000209050806003018290806001815401808255809150506001900390600052602060002001600090919091909150557f4623bfdf7f94027680e54d901618685599c74155a2144332d16508726becf644838383600301604051610979939291906113f3565b60405180910390a1505050565b60035481565b60008060008373ffffffffffffffffffffffffffffffffffffffff1673ffffffffffffffffffffffffffffffffffffffff168152602001908152602001600020905060016000808473ffffffffffffffffffffffffffffffffffffffff1673ffffffffffffffffffffffffffffffffffffffff16815260200190815260200160002060010154610a1c9190611431565b8160010181905550806002015481600101541415610a7257806000016000815480929190610a49906111ff565b919050555060018160000154610a5f9190610fef565b8160020181905550600081600101819055505b5050565b60018181548110610a8657600080fd5b906000526020600020016000915054906101000a900473ffffffffffffffffffffffffffffffffffffffff1681565b6000808060008473ffffffffffffffffffffffffffffffffffffffff1673ffffffffffffffffffffffffffffffffffffffff168152602001908152602001600020905060005b8160040180549050811015610b90576201518042610b199190611487565b826004018281548110610b2f57610b2e611187565b5b9060005260206000209060020201600101541115610b7d57816004018181548110610b5d57610b5c611187565b5b90600052602060002090600202016000015483610b7a919061135f565b92505b8080610b88906111ff565b915050610afb565b50818160060181905550505050565b600080fd5b600073ffffffffffffffffffffffffffffffffffffffff82169050919050565b6000610bcf82610ba4565b9050919050565b610bdf81610bc4565b8114610bea57600080fd5b50565b600081359050610bfc81610bd6565b92915050565b600060208284031215610c1857610c17610b9f565b5b6000610c2684828501610bed565b91505092915050565b6000819050919050565b610c4281610c2f565b82525050565b60008115159050919050565b610c5d81610c48565b82525050565b6000819050919050565b610c7681610c63565b82525050565b600060a082019050610c916000830188610c39565b610c9e6020830187610c39565b610cab6040830186610c39565b610cb86060830185610c54565b610cc56080830184610c6d565b9695505050505050565b6000604082019050610ce46000830185610c6d565b610cf16020830184610c39565b9392505050565b600081519050919050565b600082825260208201905092915050565b6000819050602082019050919050565b610d2d81610c2f565b82525050565b6000610d3f8383610d24565b60208301905092915050565b6000602082019050919050565b6000610d6382610cf8565b610d6d8185610d03565b9350610d7883610d14565b8060005b83811015610da9578151610d908882610d33565b9750610d9b83610d4b565b925050600181019050610d7c565b5085935050505092915050565b6000608082019050610dcb6000830187610c39565b610dd86020830186610c39565b610de56040830185610c39565b8181036060830152610df78184610d58565b905095945050505050565b600081519050919050565b600082825260208201905092915050565b6000819050602082019050919050565b610e3781610bc4565b82525050565b6000610e498383610e2e565b60208301905092915050565b6000602082019050919050565b6000610e6d82610e02565b610e778185610e0d565b9350610e8283610e1e565b8060005b83811015610eb3578151610e9a8882610e3d565b9750610ea583610e55565b925050600181019050610e86565b5085935050505092915050565b60006020820190508181036000830152610eda8184610e62565b905092915050565b610eeb81610c2f565b8114610ef657600080fd5b50565b600081359050610f0881610ee2565b92915050565b60008060408385031215610f2557610f24610b9f565b5b6000610f3385828601610bed565b9250506020610f4485828601610ef9565b9150509250929050565b6000602082019050610f636000830184610c39565b92915050565b600060208284031215610f7f57610f7e610b9f565b5b6000610f8d84828501610ef9565b91505092915050565b610f9f81610bc4565b82525050565b6000602082019050610fba6000830184610f96565b92915050565b7f4e487b7100000000000000000000000000000000000000000000000000000000600052601160045260246000fd5b6000610ffa82610c2f565b915061100583610c2f565b9250817fffffffffffffffffffffffffffffffffffffffffffffffffffffffffffffffff048311821515161561103e5761103d610fc0565b5b828202905092915050565b600081549050919050565b60008190508160005260206000209050919050565b60008160001c9050919050565b6000819050919050565b600061109361108e83611069565b611076565b9050919050565b60006110a68254611080565b9050919050565b6000600182019050919050565b60006110c582611049565b6110cf8185610d03565b93506110da83611054565b8060005b83811015611112576110ef8261109a565b6110f98882610d33565b9750611104836110ad565b9250506001810190506110de565b5085935050505092915050565b600060c0820190506111346000830189610f96565b6111416020830188610f96565b61114e6040830187610c39565b61115b6060830186610c39565b6111686080830185610c39565b81810360a083015261117a81846110ba565b9050979650505050505050565b7f4e487b7100000000000000000000000000000000000000000000000000000000600052603260045260246000fd5b60006111c182610c63565b91507f7fffffffffffffffffffffffffffffffffffffffffffffffffffffffffffffff8214156111f4576111f3610fc0565b5b600182019050919050565b600061120a82610c2f565b91507fffffffffffffffffffffffffffffffffffffffffffffffffffffffffffffffff82141561123d5761123c610fc0565b5b600182019050919050565b600061125382610c63565b915061125e83610c63565b9250827f7fffffffffffffffffffffffffffffffffffffffffffffffffffffffffffffff048211600084136000841316161561129d5761129c610fc0565b5b817f800000000000000000000000000000000000000000000000000000000000000005831260008412600084131616156112da576112d9610fc0565b5b827f8000000000000000000000000000000000000000000000000000000000000000058212600084136000841216161561131757611316610fc0565b5b827f7fffffffffffffffffffffffffffffffffffffffffffffffffffffffffffffff058212600084126000841216161561135457611353610fc0565b5b828202905092915050565b600061136a82610c63565b915061137583610c63565b9250817f7fffffffffffffffffffffffffffffffffffffffffffffffffffffffffffffff038313600083121516156113b0576113af610fc0565b5b817f80000000000000000000000000000000000000000000000000000000000000000383126000831216156113e8576113e7610fc0565b5b828201905092915050565b60006060820190506114086000830186610f96565b6114156020830185610c39565b818103604083015261142781846110ba565b9050949350505050565b600061143c82610c2f565b915061144783610c2f565b9250827fffffffffffffffffffffffffffffffffffffffffffffffffffffffffffffffff0382111561147c5761147b610fc0565b5b828201905092915050565b600061149282610c2f565b915061149d83610c2f565b9250828210156114b0576114af610fc0565b5b82820390509291505056fea26469706673582212206c59dc270ce8ade128ad533e1c17ee01390cb2a93f23bbc8060b56ce9484d96164736f6c634300080c0033",
  "immutableReferences": {},
  "source": "// SPDX-License-Identifier: MIT\r\npragma solidity >=0.8;\r\n\r\n// import \"hardhat/console.sol\";\r\ncontract Admin {\r\n    // Client model\r\n    uint constant JOIN_EVENT = 1;\r\n    uint constant TRAIN_EVENT = 2;\r\n    uint constant EVAL_EVENT = 3;\r\n    uint constant PUNISH_EVENT = 4;\r\n    int constant JOIN_VALUE = 1;\r\n    int constant TRAIN_VALUE = 3;\r\n    int constant EVAL_VALUE = 3;\r\n    int constant PUNISH_VALUE = -10;\r\n    uint constant STARTING_LEVEL = 1;\r\n    uint constant STARTING_EXPERIENCE = 0;\r\n    uint constant\r\n    EXPIRE_TIME = 86400;\r\n    uint constant EXP_MULTIPLIER = 5;\r\n    uint constant MAX_EVENTS = 5;\r\n\r\n    struct Client {\r\n        uint level;\r\n        uint experience;\r\n        uint experienceNext;\r\n        uint[] events;\r\n        CumulativeScore[] scores;\r\n        bool isExist;\r\n        int creditScore;\r\n    }\r\n\r\n    struct CumulativeScore {\r\n        int score;\r\n        uint time;\r\n    }\r\n\r\n    //clients\r\n    mapping(address => Client) public clients;\r\n\r\n    //clientList\r\n    address[] public addresses; \r\n    //score\r\n    mapping(address => CumulativeScore) public scores;\r\n    \r\n    event clientAdded(address sender, address wallet, uint256 level, uint256 experience, uint256 experienceNext, uint[] events);\r\n    event clientAddedEvent(address sender, uint eventCode, uint[] events);\r\n\r\n    // Store client Count\r\n    uint public clientCount;\r\n\r\n    constructor () public {\r\n    }\r\n    function addClient (address wallet) public {\r\n        if (!clients[wallet].isExist) {\r\n            Client storage client  = clients[wallet];\r\n            client.isExist = true;\r\n            client.level = STARTING_LEVEL;\r\n            client.experience = STARTING_EXPERIENCE;\r\n            client.experienceNext = EXP_MULTIPLIER * STARTING_LEVEL;\r\n            addresses.push(wallet);\r\n            emit clientAdded(msg.sender, wallet, client.level, client.experience, client.experienceNext, client.events);\r\n        }\r\n    }\r\n    function addClientEvent (address wallet, uint eventCode) public {\r\n        \r\n        Client storage client  = clients[wallet];\r\n        client.events.push(eventCode);\r\n        emit clientAddedEvent(wallet, eventCode, client.events);\r\n    }\r\n\r\n    function getClient (address wallet) public view returns (uint256, uint256, uint256, uint[] memory) {\r\n        return (clients[wallet].level, clients[wallet].experience, clients[wallet].experienceNext, clients[wallet].events);\r\n    }\r\n    function getAddresses () public view returns (address[] memory) {\r\n        return addresses;\r\n    }\r\n    \r\n    function saveCreditEvent (address wallet) public {\r\n        // require a valid client\r\n        uint[] memory creditEventScores = clients[wallet].events;\r\n        uint length = creditEventScores.length;\r\n        int countJoin = 0; \r\n        int countTrain = 0;\r\n        int countEval = 0;\r\n        int countPunish = 0;\r\n        int total = 0;\r\n        for(uint i=0;i<length;i++){\r\n            if (creditEventScores[i] == JOIN_EVENT) {\r\n                countJoin++;\r\n            }\r\n            if (creditEventScores[i] == TRAIN_EVENT) {\r\n                countTrain++;\r\n            }\r\n            if (creditEventScores[i] == EVAL_EVENT) {\r\n                countEval++;\r\n            }\r\n            if (creditEventScores[i] == PUNISH_EVENT) {\r\n                countPunish++;\r\n            }\r\n        }\r\n        total = countJoin * JOIN_VALUE + countTrain * TRAIN_VALUE + countEval * EVAL_VALUE + countPunish * PUNISH_VALUE;\r\n        CumulativeScore memory cScore =  CumulativeScore(total,block.timestamp);\r\n        clients[wallet].scores.push(cScore);\r\n\r\n    }\r\n\r\n    function gainExperience (address wallet) public {\r\n        //increment experience\r\n        Client storage client  = clients[wallet];\r\n        client.experience = clients[wallet].experience + 1;\r\n        //check if enough exp to lv up, client gains level\r\n        if (client.experience == client.experienceNext) {\r\n            client.level++;\r\n            client.experienceNext = client.level * STARTING_LEVEL;\r\n            client.experience = 0;\r\n        }\r\n    }\r\n\r\n    function calculateCreditScore (address wallet) public {\r\n        \r\n        int total = 0;\r\n        Client storage client  = clients[wallet];\r\n        for (uint256 index = 0; index < client.scores.length; index++) {\r\n            if (client.scores[index].time > (block.timestamp - EXPIRE_TIME)){\r\n                total += client.scores[index].score;\r\n            }    \r\n        }\r\n        client.creditScore = total;\r\n    }\r\n\r\n}\r\n",
  "sourcePath": "/apps/election/contracts/Admin.sol",
  "compiler": {
    "name": "solc",
    "version": "0.8.12+commit.f00d7308.Emscripten.clang"
  },
  "schemaVersion": "3.4.4",
  "updatedAt": "2022-02-22T07:31:03.540Z",
  "networkType": "ethereum",
  "devdoc": {
    "kind": "dev",
    "methods": {},
    "version": 1
  },
  "userdoc": {
    "kind": "user",
    "methods": {},
    "version": 1
  }
}