{
  "contractName": "Election",
  "abi": [
    {
      "inputs": [],
      "stateMutability": "nonpayable",
      "type": "constructor"
    },
    {
      "anonymous": false,
      "inputs": [
        {
          "indexed": true,
          "internalType": "uint256",
          "name": "_candidateId",
          "type": "uint256"
        }
      ],
      "name": "votedEvent",
      "type": "event"
    },
    {
      "stateMutability": "nonpayable",
      "type": "fallback"
    },
    {
      "inputs": [
        {
          "internalType": "uint256",
          "name": "",
          "type": "uint256"
        }
      ],
      "name": "addressList",
      "outputs": [
        {
          "internalType": "address",
          "name": "",
          "type": "address"
        }
      ],
      "stateMutability": "view",
      "type": "function",
      "constant": true
    },
    {
      "inputs": [
        {
          "internalType": "address",
          "name": "",
          "type": "address"
        }
      ],
      "name": "candidates",
      "outputs": [
        {
          "internalType": "uint256",
          "name": "id",
          "type": "uint256"
        },
        {
          "internalType": "string",
          "name": "name",
          "type": "string"
        },
        {
          "internalType": "uint256",
          "name": "score",
          "type": "uint256"
        },
        {
          "internalType": "address",
          "name": "addr",
          "type": "address"
        },
        {
          "internalType": "uint256",
          "name": "reputation",
          "type": "uint256"
        },
        {
          "internalType": "uint256",
          "name": "accuracy",
          "type": "uint256"
        },
        {
          "internalType": "bool",
          "name": "isMalicious",
          "type": "bool"
        },
        {
          "internalType": "bool",
          "name": "isVoter",
          "type": "bool"
        },
        {
          "internalType": "bool",
          "name": "isTrainer",
          "type": "bool"
        },
        {
          "internalType": "bool",
          "name": "isBanned",
          "type": "bool"
        },
        {
          "internalType": "int256",
          "name": "totalGwei",
          "type": "int256"
        }
      ],
      "stateMutability": "view",
      "type": "function",
      "constant": true
    },
    {
      "inputs": [],
      "name": "candidatesCount",
      "outputs": [
        {
          "internalType": "uint256",
          "name": "",
          "type": "uint256"
        }
      ],
      "stateMutability": "view",
      "type": "function",
      "constant": true
    },
    {
      "inputs": [],
      "name": "globalAccuracy",
      "outputs": [
        {
          "internalType": "uint256",
          "name": "",
          "type": "uint256"
        }
      ],
      "stateMutability": "view",
      "type": "function",
      "constant": true
    },
    {
      "inputs": [
        {
          "internalType": "address",
          "name": "",
          "type": "address"
        }
      ],
      "name": "voters",
      "outputs": [
        {
          "internalType": "bool",
          "name": "",
          "type": "bool"
        }
      ],
      "stateMutability": "view",
      "type": "function",
      "constant": true
    },
    {
      "inputs": [
        {
          "internalType": "address",
          "name": "",
          "type": "address"
        },
        {
          "internalType": "uint256",
          "name": "",
          "type": "uint256"
        }
      ],
      "name": "votes",
      "outputs": [
        {
          "internalType": "address",
          "name": "voter",
          "type": "address"
        },
        {
          "internalType": "uint256",
          "name": "value",
          "type": "uint256"
        }
      ],
      "stateMutability": "view",
      "type": "function",
      "constant": true
    },
    {
      "inputs": [
        {
          "internalType": "address payable",
          "name": "_addr",
          "type": "address"
        }
      ],
      "name": "send",
      "outputs": [],
      "stateMutability": "payable",
      "type": "function",
      "payable": true
    },
    {
      "inputs": [
        {
          "internalType": "string",
          "name": "_name",
          "type": "string"
        },
        {
          "internalType": "address",
          "name": "addr",
          "type": "address"
        },
        {
          "internalType": "uint256",
          "name": "reputation",
          "type": "uint256"
        },
        {
          "internalType": "bool",
          "name": "isMalicious",
          "type": "bool"
        },
        {
          "internalType": "bool",
          "name": "isVoter",
          "type": "bool"
        },
        {
          "internalType": "bool",
          "name": "isTrainer",
          "type": "bool"
        }
      ],
      "name": "addCandidate",
      "outputs": [],
      "stateMutability": "nonpayable",
      "type": "function"
    },
    {
      "inputs": [],
      "name": "clearCandidates",
      "outputs": [],
      "stateMutability": "nonpayable",
      "type": "function"
    },
    {
      "inputs": [],
      "name": "calculateReputation",
      "outputs": [],
      "stateMutability": "nonpayable",
      "type": "function"
    },
    {
      "inputs": [
        {
          "internalType": "uint256",
          "name": "accuracy",
          "type": "uint256"
        }
      ],
      "name": "setGlobalAccuracy",
      "outputs": [],
      "stateMutability": "nonpayable",
      "type": "function"
    },
    {
      "inputs": [
        {
          "internalType": "address",
          "name": "addr",
          "type": "address"
        },
        {
          "internalType": "uint256",
          "name": "reputation",
          "type": "uint256"
        }
      ],
      "name": "setReputation",
      "outputs": [],
      "stateMutability": "nonpayable",
      "type": "function"
    },
    {
      "inputs": [
        {
          "internalType": "uint256",
          "name": "id",
          "type": "uint256"
        },
        {
          "internalType": "address",
          "name": "addr",
          "type": "address"
        },
        {
          "internalType": "uint256",
          "name": "accuracy",
          "type": "uint256"
        },
        {
          "internalType": "string",
          "name": "trainingHash",
          "type": "string"
        },
        {
          "internalType": "string",
          "name": "ipfsAddress",
          "type": "string"
        }
      ],
      "name": "submitModel",
      "outputs": [],
      "stateMutability": "nonpayable",
      "type": "function"
    },
    {
      "inputs": [
        {
          "internalType": "address",
          "name": "trainerAddr",
          "type": "address"
        },
        {
          "internalType": "address",
          "name": "voterAddr",
          "type": "address"
        },
        {
          "internalType": "uint256",
          "name": "value",
          "type": "uint256"
        }
      ],
      "name": "submitVote",
      "outputs": [],
      "stateMutability": "nonpayable",
      "type": "function"
    },
    {
      "inputs": [
        {
          "internalType": "uint256",
          "name": "id",
          "type": "uint256"
        },
        {
          "internalType": "address",
          "name": "addr",
          "type": "address"
        },
        {
          "internalType": "uint256",
          "name": "eventCode",
          "type": "uint256"
        }
      ],
      "name": "addClientEvent",
      "outputs": [],
      "stateMutability": "nonpayable",
      "type": "function"
    },
    {
      "inputs": [
        {
          "internalType": "address",
          "name": "addr",
          "type": "address"
        },
        {
          "internalType": "int256",
          "name": "_gwei",
          "type": "int256"
        }
      ],
      "name": "setGwei",
      "outputs": [],
      "stateMutability": "nonpayable",
      "type": "function"
    },
    {
      "inputs": [
        {
          "internalType": "address payable",
          "name": "_to",
          "type": "address"
        }
      ],
      "name": "sendViaTransfer",
      "outputs": [],
      "stateMutability": "payable",
      "type": "function",
      "payable": true
    },
    {
      "inputs": [
        {
          "internalType": "address payable",
          "name": "_to",
          "type": "address"
        }
      ],
      "name": "sendEther",
      "outputs": [],
      "stateMutability": "payable",
      "type": "function",
      "payable": true
    },
    {
      "inputs": [
        {
          "internalType": "address payable",
          "name": "_to",
          "type": "address"
        }
      ],
      "name": "sendViaSend",
      "outputs": [],
      "stateMutability": "payable",
      "type": "function",
      "payable": true
    },
    {
      "inputs": [
        {
          "internalType": "uint256",
          "name": "_candidateIdTarget",
          "type": "uint256"
        },
        {
          "internalType": "address",
          "name": "addr",
          "type": "address"
        },
        {
          "internalType": "uint256",
          "name": "_candidateIdVoter",
          "type": "uint256"
        }
      ],
      "name": "vote",
      "outputs": [],
      "stateMutability": "nonpayable",
      "type": "function"
    }
  ],
  "bytecode": "0x608060405260326000556028600155600060025534801561001f57600080fd5b506032600481905550611fc9806100376000396000f3fe6080604052600436106101235760003560e01c80638ab66a90116100a0578063a5c4e06c11610064578063a5c4e06c1461039f578063a7406f77146103c8578063b120c16a146103f1578063b810fb431461041a578063fc1bfb901461045757610124565b80638ab66a901461028b5780639886ab1e146102d25780639d2b5e43146102fb5780639f2524ee14610324578063a3ec138d1461036257610124565b80634de8737c116100e75780634de8737c146101e85780635392e04c146102115780635c179f7e1461023c578063636e082b1461025357806374be48061461026f57610124565b8063021f46721461013357806319df6af01461015c5780632d35a8a2146101855780633e58c58c146101b057806348c981e2146101cc57610124565b5b34801561013057600080fd5b50005b34801561013f57600080fd5b5061015a60048036038101906101559190611764565b61046e565b005b34801561016857600080fd5b50610183600480360381019061017e919061182b565b61057a565b005b34801561019157600080fd5b5061019a61098e565b6040516101a79190611b3a565b60405180910390f35b6101ca60048036038101906101c5919061173b565b610994565b005b6101e660048036038101906101e1919061173b565b610a48565b005b3480156101f457600080fd5b5061020f600480360381019061020a91906118f5565b610aa0565b005b34801561021d57600080fd5b50610226610c24565b6040516102339190611b3a565b60405180910390f35b34801561024857600080fd5b50610251610c2a565b005b61026d6004803603810190610268919061173b565b610dd8565b005b6102896004803603810190610284919061173b565b610e22565b005b34801561029757600080fd5b506102b260048036038101906102ad9190611712565b610e9f565b6040516102c99b9a99989796959493929190611b55565b60405180910390f35b3480156102de57600080fd5b506102f960048036038101906102f491906117b3565b610fd5565b005b34801561030757600080fd5b50610322600480360381019061031d9190611944565b611026565b005b34801561033057600080fd5b5061034b600480360381019061034691906117ef565b6110f6565b604051610359929190611ad6565b60405180910390f35b34801561036e57600080fd5b5061038960048036038101906103849190611712565b611157565b6040516103969190611aff565b60405180910390f35b3480156103ab57600080fd5b506103c660048036038101906103c191906118f5565b611177565b005b3480156103d457600080fd5b506103ef60048036038101906103ea91906118cc565b6111eb565b005b3480156103fd57600080fd5b50610418600480360381019061041391906117ef565b6111f5565b005b34801561042657600080fd5b50610441600480360381019061043c91906118cc565b611246565b60405161044e9190611abb565b60405180910390f35b34801561046357600080fd5b5061046c611285565b005b61047661141b565b82816000019073ffffffffffffffffffffffffffffffffffffffff16908173ffffffffffffffffffffffffffffffffffffffff168152505081816020018181525050600360008573ffffffffffffffffffffffffffffffffffffffff1673ffffffffffffffffffffffffffffffffffffffff16815260200190815260200160002081908060018154018082558091505060019003906000526020600020906002020160009091909190915060008201518160000160006101000a81548173ffffffffffffffffffffffffffffffffffffffff021916908373ffffffffffffffffffffffffffffffffffffffff16021790555060208201518160010155505050505050565b6007600081548092919061058d90611e0d565b91905055506008859080600181540180825580915050600190039060005260206000200160009091909190916101000a81548173ffffffffffffffffffffffffffffffffffffffff021916908373ffffffffffffffffffffffffffffffffffffffff160217905550604051806101c00160405280600754815260200187815260200160025481526020018673ffffffffffffffffffffffffffffffffffffffff168152602001858152602001600a67ffffffffffffffff81111561067a577f4e487b7100000000000000000000000000000000000000000000000000000000600052604160045260246000fd5b6040519080825280602002602001820160405280156106a85781602001602082028036833780820191505090505b50815260200160008152602001600a67ffffffffffffffff8111156106f6577f4e487b7100000000000000000000000000000000000000000000000000000000600052604160045260246000fd5b60405190808252806020026020018201604052801561072957816020015b60608152602001906001900390816107145790505b508152602001600a67ffffffffffffffff811115610770577f4e487b7100000000000000000000000000000000000000000000000000000000600052604160045260246000fd5b6040519080825280602002602001820160405280156107a357816020015b606081526020019060019003908161078e5790505b508152602001841515815260200183151581526020018215158152602001600015158152602001624c4b40815250600660008773ffffffffffffffffffffffffffffffffffffffff1673ffffffffffffffffffffffffffffffffffffffff16815260200190815260200160002060008201518160000155602082015181600101908051906020019061083692919061144b565b506040820151816002015560608201518160030160006101000a81548173ffffffffffffffffffffffffffffffffffffffff021916908373ffffffffffffffffffffffffffffffffffffffff1602179055506080820151816004015560a08201518160050190805190602001906108ae9291906114d1565b5060c0820151816006015560e08201518160070190805190602001906108d592919061151e565b506101008201518160080190805190602001906108f392919061151e565b506101208201518160090160006101000a81548160ff0219169083151502179055506101408201518160090160016101000a81548160ff0219169083151502179055506101608201518160090160026101000a81548160ff0219169083151502179055506101808201518160090160036101000a81548160ff0219169083151502179055506101a082015181600a0155905050505050505050565b60075481565b6000808273ffffffffffffffffffffffffffffffffffffffff1660c86040516109bc90611aa6565b60006040518083038185875af1925050503d80600081146109f9576040519150601f19603f3d011682016040523d82523d6000602084013e6109fe565b606091505b509150915081610a43576040517f08c379a0000000000000000000000000000000000000000000000000000000008152600401610a3a90611b1a565b60405180910390fd5b505050565b60008190508073ffffffffffffffffffffffffffffffffffffffff166108fc670de0b6b3a76400009081150290604051600060405180830381858888f19350505050158015610a9b573d6000803e3d6000fd5b505050565b600560003373ffffffffffffffffffffffffffffffffffffffff1673ffffffffffffffffffffffffffffffffffffffff16815260200190815260200160002060009054906101000a900460ff1615610af757600080fd5b600083118015610b075750600081115b8015610b1557506007548311155b8015610b2357506007548111155b610b2c57600080fd5b6001600560003373ffffffffffffffffffffffffffffffffffffffff1673ffffffffffffffffffffffffffffffffffffffff16815260200190815260200160002060006101000a81548160ff021916908315150217905550600660008373ffffffffffffffffffffffffffffffffffffffff1673ffffffffffffffffffffffffffffffffffffffff16815260200190815260200160002060040154600660008473ffffffffffffffffffffffffffffffffffffffff1673ffffffffffffffffffffffffffffffffffffffff1681526020019081526020016000206002016000828254610c189190611c84565b92505081905550505050565b60045481565b5b60006007541115610dd65760066000600860076000815480929190610c4f90611d80565b9190505581548110610c8a577f4e487b7100000000000000000000000000000000000000000000000000000000600052603260045260246000fd5b9060005260206000200160009054906101000a900473ffffffffffffffffffffffffffffffffffffffff1673ffffffffffffffffffffffffffffffffffffffff1673ffffffffffffffffffffffffffffffffffffffff168152602001908152602001600020600080820160009055600182016000610d08919061157e565b60028201600090556003820160006101000a81549073ffffffffffffffffffffffffffffffffffffffff02191690556004820160009055600582016000610d4f91906115be565b6006820160009055600782016000610d6791906115df565b600882016000610d7791906115df565b6009820160006101000a81549060ff02191690556009820160016101000a81549060ff02191690556009820160026101000a81549060ff02191690556009820160036101000a81549060ff0219169055600a8201600090555050610c2b565b565b8073ffffffffffffffffffffffffffffffffffffffff166108fc349081150290604051600060405180830381858888f19350505050158015610e1e573d6000803e3d6000fd5b5050565b60008173ffffffffffffffffffffffffffffffffffffffff166108fc349081150290604051600060405180830381858888f19350505050905080610e9b576040517f08c379a0000000000000000000000000000000000000000000000000000000008152600401610e9290611b1a565b60405180910390fd5b5050565b6006602052806000526040600020600091509050806000015490806001018054610ec890611daa565b80601f0160208091040260200160405190810160405280929190818152602001828054610ef490611daa565b8015610f415780601f10610f1657610100808354040283529160200191610f41565b820191906000526020600020905b815481529060010190602001808311610f2457829003601f168201915b5050505050908060020154908060030160009054906101000a900473ffffffffffffffffffffffffffffffffffffffff16908060040154908060060154908060090160009054906101000a900460ff16908060090160019054906101000a900460ff16908060090160029054906101000a900460ff16908060090160039054906101000a900460ff169080600a015490508b565b6000600660008473ffffffffffffffffffffffffffffffffffffffff1673ffffffffffffffffffffffffffffffffffffffff16815260200190815260200160002090508181600a0181905550505050565b6000600660008673ffffffffffffffffffffffffffffffffffffffff1673ffffffffffffffffffffffffffffffffffffffff168152602001908152602001600020905083816006018190555080600701839080600181540180825580915050600190039060005260206000200160009091909190915090805190602001906110af92919061144b565b5080600801829080600181540180825580915050600190039060005260206000200160009091909190915090805190602001906110ed92919061144b565b50505050505050565b6003602052816000526040600020818154811061111257600080fd5b9060005260206000209060020201600091509150508060000160009054906101000a900473ffffffffffffffffffffffffffffffffffffffff16908060010154905082565b60056020528060005260406000206000915054906101000a900460ff1681565b6000600660008473ffffffffffffffffffffffffffffffffffffffff1673ffffffffffffffffffffffffffffffffffffffff16815260200190815260200160002090508060050182908060018154018082558091505060019003906000526020600020016000909190919091505550505050565b8060048190555050565b6000600660008473ffffffffffffffffffffffffffffffffffffffff1673ffffffffffffffffffffffffffffffffffffffff1681526020019081526020016000209050818160040181905550505050565b6008818154811061125657600080fd5b906000526020600020016000915054906101000a900473ffffffffffffffffffffffffffffffffffffffff1681565b60005b6008805490508110156114185760015460066000600884815481106112d6577f4e487b7100000000000000000000000000000000000000000000000000000000600052603260045260246000fd5b9060005260206000200160009054906101000a900473ffffffffffffffffffffffffffffffffffffffff1673ffffffffffffffffffffffffffffffffffffffff1673ffffffffffffffffffffffffffffffffffffffff1681526020019081526020016000206004015410156114055760016006600060088481548110611385577f4e487b7100000000000000000000000000000000000000000000000000000000600052603260045260246000fd5b9060005260206000200160009054906101000a900473ffffffffffffffffffffffffffffffffffffffff1673ffffffffffffffffffffffffffffffffffffffff1673ffffffffffffffffffffffffffffffffffffffff16815260200190815260200160002060090160036101000a81548160ff0219169083151502179055505b808061141090611e0d565b915050611288565b50565b6040518060400160405280600073ffffffffffffffffffffffffffffffffffffffff168152602001600081525090565b82805461145790611daa565b90600052602060002090601f01602090048101928261147957600085556114c0565b82601f1061149257805160ff19168380011785556114c0565b828001600101855582156114c0579182015b828111156114bf5782518255916020019190600101906114a4565b5b5090506114cd9190611600565b5090565b82805482825590600052602060002090810192821561150d579160200282015b8281111561150c5782518255916020019190600101906114f1565b5b50905061151a9190611600565b5090565b82805482825590600052602060002090810192821561156d579160200282015b8281111561156c57825182908051906020019061155c92919061144b565b509160200191906001019061153e565b5b50905061157a919061161d565b5090565b50805461158a90611daa565b6000825580601f1061159c57506115bb565b601f0160209004906000526020600020908101906115ba9190611600565b5b50565b50805460008255906000526020600020908101906115dc9190611600565b50565b50805460008255906000526020600020908101906115fd919061161d565b50565b5b80821115611619576000816000905550600101611601565b5090565b5b8082111561163d5760008181611634919061157e565b5060010161161e565b5090565b600061165461164f84611c2c565b611c07565b90508281526020810184848401111561166c57600080fd5b611677848285611d3e565b509392505050565b60008135905061168e81611f20565b92915050565b6000813590506116a381611f37565b92915050565b6000813590506116b881611f4e565b92915050565b6000813590506116cd81611f65565b92915050565b600082601f8301126116e457600080fd5b81356116f4848260208601611641565b91505092915050565b60008135905061170c81611f7c565b92915050565b60006020828403121561172457600080fd5b60006117328482850161167f565b91505092915050565b60006020828403121561174d57600080fd5b600061175b84828501611694565b91505092915050565b60008060006060848603121561177957600080fd5b60006117878682870161167f565b93505060206117988682870161167f565b92505060406117a9868287016116fd565b9150509250925092565b600080604083850312156117c657600080fd5b60006117d48582860161167f565b92505060206117e5858286016116be565b9150509250929050565b6000806040838503121561180257600080fd5b60006118108582860161167f565b9250506020611821858286016116fd565b9150509250929050565b60008060008060008060c0878903121561184457600080fd5b600087013567ffffffffffffffff81111561185e57600080fd5b61186a89828a016116d3565b965050602061187b89828a0161167f565b955050604061188c89828a016116fd565b945050606061189d89828a016116a9565b93505060806118ae89828a016116a9565b92505060a06118bf89828a016116a9565b9150509295509295509295565b6000602082840312156118de57600080fd5b60006118ec848285016116fd565b91505092915050565b60008060006060848603121561190a57600080fd5b6000611918868287016116fd565b93505060206119298682870161167f565b925050604061193a868287016116fd565b9150509250925092565b600080600080600060a0868803121561195c57600080fd5b600061196a888289016116fd565b955050602061197b8882890161167f565b945050604061198c888289016116fd565b935050606086013567ffffffffffffffff8111156119a957600080fd5b6119b5888289016116d3565b925050608086013567ffffffffffffffff8111156119d257600080fd5b6119de888289016116d3565b9150509295509295909350565b6119f481611cda565b82525050565b611a0381611cfe565b82525050565b611a1281611d0a565b82525050565b6000611a2382611c5d565b611a2d8185611c73565b9350611a3d818560208601611d4d565b611a4681611ee3565b840191505092915050565b6000611a5e601483611c73565b9150611a6982611ef4565b602082019050919050565b6000611a81600083611c68565b9150611a8c82611f1d565b600082019050919050565b611aa081611d34565b82525050565b6000611ab182611a74565b9150819050919050565b6000602082019050611ad060008301846119eb565b92915050565b6000604082019050611aeb60008301856119eb565b611af86020830184611a97565b9392505050565b6000602082019050611b1460008301846119fa565b92915050565b60006020820190508181036000830152611b3381611a51565b9050919050565b6000602082019050611b4f6000830184611a97565b92915050565b600061016082019050611b6b600083018e611a97565b8181036020830152611b7d818d611a18565b9050611b8c604083018c611a97565b611b99606083018b6119eb565b611ba6608083018a611a97565b611bb360a0830189611a97565b611bc060c08301886119fa565b611bcd60e08301876119fa565b611bdb6101008301866119fa565b611be96101208301856119fa565b611bf7610140830184611a09565b9c9b505050505050505050505050565b6000611c11611c22565b9050611c1d8282611ddc565b919050565b6000604051905090565b600067ffffffffffffffff821115611c4757611c46611eb4565b5b611c5082611ee3565b9050602081019050919050565b600081519050919050565b600081905092915050565b600082825260208201905092915050565b6000611c8f82611d34565b9150611c9a83611d34565b9250827fffffffffffffffffffffffffffffffffffffffffffffffffffffffffffffffff03821115611ccf57611cce611e56565b5b828201905092915050565b6000611ce582611d14565b9050919050565b6000611cf782611d14565b9050919050565b60008115159050919050565b6000819050919050565b600073ffffffffffffffffffffffffffffffffffffffff82169050919050565b6000819050919050565b82818337600083830152505050565b60005b83811015611d6b578082015181840152602081019050611d50565b83811115611d7a576000848401525b50505050565b6000611d8b82611d34565b91506000821415611d9f57611d9e611e56565b5b600182039050919050565b60006002820490506001821680611dc257607f821691505b60208210811415611dd657611dd5611e85565b5b50919050565b611de582611ee3565b810181811067ffffffffffffffff82111715611e0457611e03611eb4565b5b80604052505050565b6000611e1882611d34565b91507fffffffffffffffffffffffffffffffffffffffffffffffffffffffffffffffff821415611e4b57611e4a611e56565b5b600182019050919050565b7f4e487b7100000000000000000000000000000000000000000000000000000000600052601160045260246000fd5b7f4e487b7100000000000000000000000000000000000000000000000000000000600052602260045260246000fd5b7f4e487b7100000000000000000000000000000000000000000000000000000000600052604160045260246000fd5b6000601f19601f8301169050919050565b7f4661696c656420746f2073656e64204574686572000000000000000000000000600082015250565b50565b611f2981611cda565b8114611f3457600080fd5b50565b611f4081611cec565b8114611f4b57600080fd5b50565b611f5781611cfe565b8114611f6257600080fd5b50565b611f6e81611d0a565b8114611f7957600080fd5b50565b611f8581611d34565b8114611f9057600080fd5b5056fea264697066735822122020c3df4fe30445b508bdda5ad358af0b1b0090d9f3a0cce216ed737ae7785d6064736f6c63430008010033",
  "immutableReferences": {},
  "source": "pragma solidity >=0.8.1;\r\n\r\ncontract Election {\r\n    // Model a Candidate\r\n    uint STARTING_REPUTATION = 50; \r\n    uint MINIMUM_REPUTATION = 40; \r\n    uint STARTING_VOTE_COUNT = 0; \r\n    struct Candidate {\r\n        uint id;\r\n        string name;\r\n        uint score;\r\n        address addr;\r\n        uint reputation;\r\n        uint[] events;\r\n        uint accuracy;\r\n        string[] trainingHashes;\r\n        string[] ipfsAddresses;\r\n        bool isMalicious;\r\n        bool isVoter;\r\n        bool isTrainer;\r\n        bool isBanned;\r\n        int totalGwei;\r\n    }\r\n    struct Vote {\r\n        address voter;\r\n        uint value;\r\n    }\r\n    mapping(address => Vote[]) public votes;\r\n\r\n    // Store accounts that have voted\r\n    uint public globalAccuracy;\r\n    mapping(address => bool) public voters;\r\n    // Store Candidates\r\n    // Fetch Candidate\r\n    mapping(address => Candidate) public candidates;\r\n    // Store Candidates Count\r\n    uint public candidatesCount;\r\n    address[] public addressList;\r\n\r\n    // voted event\r\n    event votedEvent (\r\n        uint indexed _candidateId\r\n    );\r\n\r\n    constructor () public {\r\n        globalAccuracy = 50;\r\n        // addCandidate(\"Candidate 1\",0x07E4bE8e931Ea6c7D694350552e127182a32f211);\r\n        // addCandidate(\"Candidate 2\",0x81baA2622dD9629B3b4e8d3451259DA04d1b31C8);\r\n    }\r\n    function send(address payable _addr) payable public {\r\n        // require(msg.value >= 1);\r\n        (bool sent, bytes memory data) = _addr.call{value: 200}(\"\");\r\n        require(sent, \"Failed to send Ether\");\r\n    }\r\n    fallback () external {\r\n    }\r\n    function addCandidate (string memory _name, address addr, uint reputation, bool isMalicious, bool isVoter, bool isTrainer) public {\r\n        candidatesCount ++;\r\n        addressList.push(addr);\r\n        candidates[addr] = Candidate(candidatesCount, _name, STARTING_VOTE_COUNT, addr, reputation, new uint[](10),0, new string[](10), new string[](10), isMalicious, isVoter, isTrainer, false, 5000000);\r\n    }\r\n\r\n    function clearCandidates () public{\r\n        while(candidatesCount > 0){\r\n            delete candidates[addressList[candidatesCount--]];\r\n        }\r\n    }\r\n    function calculateReputation () public {\r\n        for (uint256 index = 0; index < addressList.length; index++) {\r\n            if (candidates[addressList[index]].reputation < MINIMUM_REPUTATION){ \r\n                candidates[addressList[index]].isBanned = true;\r\n            }\r\n        }\r\n    }\r\n    function setGlobalAccuracy (uint accuracy) public {\r\n        globalAccuracy = accuracy;\r\n    }\r\n    function setReputation(address addr, uint reputation) public {\r\n        \r\n        Candidate storage candidate  = candidates[addr];\r\n        candidate.reputation = reputation;\r\n    }\r\n    function submitModel(uint id, address addr, uint accuracy, string memory trainingHash, string memory ipfsAddress) public {\r\n        \r\n        Candidate storage candidate  = candidates[addr];\r\n        candidate.accuracy = accuracy;\r\n        candidate.trainingHashes.push(trainingHash);\r\n        candidate.ipfsAddresses.push(ipfsAddress);\r\n    }\r\n    function submitVote(address trainerAddr, address voterAddr, uint value) public {\r\n        Vote memory vote;\r\n        vote.voter = voterAddr;\r\n        vote.value = value;\r\n        votes[trainerAddr].push(vote);\r\n    }\r\n    function addClientEvent (uint id, address addr, uint eventCode) public {\r\n        Candidate storage candidate  = candidates[addr];\r\n        candidate.events.push(eventCode);\r\n    } \r\n    function setGwei(address addr,int _gwei) public{\r\n        \r\n        Candidate storage candidate  = candidates[addr];\r\n        candidate.totalGwei = _gwei;\r\n    }\r\n     function sendViaTransfer(address payable _to) public payable {\r\n        // This function is no longer recommended for sending Ether.\r\n        _to.transfer(msg.value);\r\n    }\r\n\r\n    function sendEther(address payable _to) public payable {\r\n        // Send 1 ether to the contract\r\n        address payable receiver = payable(_to);\r\n        receiver.transfer(1 ether);\r\n    }\r\n    function sendViaSend(address payable _to) public payable {\r\n        // Send returns a boolean value indicating success or failure.\r\n        // This function is not recommended for sending Ether.\r\n        bool sent = _to.send(msg.value);\r\n        require(sent, \"Failed to send Ether\");\r\n    }\r\n\r\n    function vote (uint _candidateIdTarget, address addr, uint _candidateIdVoter) public {\r\n        // require that they haven't voted before\r\n        require(!voters[msg.sender]);\r\n\r\n        // require  valid candidates\r\n        require(_candidateIdTarget > 0 && _candidateIdVoter > 0 && _candidateIdTarget <= candidatesCount \r\n        && _candidateIdVoter <= candidatesCount);\r\n\r\n        // record that voter has voted\r\n        voters[msg.sender] = true;\r\n\r\n        // update candidate vote Count\r\n        candidates[addr].score += candidates[addr].reputation;\r\n\r\n        // trigger voted event\r\n        // emit votedEvent(_candidateIdVoter);\r\n    }\r\n    \r\n    // function sort(int[] memory arr) public pure returns (int[] memory) {\r\n    //     // quickSort(arr, uint(0), uint(data.length - 1));\r\n    //     sort_array(arr);\r\n    //     return arr;\r\n    // }\r\n    \r\n    // function quickSort(int[] memory arr, uint left, uint right) private pure {\r\n    //     uint i = left;\r\n    //     uint j = right;\r\n    //     if (i == j) return;\r\n    //     int pivot = arr[uint(left + (right - left) / 2)];\r\n    //     while (i <= j) {\r\n    //         while (arr[uint(i)] < pivot) i++;\r\n    //         while (pivot < arr[uint(j)]) j--;\r\n    //         if (i <= j) {\r\n    //             (arr[uint(i)], arr[uint(j)]) = (arr[uint(j)], arr[uint(i)]);\r\n    //             i++;\r\n    //             j--;\r\n    //         }\r\n    //     }\r\n    //     if (left < j)\r\n    //         quickSort(arr, left, j);\r\n    //     if (i < right)\r\n    //         quickSort(arr, i, right);\r\n    // }\r\n    // function sort_array(int[] memory arr) private pure returns (int[] memory) {\r\n    //     uint256 l = arr.length;\r\n    //     for(uint i = 0; i < l; i++) {\r\n    //         for(uint j = i+1; j < l ;j++) {\r\n    //             if(arr[i] > arr[j]) {\r\n    //                 int temp = arr[i];\r\n    //                 arr[i] = arr[j];\r\n    //                 arr[j] = temp;\r\n    //             }\r\n    //         }\r\n    //     }\r\n    //     return arr;\r\n    // }\r\n}\r\n",
  "sourcePath": "/apps/contracts/Election.sol",
  "compiler": {
    "name": "solc",
    "version": "0.8.1+commit.df193b15.Emscripten.clang"
  },
  "schemaVersion": "3.3.4",
  "updatedAt": "2023-07-05T14:01:09.343Z",
  "networkType": "ethereum",
  "devdoc": {
    "kind": "dev",
    "methods": {},
    "version": 1
  },
  "userdoc": {
    "kind": "user",
    "methods": {},
    "version": 1
  }
}