{
  "contractName": "Election",
  "abi": [
    {
      "constant": true,
      "inputs": [],
      "name": "candidatesCount",
      "outputs": [
        {
          "name": "",
          "type": "uint256"
        }
      ],
      "payable": false,
      "stateMutability": "view",
      "type": "function"
    },
    {
      "constant": true,
      "inputs": [],
      "name": "globalAccuracy",
      "outputs": [
        {
          "name": "",
          "type": "uint256"
        }
      ],
      "payable": false,
      "stateMutability": "view",
      "type": "function"
    },
    {
      "constant": true,
      "inputs": [
        {
          "name": "",
          "type": "address"
        }
      ],
      "name": "candidates",
      "outputs": [
        {
          "name": "id",
          "type": "uint256"
        },
        {
          "name": "name",
          "type": "string"
        },
        {
          "name": "score",
          "type": "uint256"
        },
        {
          "name": "addr",
          "type": "address"
        },
        {
          "name": "reputation",
          "type": "uint256"
        },
        {
          "name": "accuracy",
          "type": "uint256"
        },
        {
          "name": "isMalicious",
          "type": "bool"
        },
        {
          "name": "isVoter",
          "type": "bool"
        },
        {
          "name": "isBanned",
          "type": "bool"
        },
        {
          "name": "totalGwei",
          "type": "int256"
        }
      ],
      "payable": false,
      "stateMutability": "view",
      "type": "function"
    },
    {
      "constant": true,
      "inputs": [
        {
          "name": "",
          "type": "address"
        }
      ],
      "name": "voters",
      "outputs": [
        {
          "name": "",
          "type": "bool"
        }
      ],
      "payable": false,
      "stateMutability": "view",
      "type": "function"
    },
    {
      "constant": true,
      "inputs": [
        {
          "name": "",
          "type": "uint256"
        }
      ],
      "name": "addressList",
      "outputs": [
        {
          "name": "",
          "type": "address"
        }
      ],
      "payable": false,
      "stateMutability": "view",
      "type": "function"
    },
    {
      "inputs": [],
      "payable": false,
      "stateMutability": "nonpayable",
      "type": "constructor"
    },
    {
      "anonymous": false,
      "inputs": [
        {
          "indexed": true,
          "name": "_candidateId",
          "type": "uint256"
        }
      ],
      "name": "votedEvent",
      "type": "event"
    },
    {
      "constant": false,
      "inputs": [
        {
          "name": "_name",
          "type": "string"
        },
        {
          "name": "addr",
          "type": "address"
        },
        {
          "name": "reputation",
          "type": "uint256"
        },
        {
          "name": "isMalicious",
          "type": "bool"
        },
        {
          "name": "isVoter",
          "type": "bool"
        }
      ],
      "name": "addCandidate",
      "outputs": [],
      "payable": false,
      "stateMutability": "nonpayable",
      "type": "function"
    },
    {
      "constant": false,
      "inputs": [
        {
          "name": "id",
          "type": "uint256"
        }
      ],
      "name": "deleteCandidate",
      "outputs": [],
      "payable": false,
      "stateMutability": "nonpayable",
      "type": "function"
    },
    {
      "constant": false,
      "inputs": [],
      "name": "calculateReputation",
      "outputs": [],
      "payable": false,
      "stateMutability": "nonpayable",
      "type": "function"
    },
    {
      "constant": false,
      "inputs": [
        {
          "name": "accuracy",
          "type": "uint256"
        }
      ],
      "name": "setGlobalAccuracy",
      "outputs": [],
      "payable": false,
      "stateMutability": "nonpayable",
      "type": "function"
    },
    {
      "constant": false,
      "inputs": [
        {
          "name": "addr",
          "type": "address"
        },
        {
          "name": "reputation",
          "type": "uint256"
        }
      ],
      "name": "setReputation",
      "outputs": [],
      "payable": false,
      "stateMutability": "nonpayable",
      "type": "function"
    },
    {
      "constant": false,
      "inputs": [
        {
          "name": "id",
          "type": "uint256"
        },
        {
          "name": "addr",
          "type": "address"
        },
        {
          "name": "accuracy",
          "type": "uint256"
        },
        {
          "name": "trainingHash",
          "type": "string"
        },
        {
          "name": "ipfsAddress",
          "type": "string"
        }
      ],
      "name": "submitModel",
      "outputs": [],
      "payable": false,
      "stateMutability": "nonpayable",
      "type": "function"
    },
    {
      "constant": false,
      "inputs": [
        {
          "name": "id",
          "type": "uint256"
        },
        {
          "name": "addr",
          "type": "address"
        },
        {
          "name": "eventCode",
          "type": "uint256"
        }
      ],
      "name": "addClientEvent",
      "outputs": [],
      "payable": false,
      "stateMutability": "nonpayable",
      "type": "function"
    },
    {
      "constant": false,
      "inputs": [
        {
          "name": "addr",
          "type": "address"
        },
        {
          "name": "_gwei",
          "type": "int256"
        }
      ],
      "name": "setGwei",
      "outputs": [],
      "payable": false,
      "stateMutability": "nonpayable",
      "type": "function"
    },
    {
      "constant": false,
      "inputs": [
        {
          "name": "_candidateIdTarget",
          "type": "uint256"
        },
        {
          "name": "addr",
          "type": "address"
        },
        {
          "name": "_candidateIdVoter",
          "type": "uint256"
        }
      ],
      "name": "vote",
      "outputs": [],
      "payable": false,
      "stateMutability": "nonpayable",
      "type": "function"
    }
  ],
  "bytecode": "0x608060405260326000556028600155600060025534801561001f57600080fd5b5060506003819055506113e6806100376000396000f3fe6080604052600436106100ca576000357c0100000000000000000000000000000000000000000000000000000000900480631e620cd4146100cf5780632d35a8a21461010a5780634de8737c146101355780635019ae791461019a5780635392e04c146102a45780638ab66a90146102cf5780639886ab1e146104105780639d2b5e431461046b578063a3ec138d146105fe578063a5c4e06c14610667578063a7406f77146106cc578063b120c16a14610707578063b810fb4314610762578063fc1bfb90146107dd575b600080fd5b3480156100db57600080fd5b50610108600480360360208110156100f257600080fd5b81019080803590602001909291905050506107f4565b005b34801561011657600080fd5b5061011f6107f7565b6040518082815260200191505060405180910390f35b34801561014157600080fd5b506101986004803603606081101561015857600080fd5b8101908080359060200190929190803573ffffffffffffffffffffffffffffffffffffffff169060200190929190803590602001909291905050506107fd565b005b3480156101a657600080fd5b506102a2600480360360a08110156101bd57600080fd5b81019080803590602001906401000000008111156101da57600080fd5b8201836020820111156101ec57600080fd5b8035906020019184600183028401116401000000008311171561020e57600080fd5b91908080601f016020809104026020016040519081016040528093929190818152602001838380828437600081840152601f19601f820116905080830192505050505050509192919290803573ffffffffffffffffffffffffffffffffffffffff1690602001909291908035906020019092919080351515906020019092919080351515906020019092919050505061097c565b005b3480156102b057600080fd5b506102b9610ca7565b6040518082815260200191505060405180910390f35b3480156102db57600080fd5b5061031e600480360360208110156102f257600080fd5b81019080803573ffffffffffffffffffffffffffffffffffffffff169060200190929190505050610cad565b604051808b8152602001806020018a81526020018973ffffffffffffffffffffffffffffffffffffffff1673ffffffffffffffffffffffffffffffffffffffff16815260200188815260200187815260200186151515158152602001851515151581526020018415151515815260200183815260200182810382528b818151815260200191508051906020019080838360005b838110156103cc5780820151818401526020810190506103b1565b50505050905090810190601f1680156103f95780820380516001836020036101000a031916815260200191505b509b50505050505050505050505060405180910390f35b34801561041c57600080fd5b506104696004803603604081101561043357600080fd5b81019080803573ffffffffffffffffffffffffffffffffffffffff16906020019092919080359060200190929190505050610de0565b005b34801561047757600080fd5b506105fc600480360360a081101561048e57600080fd5b8101908080359060200190929190803573ffffffffffffffffffffffffffffffffffffffff16906020019092919080359060200190929190803590602001906401000000008111156104df57600080fd5b8201836020820111156104f157600080fd5b8035906020019184600183028401116401000000008311171561051357600080fd5b91908080601f016020809104026020016040519081016040528093929190818152602001838380828437600081840152601f19601f8201169050808301925050505050505091929192908035906020019064010000000081111561057657600080fd5b82018360208201111561058857600080fd5b803590602001918460018302840111640100000000831117156105aa57600080fd5b91908080601f016020809104026020016040519081016040528093929190818152602001838380828437600081840152601f19601f820116905080830192505050505050509192919290505050610e31565b005b34801561060a57600080fd5b5061064d6004803603602081101561062157600080fd5b81019080803573ffffffffffffffffffffffffffffffffffffffff169060200190929190505050610f07565b604051808215151515815260200191505060405180910390f35b34801561067357600080fd5b506106ca6004803603606081101561068a57600080fd5b8101908080359060200190929190803573ffffffffffffffffffffffffffffffffffffffff16906020019092919080359060200190929190505050610f27565b005b3480156106d857600080fd5b50610705600480360360208110156106ef57600080fd5b8101908080359060200190929190505050610f9e565b005b34801561071357600080fd5b506107606004803603604081101561072a57600080fd5b81019080803573ffffffffffffffffffffffffffffffffffffffff16906020019092919080359060200190929190505050610fa8565b005b34801561076e57600080fd5b5061079b6004803603602081101561078557600080fd5b8101908080359060200190929190505050610ff9565b604051808273ffffffffffffffffffffffffffffffffffffffff1673ffffffffffffffffffffffffffffffffffffffff16815260200191505060405180910390f35b3480156107e957600080fd5b506107f2611037565b005b50565b60065481565b600460003373ffffffffffffffffffffffffffffffffffffffff1673ffffffffffffffffffffffffffffffffffffffff16815260200190815260200160002060009054906101000a900460ff1615151561085657600080fd5b6000831180156108665750600081115b801561087457506006548311155b801561088257506006548111155b151561088d57600080fd5b6001600460003373ffffffffffffffffffffffffffffffffffffffff1673ffffffffffffffffffffffffffffffffffffffff16815260200190815260200160002060006101000a81548160ff021916908315150217905550600560008373ffffffffffffffffffffffffffffffffffffffff1673ffffffffffffffffffffffffffffffffffffffff16815260200190815260200160002060040154600560008473ffffffffffffffffffffffffffffffffffffffff1673ffffffffffffffffffffffffffffffffffffffff16815260200190815260200160002060020160008282540192505081905550505050565b60066000815480929190600101919050555060078490806001815401808255809150509060018203906000526020600020016000909192909190916101000a81548173ffffffffffffffffffffffffffffffffffffffff021916908373ffffffffffffffffffffffffffffffffffffffff160217905550506101a060405190810160405280600654815260200186815260200160025481526020018573ffffffffffffffffffffffffffffffffffffffff168152602001848152602001600a604051908082528060200260200182016040528015610a695781602001602082028038833980820191505090505b50815260200160008152602001600a604051908082528060200260200182016040528015610aab57816020015b6060815260200190600190039081610a965790505b508152602001600a604051908082528060200260200182016040528015610ae657816020015b6060815260200190600190039081610ad15790505b50815260200183151581526020018215158152602001600015158152602001624c4b40815250600560008673ffffffffffffffffffffffffffffffffffffffff1673ffffffffffffffffffffffffffffffffffffffff168152602001908152602001600020600082015181600001556020820151816001019080519060200190610b71929190611174565b506040820151816002015560608201518160030160006101000a81548173ffffffffffffffffffffffffffffffffffffffff021916908373ffffffffffffffffffffffffffffffffffffffff1602179055506080820151816004015560a0820151816005019080519060200190610be99291906111f4565b5060c0820151816006015560e0820151816007019080519060200190610c10929190611241565b50610100820151816008019080519060200190610c2e929190611241565b506101208201518160090160006101000a81548160ff0219169083151502179055506101408201518160090160016101000a81548160ff0219169083151502179055506101608201518160090160026101000a81548160ff02191690831515021790555061018082015181600a01559050505050505050565b60035481565b6005602052806000526040600020600091509050806000015490806001018054600181600116156101000203166002900480601f016020809104026020016040519081016040528092919081815260200182805460018160011615610100020316600290048015610d5f5780601f10610d3457610100808354040283529160200191610d5f565b820191906000526020600020905b815481529060010190602001808311610d4257829003601f168201915b5050505050908060020154908060030160009054906101000a900473ffffffffffffffffffffffffffffffffffffffff16908060040154908060060154908060090160009054906101000a900460ff16908060090160019054906101000a900460ff16908060090160029054906101000a900460ff169080600a015490508a565b6000600560008473ffffffffffffffffffffffffffffffffffffffff1673ffffffffffffffffffffffffffffffffffffffff16815260200190815260200160002090508181600a0181905550505050565b6000600560008673ffffffffffffffffffffffffffffffffffffffff1673ffffffffffffffffffffffffffffffffffffffff168152602001908152602001600020905083816006018190555080600701839080600181540180825580915050906001820390600052602060002001600090919290919091509080519060200190610ebc9291906112a1565b505080600801829080600181540180825580915050906001820390600052602060002001600090919290919091509080519060200190610efd9291906112a1565b5050505050505050565b60046020528060005260406000206000915054906101000a900460ff1681565b6000600560008473ffffffffffffffffffffffffffffffffffffffff1673ffffffffffffffffffffffffffffffffffffffff16815260200190815260200160002090508060050182908060018154018082558091505090600182039060005260206000200160009091929091909150555050505050565b8060038190555050565b6000600560008473ffffffffffffffffffffffffffffffffffffffff1673ffffffffffffffffffffffffffffffffffffffff1681526020019081526020016000209050818160040181905550505050565b60078181548110151561100857fe5b906000526020600020016000915054906101000a900473ffffffffffffffffffffffffffffffffffffffff1681565b60008090505b600780549050811015611171576001546005600060078481548110151561106057fe5b9060005260206000200160009054906101000a900473ffffffffffffffffffffffffffffffffffffffff1673ffffffffffffffffffffffffffffffffffffffff1673ffffffffffffffffffffffffffffffffffffffff168152602001908152602001600020600401541015611164576001600560006007848154811015156110e457fe5b9060005260206000200160009054906101000a900473ffffffffffffffffffffffffffffffffffffffff1673ffffffffffffffffffffffffffffffffffffffff1673ffffffffffffffffffffffffffffffffffffffff16815260200190815260200160002060090160026101000a81548160ff0219169083151502179055505b808060010191505061103d565b50565b828054600181600116156101000203166002900490600052602060002090601f016020900481019282601f106111b557805160ff19168380011785556111e3565b828001600101855582156111e3579182015b828111156111e25782518255916020019190600101906111c7565b5b5090506111f09190611321565b5090565b828054828255906000526020600020908101928215611230579160200282015b8281111561122f578251825591602001919060010190611214565b5b50905061123d9190611321565b5090565b828054828255906000526020600020908101928215611290579160200282015b8281111561128f57825182908051906020019061127f929190611174565b5091602001919060010190611261565b5b50905061129d9190611346565b5090565b828054600181600116156101000203166002900490600052602060002090601f016020900481019282601f106112e257805160ff1916838001178555611310565b82800160010185558215611310579182015b8281111561130f5782518255916020019190600101906112f4565b5b50905061131d9190611321565b5090565b61134391905b8082111561133f576000816000905550600101611327565b5090565b90565b61136f91905b8082111561136b57600081816113629190611372565b5060010161134c565b5090565b90565b50805460018160011615610100020316600290046000825580601f1061139857506113b7565b601f0160209004906000526020600020908101906113b69190611321565b5b5056fea165627a7a72305820fdfb63d7a344ea29c0d99a958ac3a12f89b266abaf7e0ceead1c6bb51df36ee50029",
  "source": "pragma solidity >=0.5.1;\r\n\r\ncontract Election {\r\n    // Model a Candidate\r\n    uint STARTING_REPUTATION = 50; \r\n    uint MINIMUM_REPUTATION = 40; \r\n    uint STARTING_VOTE_COUNT = 0; \r\n    struct Candidate {\r\n        uint id;\r\n        string name;\r\n        uint score;\r\n        address addr;\r\n        uint reputation;\r\n        uint[] events;\r\n        uint accuracy;\r\n        string[] trainingHashes;\r\n        string[] ipfsAddresses;\r\n        bool isMalicious;\r\n        bool isVoter;\r\n        bool isBanned;\r\n        int totalGwei;\r\n    }\r\n    \r\n\r\n    // Store accounts that have voted\r\n    uint public globalAccuracy;\r\n    mapping(address => bool) public voters;\r\n    // Store Candidates\r\n    // Fetch Candidate\r\n    mapping(address => Candidate) public candidates;\r\n    // Store Candidates Count\r\n    uint public candidatesCount;\r\n    address[] public addressList;\r\n\r\n    // voted event\r\n    event votedEvent (\r\n        uint indexed _candidateId\r\n    );\r\n\r\n    constructor () public {\r\n        globalAccuracy = 80;\r\n        // addCandidate(\"Candidate 1\",0x07E4bE8e931Ea6c7D694350552e127182a32f211);\r\n        // addCandidate(\"Candidate 2\",0x81baA2622dD9629B3b4e8d3451259DA04d1b31C8);\r\n    }\r\n\r\n    function addCandidate (string memory _name, address addr, uint reputation, bool isMalicious, bool isVoter) public {\r\n        candidatesCount ++;\r\n        addressList.push(addr);\r\n        candidates[addr] = Candidate(candidatesCount, _name, STARTING_VOTE_COUNT, addr, reputation, new uint[](10),0, new string[](10), new string[](10), isMalicious, isVoter, false, 5000000);\r\n    }\r\n\r\n    function deleteCandidate (uint id) public{\r\n    }\r\n    function calculateReputation () public {\r\n        for (uint256 index = 0; index < addressList.length; index++) {\r\n            if (candidates[addressList[index]].reputation < MINIMUM_REPUTATION){ \r\n                candidates[addressList[index]].isBanned = true;\r\n            }\r\n        }\r\n    }\r\n    function setGlobalAccuracy (uint accuracy) public {\r\n        globalAccuracy = accuracy;\r\n    }\r\n    function setReputation(address addr, uint reputation) public {\r\n        \r\n        Candidate storage candidate  = candidates[addr];\r\n        candidate.reputation = reputation;\r\n    }\r\n    function submitModel(uint id, address addr, uint accuracy, string memory trainingHash, string memory ipfsAddress) public {\r\n        \r\n        Candidate storage candidate  = candidates[addr];\r\n        candidate.accuracy = accuracy;\r\n        candidate.trainingHashes.push(trainingHash);\r\n        candidate.ipfsAddresses.push(ipfsAddress);\r\n    }\r\n    function addClientEvent (uint id, address addr, uint eventCode) public {\r\n        Candidate storage candidate  = candidates[addr];\r\n        candidate.events.push(eventCode);\r\n    } \r\n    function setGwei(address addr,int _gwei) public{\r\n        \r\n        Candidate storage candidate  = candidates[addr];\r\n        candidate.totalGwei = _gwei;\r\n    }\r\n    function vote (uint _candidateIdTarget, address addr, uint _candidateIdVoter) public {\r\n        // require that they haven't voted before\r\n        require(!voters[msg.sender]);\r\n\r\n        // require  valid candidates\r\n        require(_candidateIdTarget > 0 && _candidateIdVoter > 0 && _candidateIdTarget <= candidatesCount \r\n        && _candidateIdVoter <= candidatesCount);\r\n\r\n        // record that voter has voted\r\n        voters[msg.sender] = true;\r\n\r\n        // update candidate vote Count\r\n        candidates[addr].score += candidates[addr].reputation;\r\n\r\n        // trigger voted event\r\n        // emit votedEvent(_candidateIdVoter);\r\n    }\r\n    \r\n    // function sort(int[] memory arr) public pure returns (int[] memory) {\r\n    //     // quickSort(arr, uint(0), uint(data.length - 1));\r\n    //     sort_array(arr);\r\n    //     return arr;\r\n    // }\r\n    \r\n    // function quickSort(int[] memory arr, uint left, uint right) private pure {\r\n    //     uint i = left;\r\n    //     uint j = right;\r\n    //     if (i == j) return;\r\n    //     int pivot = arr[uint(left + (right - left) / 2)];\r\n    //     while (i <= j) {\r\n    //         while (arr[uint(i)] < pivot) i++;\r\n    //         while (pivot < arr[uint(j)]) j--;\r\n    //         if (i <= j) {\r\n    //             (arr[uint(i)], arr[uint(j)]) = (arr[uint(j)], arr[uint(i)]);\r\n    //             i++;\r\n    //             j--;\r\n    //         }\r\n    //     }\r\n    //     if (left < j)\r\n    //         quickSort(arr, left, j);\r\n    //     if (i < right)\r\n    //         quickSort(arr, i, right);\r\n    // }\r\n    // function sort_array(int[] memory arr) private pure returns (int[] memory) {\r\n    //     uint256 l = arr.length;\r\n    //     for(uint i = 0; i < l; i++) {\r\n    //         for(uint j = i+1; j < l ;j++) {\r\n    //             if(arr[i] > arr[j]) {\r\n    //                 int temp = arr[i];\r\n    //                 arr[i] = arr[j];\r\n    //                 arr[j] = temp;\r\n    //             }\r\n    //         }\r\n    //     }\r\n    //     return arr;\r\n    // }\r\n}\r\n",
  "sourcePath": "/apps/contracts/Election.sol",
  "compiler": {
    "name": "solc",
    "version": "0.5.1+commit.c8a2cb62.Emscripten.clang"
  },
  "schemaVersion": "3.3.4",
  "updatedAt": "2023-05-11T10:15:20.815Z",
  "networkType": "ethereum",
  "devdoc": {
    "methods": {}
  },
  "userdoc": {
    "methods": {}
  }
}