{
  "contractName": "Election",
  "abi": [
    {
      "inputs": [],
      "stateMutability": "nonpayable",
      "type": "constructor"
    },
    {
      "anonymous": false,
      "inputs": [
        {
          "indexed": true,
          "internalType": "uint256",
          "name": "_candidateId",
          "type": "uint256"
        }
      ],
      "name": "votedEvent",
      "type": "event"
    },
    {
      "inputs": [
        {
          "internalType": "uint256",
          "name": "",
          "type": "uint256"
        }
      ],
      "name": "addressList",
      "outputs": [
        {
          "internalType": "address",
          "name": "",
          "type": "address"
        }
      ],
      "stateMutability": "view",
      "type": "function",
      "constant": true
    },
    {
      "inputs": [
        {
          "internalType": "address",
          "name": "",
          "type": "address"
        }
      ],
      "name": "candidates",
      "outputs": [
        {
          "internalType": "uint256",
          "name": "id",
          "type": "uint256"
        },
        {
          "internalType": "string",
          "name": "name",
          "type": "string"
        },
        {
          "internalType": "uint256",
          "name": "score",
          "type": "uint256"
        },
        {
          "internalType": "address",
          "name": "addr",
          "type": "address"
        },
        {
          "internalType": "uint256",
          "name": "reputation",
          "type": "uint256"
        },
        {
          "internalType": "uint256",
          "name": "accuracy",
          "type": "uint256"
        },
        {
          "internalType": "bool",
          "name": "isMalicious",
          "type": "bool"
        },
        {
          "internalType": "bool",
          "name": "isVoter",
          "type": "bool"
        },
        {
          "internalType": "bool",
          "name": "isBanned",
          "type": "bool"
        }
      ],
      "stateMutability": "view",
      "type": "function",
      "constant": true
    },
    {
      "inputs": [],
      "name": "candidatesCount",
      "outputs": [
        {
          "internalType": "uint256",
          "name": "",
          "type": "uint256"
        }
      ],
      "stateMutability": "view",
      "type": "function",
      "constant": true
    },
    {
      "inputs": [],
      "name": "globalAccuracy",
      "outputs": [
        {
          "internalType": "uint256",
          "name": "",
          "type": "uint256"
        }
      ],
      "stateMutability": "view",
      "type": "function",
      "constant": true
    },
    {
      "inputs": [
        {
          "internalType": "address",
          "name": "",
          "type": "address"
        }
      ],
      "name": "voters",
      "outputs": [
        {
          "internalType": "bool",
          "name": "",
          "type": "bool"
        }
      ],
      "stateMutability": "view",
      "type": "function",
      "constant": true
    },
    {
      "inputs": [
        {
          "internalType": "string",
          "name": "_name",
          "type": "string"
        },
        {
          "internalType": "address",
          "name": "addr",
          "type": "address"
        },
        {
          "internalType": "bool",
          "name": "isMalicious",
          "type": "bool"
        },
        {
          "internalType": "bool",
          "name": "isVoter",
          "type": "bool"
        }
      ],
      "name": "addCandidate",
      "outputs": [],
      "stateMutability": "nonpayable",
      "type": "function"
    },
    {
      "inputs": [
        {
          "internalType": "uint256",
          "name": "id",
          "type": "uint256"
        }
      ],
      "name": "deleteCandidate",
      "outputs": [],
      "stateMutability": "nonpayable",
      "type": "function"
    },
    {
      "inputs": [],
      "name": "calculateReputation",
      "outputs": [],
      "stateMutability": "nonpayable",
      "type": "function"
    },
    {
      "inputs": [
        {
          "internalType": "uint256",
          "name": "accuracy",
          "type": "uint256"
        }
      ],
      "name": "setGlobalAccuracy",
      "outputs": [],
      "stateMutability": "nonpayable",
      "type": "function"
    },
    {
      "inputs": [
        {
          "internalType": "address",
          "name": "addr",
          "type": "address"
        },
        {
          "internalType": "uint256",
          "name": "reputation",
          "type": "uint256"
        }
      ],
      "name": "setReputation",
      "outputs": [],
      "stateMutability": "nonpayable",
      "type": "function"
    },
    {
      "inputs": [
        {
          "internalType": "uint256",
          "name": "id",
          "type": "uint256"
        },
        {
          "internalType": "address",
          "name": "addr",
          "type": "address"
        },
        {
          "internalType": "uint256",
          "name": "accuracy",
          "type": "uint256"
        },
        {
          "internalType": "string",
          "name": "trainingHash",
          "type": "string"
        },
        {
          "internalType": "string",
          "name": "ipfsAddress",
          "type": "string"
        }
      ],
      "name": "submitModel",
      "outputs": [],
      "stateMutability": "nonpayable",
      "type": "function"
    },
    {
      "inputs": [
        {
          "internalType": "uint256",
          "name": "id",
          "type": "uint256"
        },
        {
          "internalType": "address",
          "name": "addr",
          "type": "address"
        },
        {
          "internalType": "uint256",
          "name": "eventCode",
          "type": "uint256"
        }
      ],
      "name": "addClientEvent",
      "outputs": [],
      "stateMutability": "nonpayable",
      "type": "function"
    },
    {
      "inputs": [
        {
          "internalType": "uint256",
          "name": "_candidateIdTarget",
          "type": "uint256"
        },
        {
          "internalType": "address",
          "name": "addr",
          "type": "address"
        },
        {
          "internalType": "uint256",
          "name": "_candidateIdVoter",
          "type": "uint256"
        }
      ],
      "name": "vote",
      "outputs": [],
      "stateMutability": "nonpayable",
      "type": "function"
    }
  ],
  "bytecode": "0x608060405260326000556028600155600060025534801561001f57600080fd5b5060506003819055506116ad806100376000396000f3fe608060405234801561001057600080fd5b50600436106100cf5760003560e01c80639d2b5e431161008c578063a7406f7711610066578063a7406f7714610204578063b120c16a14610220578063b810fb431461023c578063fc1bfb901461026c576100cf565b80639d2b5e431461019c578063a3ec138d146101b8578063a5c4e06c146101e8576100cf565b80631130575b146100d45780631e620cd4146100f05780632d35a8a21461010c5780634de8737c1461012a5780635392e04c146101465780638ab66a9014610164575b600080fd5b6100ee60048036038101906100e99190610ed5565b610276565b005b61010a60048036038101906101059190610f8e565b6105d4565b005b6101146105d7565b6040516101219190610fca565b60405180910390f35b610144600480360381019061013f9190610fe5565b6105dd565b005b61014e610761565b60405161015b9190610fca565b60405180910390f35b61017e60048036038101906101799190611038565b610767565b60405161019399989796959493929190611102565b60405180910390f35b6101b660048036038101906101b19190611196565b610884565b005b6101d260048036038101906101cd9190611038565b610946565b6040516101df9190611249565b60405180910390f35b61020260048036038101906101fd9190610fe5565b610966565b005b61021e60048036038101906102199190610f8e565b6109da565b005b61023a60048036038101906102359190611264565b6109e4565b005b61025660048036038101906102519190610f8e565b610a35565b60405161026391906112a4565b60405180910390f35b610274610a74565b005b60066000815480929190610289906112ee565b91905055506007839080600181540180825580915050600190039060005260206000200160009091909190916101000a81548173ffffffffffffffffffffffffffffffffffffffff021916908373ffffffffffffffffffffffffffffffffffffffff160217905550604051806101800160405280600654815260200185815260200160025481526020018473ffffffffffffffffffffffffffffffffffffffff1681526020016000548152602001600a67ffffffffffffffff81111561035257610351610d14565b5b6040519080825280602002602001820160405280156103805781602001602082028036833780820191505090505b50815260200160008152602001600a67ffffffffffffffff8111156103a8576103a7610d14565b5b6040519080825280602002602001820160405280156103db57816020015b60608152602001906001900390816103c65790505b508152602001600a67ffffffffffffffff8111156103fc576103fb610d14565b5b60405190808252806020026020018201604052801561042f57816020015b606081526020019060019003908161041a5790505b5081526020018315158152602001821515815260200160001515815250600560008573ffffffffffffffffffffffffffffffffffffffff1673ffffffffffffffffffffffffffffffffffffffff1681526020019081526020016000206000820151816000015560208201518160010190816104aa9190611542565b506040820151816002015560608201518160030160006101000a81548173ffffffffffffffffffffffffffffffffffffffff021916908373ffffffffffffffffffffffffffffffffffffffff1602179055506080820151816004015560a0820151816005019080519060200190610522929190610bbe565b5060c0820151816006015560e0820151816007019080519060200190610549929190610c0b565b50610100820151816008019080519060200190610567929190610c0b565b506101208201518160090160006101000a81548160ff0219169083151502179055506101408201518160090160016101000a81548160ff0219169083151502179055506101608201518160090160026101000a81548160ff02191690831515021790555090505050505050565b50565b60065481565b600460003373ffffffffffffffffffffffffffffffffffffffff1673ffffffffffffffffffffffffffffffffffffffff16815260200190815260200160002060009054906101000a900460ff161561063457600080fd5b6000831180156106445750600081115b801561065257506006548311155b801561066057506006548111155b61066957600080fd5b6001600460003373ffffffffffffffffffffffffffffffffffffffff1673ffffffffffffffffffffffffffffffffffffffff16815260200190815260200160002060006101000a81548160ff021916908315150217905550600560008373ffffffffffffffffffffffffffffffffffffffff1673ffffffffffffffffffffffffffffffffffffffff16815260200190815260200160002060040154600560008473ffffffffffffffffffffffffffffffffffffffff1673ffffffffffffffffffffffffffffffffffffffff16815260200190815260200160002060020160008282546107559190611614565b92505081905550505050565b60035481565b600560205280600052604060002060009150905080600001549080600101805461079090611365565b80601f01602080910402602001604051908101604052809291908181526020018280546107bc90611365565b80156108095780601f106107de57610100808354040283529160200191610809565b820191906000526020600020905b8154815290600101906020018083116107ec57829003601f168201915b5050505050908060020154908060030160009054906101000a900473ffffffffffffffffffffffffffffffffffffffff16908060040154908060060154908060090160009054906101000a900460ff16908060090160019054906101000a900460ff16908060090160029054906101000a900460ff16905089565b6000600560008673ffffffffffffffffffffffffffffffffffffffff1673ffffffffffffffffffffffffffffffffffffffff168152602001908152602001600020905083816006018190555080600701839080600181540180825580915050600190039060005260206000200160009091909190915090816109069190611542565b50806008018290806001815401808255809150506001900390600052602060002001600090919091909150908161093d9190611542565b50505050505050565b60046020528060005260406000206000915054906101000a900460ff1681565b6000600560008473ffffffffffffffffffffffffffffffffffffffff1673ffffffffffffffffffffffffffffffffffffffff16815260200190815260200160002090508060050182908060018154018082558091505060019003906000526020600020016000909190919091505550505050565b8060038190555050565b6000600560008473ffffffffffffffffffffffffffffffffffffffff1673ffffffffffffffffffffffffffffffffffffffff1681526020019081526020016000209050818160040181905550505050565b60078181548110610a4557600080fd5b906000526020600020016000915054906101000a900473ffffffffffffffffffffffffffffffffffffffff1681565b60005b600780549050811015610bbb576001546005600060078481548110610a9f57610a9e611648565b5b9060005260206000200160009054906101000a900473ffffffffffffffffffffffffffffffffffffffff1673ffffffffffffffffffffffffffffffffffffffff1673ffffffffffffffffffffffffffffffffffffffff168152602001908152602001600020600401541015610ba85760016005600060078481548110610b2857610b27611648565b5b9060005260206000200160009054906101000a900473ffffffffffffffffffffffffffffffffffffffff1673ffffffffffffffffffffffffffffffffffffffff1673ffffffffffffffffffffffffffffffffffffffff16815260200190815260200160002060090160026101000a81548160ff0219169083151502179055505b8080610bb3906112ee565b915050610a77565b50565b828054828255906000526020600020908101928215610bfa579160200282015b82811115610bf9578251825591602001919060010190610bde565b5b509050610c079190610c64565b5090565b828054828255906000526020600020908101928215610c53579160200282015b82811115610c52578251829081610c429190611542565b5091602001919060010190610c2b565b5b509050610c609190610c81565b5090565b5b80821115610c7d576000816000905550600101610c65565b5090565b5b80821115610ca15760008181610c989190610ca5565b50600101610c82565b5090565b508054610cb190611365565b6000825580601f10610cc35750610ce2565b601f016020900490600052602060002090810190610ce19190610c64565b5b50565b6000604051905090565b600080fd5b600080fd5b600080fd5b600080fd5b6000601f19601f8301169050919050565b7f4e487b7100000000000000000000000000000000000000000000000000000000600052604160045260246000fd5b610d4c82610d03565b810181811067ffffffffffffffff82111715610d6b57610d6a610d14565b5b80604052505050565b6000610d7e610ce5565b9050610d8a8282610d43565b919050565b600067ffffffffffffffff821115610daa57610da9610d14565b5b610db382610d03565b9050602081019050919050565b82818337600083830152505050565b6000610de2610ddd84610d8f565b610d74565b905082815260208101848484011115610dfe57610dfd610cfe565b5b610e09848285610dc0565b509392505050565b600082601f830112610e2657610e25610cf9565b5b8135610e36848260208601610dcf565b91505092915050565b600073ffffffffffffffffffffffffffffffffffffffff82169050919050565b6000610e6a82610e3f565b9050919050565b610e7a81610e5f565b8114610e8557600080fd5b50565b600081359050610e9781610e71565b92915050565b60008115159050919050565b610eb281610e9d565b8114610ebd57600080fd5b50565b600081359050610ecf81610ea9565b92915050565b60008060008060808587031215610eef57610eee610cef565b5b600085013567ffffffffffffffff811115610f0d57610f0c610cf4565b5b610f1987828801610e11565b9450506020610f2a87828801610e88565b9350506040610f3b87828801610ec0565b9250506060610f4c87828801610ec0565b91505092959194509250565b6000819050919050565b610f6b81610f58565b8114610f7657600080fd5b50565b600081359050610f8881610f62565b92915050565b600060208284031215610fa457610fa3610cef565b5b6000610fb284828501610f79565b91505092915050565b610fc481610f58565b82525050565b6000602082019050610fdf6000830184610fbb565b92915050565b600080600060608486031215610ffe57610ffd610cef565b5b600061100c86828701610f79565b935050602061101d86828701610e88565b925050604061102e86828701610f79565b9150509250925092565b60006020828403121561104e5761104d610cef565b5b600061105c84828501610e88565b91505092915050565b600081519050919050565b600082825260208201905092915050565b60005b8381101561109f578082015181840152602081019050611084565b60008484015250505050565b60006110b682611065565b6110c08185611070565b93506110d0818560208601611081565b6110d981610d03565b840191505092915050565b6110ed81610e5f565b82525050565b6110fc81610e9d565b82525050565b600061012082019050611118600083018c610fbb565b818103602083015261112a818b6110ab565b9050611139604083018a610fbb565b61114660608301896110e4565b6111536080830188610fbb565b61116060a0830187610fbb565b61116d60c08301866110f3565b61117a60e08301856110f3565b6111886101008301846110f3565b9a9950505050505050505050565b600080600080600060a086880312156111b2576111b1610cef565b5b60006111c088828901610f79565b95505060206111d188828901610e88565b94505060406111e288828901610f79565b935050606086013567ffffffffffffffff81111561120357611202610cf4565b5b61120f88828901610e11565b925050608086013567ffffffffffffffff8111156112305761122f610cf4565b5b61123c88828901610e11565b9150509295509295909350565b600060208201905061125e60008301846110f3565b92915050565b6000806040838503121561127b5761127a610cef565b5b600061128985828601610e88565b925050602061129a85828601610f79565b9150509250929050565b60006020820190506112b960008301846110e4565b92915050565b7f4e487b7100000000000000000000000000000000000000000000000000000000600052601160045260246000fd5b60006112f982610f58565b91507fffffffffffffffffffffffffffffffffffffffffffffffffffffffffffffffff820361132b5761132a6112bf565b5b600182019050919050565b7f4e487b7100000000000000000000000000000000000000000000000000000000600052602260045260246000fd5b6000600282049050600182168061137d57607f821691505b6020821081036113905761138f611336565b5b50919050565b60008190508160005260206000209050919050565b60006020601f8301049050919050565b600082821b905092915050565b6000600883026113f87fffffffffffffffffffffffffffffffffffffffffffffffffffffffffffffffff826113bb565b61140286836113bb565b95508019841693508086168417925050509392505050565b6000819050919050565b600061143f61143a61143584610f58565b61141a565b610f58565b9050919050565b6000819050919050565b61145983611424565b61146d61146582611446565b8484546113c8565b825550505050565b600090565b611482611475565b61148d818484611450565b505050565b5b818110156114b1576114a660008261147a565b600181019050611493565b5050565b601f8211156114f6576114c781611396565b6114d0846113ab565b810160208510156114df578190505b6114f36114eb856113ab565b830182611492565b50505b505050565b600082821c905092915050565b6000611519600019846008026114fb565b1980831691505092915050565b60006115328383611508565b9150826002028217905092915050565b61154b82611065565b67ffffffffffffffff81111561156457611563610d14565b5b61156e8254611365565b6115798282856114b5565b600060209050601f8311600181146115ac576000841561159a578287015190505b6115a48582611526565b86555061160c565b601f1984166115ba86611396565b60005b828110156115e2578489015182556001820191506020850194506020810190506115bd565b868310156115ff57848901516115fb601f891682611508565b8355505b6001600288020188555050505b505050505050565b600061161f82610f58565b915061162a83610f58565b9250828201905080821115611642576116416112bf565b5b92915050565b7f4e487b7100000000000000000000000000000000000000000000000000000000600052603260045260246000fdfea2646970667358221220e00cfc343cce49b495576ecd1748929a3e41be073b69a914f42fe89a4431180564736f6c63430008130033",
  "immutableReferences": {},
  "source": "pragma solidity >=0.8;\r\n\r\ncontract Election {\r\n    // Model a Candidate\r\n    uint STARTING_REPUTATION = 50; \r\n    uint MINIMUM_REPUTATION = 40; \r\n    uint STARTING_VOTE_COUNT = 0; \r\n    struct Candidate {\r\n        uint id;\r\n        string name;\r\n        uint score;\r\n        address addr;\r\n        uint reputation;\r\n        uint[] events;\r\n        uint accuracy;\r\n        string[] trainingHashes;\r\n        string[] ipfsAddresses;\r\n        bool isMalicious;\r\n        bool isVoter;\r\n        bool isBanned;\r\n    }\r\n    \r\n\r\n    // Store accounts that have voted\r\n    uint public globalAccuracy;\r\n    mapping(address => bool) public voters;\r\n    // Store Candidates\r\n    // Fetch Candidate\r\n    mapping(address => Candidate) public candidates;\r\n    // Store Candidates Count\r\n    uint public candidatesCount;\r\n    address[] public addressList;\r\n\r\n    // voted event\r\n    event votedEvent (\r\n        uint indexed _candidateId\r\n    );\r\n\r\n    constructor () public {\r\n        globalAccuracy = 80;\r\n        // addCandidate(\"Candidate 1\",0x07E4bE8e931Ea6c7D694350552e127182a32f211);\r\n        // addCandidate(\"Candidate 2\",0x81baA2622dD9629B3b4e8d3451259DA04d1b31C8);\r\n    }\r\n\r\n    function addCandidate (string memory _name, address addr, bool isMalicious, bool isVoter) public {\r\n        candidatesCount ++;\r\n        addressList.push(addr);\r\n        candidates[addr] = Candidate(candidatesCount, _name, STARTING_VOTE_COUNT, addr, STARTING_REPUTATION, new uint[](10),0, new string[](10), new string[](10), isMalicious, isVoter, false);\r\n    }\r\n\r\n    function deleteCandidate (uint id) public{\r\n    }\r\n    function calculateReputation () public {\r\n        for (uint256 index = 0; index < addressList.length; index++) {\r\n            if (candidates[addressList[index]].reputation < MINIMUM_REPUTATION){ \r\n                candidates[addressList[index]].isBanned = true;\r\n            }\r\n        }\r\n    }\r\n    function setGlobalAccuracy (uint accuracy) public {\r\n        globalAccuracy = accuracy;\r\n    }\r\n    function setReputation(address addr, uint reputation) public {\r\n        \r\n        Candidate storage candidate  = candidates[addr];\r\n        candidate.reputation = reputation;\r\n    }\r\n    function submitModel(uint id, address addr, uint accuracy, string memory trainingHash, string memory ipfsAddress) public {\r\n        \r\n        Candidate storage candidate  = candidates[addr];\r\n        candidate.accuracy = accuracy;\r\n        candidate.trainingHashes.push(trainingHash);\r\n        candidate.ipfsAddresses.push(ipfsAddress);\r\n    }\r\n    function addClientEvent (uint id, address addr, uint eventCode) public {\r\n        Candidate storage candidate  = candidates[addr];\r\n        candidate.events.push(eventCode);\r\n    } \r\n    function vote (uint _candidateIdTarget, address addr, uint _candidateIdVoter) public {\r\n        // require that they haven't voted before\r\n        require(!voters[msg.sender]);\r\n\r\n        // require  valid candidates\r\n        require(_candidateIdTarget > 0 && _candidateIdVoter > 0 && _candidateIdTarget <= candidatesCount \r\n        && _candidateIdVoter <= candidatesCount);\r\n\r\n        // record that voter has voted\r\n        voters[msg.sender] = true;\r\n\r\n        // update candidate vote Count\r\n        candidates[addr].score += candidates[addr].reputation;\r\n\r\n        // trigger voted event\r\n        // emit votedEvent(_candidateIdVoter);\r\n    }\r\n    \r\n    // function sort(int[] memory arr) public pure returns (int[] memory) {\r\n    //     // quickSort(arr, uint(0), uint(data.length - 1));\r\n    //     sort_array(arr);\r\n    //     return arr;\r\n    // }\r\n    \r\n    // function quickSort(int[] memory arr, uint left, uint right) private pure {\r\n    //     uint i = left;\r\n    //     uint j = right;\r\n    //     if (i == j) return;\r\n    //     int pivot = arr[uint(left + (right - left) / 2)];\r\n    //     while (i <= j) {\r\n    //         while (arr[uint(i)] < pivot) i++;\r\n    //         while (pivot < arr[uint(j)]) j--;\r\n    //         if (i <= j) {\r\n    //             (arr[uint(i)], arr[uint(j)]) = (arr[uint(j)], arr[uint(i)]);\r\n    //             i++;\r\n    //             j--;\r\n    //         }\r\n    //     }\r\n    //     if (left < j)\r\n    //         quickSort(arr, left, j);\r\n    //     if (i < right)\r\n    //         quickSort(arr, i, right);\r\n    // }\r\n    // function sort_array(int[] memory arr) private pure returns (int[] memory) {\r\n    //     uint256 l = arr.length;\r\n    //     for(uint i = 0; i < l; i++) {\r\n    //         for(uint j = i+1; j < l ;j++) {\r\n    //             if(arr[i] > arr[j]) {\r\n    //                 int temp = arr[i];\r\n    //                 arr[i] = arr[j];\r\n    //                 arr[j] = temp;\r\n    //             }\r\n    //         }\r\n    //     }\r\n    //     return arr;\r\n    // }\r\n}\r\n",
  "sourcePath": "/apps/contracts/Election.sol",
  "compiler": {
    "name": "solc",
    "version": "0.8.19+commit.7dd6d404.Emscripten.clang"
  },
  "schemaVersion": "3.3.4",
  "updatedAt": "2023-03-26T18:12:48.272Z",
  "networkType": "ethereum",
  "devdoc": {
    "kind": "dev",
    "methods": {},
    "version": 1
  },
  "userdoc": {
    "kind": "user",
    "methods": {},
    "version": 1
  }
}